{
	"data": {
		"bytecode": {
			"linkReferences": {},
			"object": "6080604052600e80546001600160a01b031916331790553480156200002357600080fd5b506040516200448338038062004483833981016040819052620000469162000140565b60016004558181600c6200005b838262000239565b50600d6200006a828262000239565b505060016004555062000305915050565b634e487b7160e01b600052604160045260246000fd5b600082601f830112620000a357600080fd5b81516001600160401b0380821115620000c057620000c06200007b565b604051601f8301601f19908116603f01168101908282118183101715620000eb57620000eb6200007b565b816040528381526020925086838588010111156200010857600080fd5b600091505b838210156200012c57858201830151818301840152908201906200010d565b600093810190920192909252949350505050565b600080604083850312156200015457600080fd5b82516001600160401b03808211156200016c57600080fd5b6200017a8683870162000091565b935060208501519150808211156200019157600080fd5b50620001a08582860162000091565b9150509250929050565b600181811c90821680620001bf57607f821691505b602082108103620001e057634e487b7160e01b600052602260045260246000fd5b50919050565b601f8211156200023457600081815260208120601f850160051c810160208610156200020f5750805b601f850160051c820191505b8181101562000230578281556001016200021b565b5050505b505050565b81516001600160401b038111156200025557620002556200007b565b6200026d81620002668454620001aa565b84620001e6565b602080601f831160018114620002a557600084156200028c5750858301515b600019600386901b1c1916600185901b17855562000230565b600085815260208120601f198616915b82811015620002d657888601518255948401946001909101908401620002b5565b5085821015620002f55787850151600019600388901b60f8161c191681555b5050505050600190811b01905550565b61416e80620003156000396000f3fe6080604052600436106102765760003560e01c80638da5cb5b1161014f578063d4d9bdcd116100c1578063e75235b81161007a578063e75235b81461083b578063e86637db14610850578063f08a032314610870578063f698da2514610890578063f8dc5dd9146108a5578063ffa1ad74146108c5576102b2565b8063d4d9bdcd1461077b578063d8d11f781461079b578063dd62ed3e146107bb578063e009cfde146107db578063e19a9dd9146107fb578063e318b52b1461081b576102b2565b8063a9059cbb11610113578063a9059cbb146106c4578063affed0e0146106e4578063b4faba09146106fa578063b63e800d1461071a578063b6919ef21461073a578063cc2f84521461074d576102b2565b80638da5cb5b14610615578063934f3a111461064d57806395d89b411461066d578063a0e67e2b14610682578063a457c2d7146106a4576102b2565b806339509351116101e85780635ae6bd37116101ac5780635ae6bd3714610527578063610b592514610554578063694e80c3146105745780636a7612021461059457806370a08231146105a75780637d832974146105dd576102b2565b80633950935114610483578063445df0ac146104a3578063468721a7146104b95780635229073f146104d95780635624b25b14610507576102b2565b806318160ddd1161023a57806318160ddd146103d557806323b872dd146103f45780632d9ad53d146104145780632f54bf6e14610434578063313ce567146104545780633408e47014610470576102b2565b806302d384451461031857806306fdde031461033a578063095ea7b3146103655780630d582f131461039557806312fb68e0146103b5576102b2565b366102b25760405134815233907f3d0ce9bfc3ed7d6862dbb28b2dea94561fe714a1b4d019aa8af39730d1ad7c3d9060200160405180910390a2005b3480156102be57600080fd5b507f6c9a6c4a39284e37ed1cf53d337577d14212a4870fb976a4366c693b939918d58054806102e957005b36600080373360601b365260008060143601600080855af190503d6000803e80610312573d6000fd5b503d6000f35b34801561032457600080fd5b50610338610333366004613538565b6108f6565b005b34801561034657600080fd5b5061034f610ab0565b60405161035c91906135fa565b60405180910390f35b34801561037157600080fd5b5061038561038036600461360d565b610b42565b604051901515815260200161035c565b3480156103a157600080fd5b506103386103b036600461360d565b610b5c565b3480156103c157600080fd5b506103386103d03660046136db565b610cbc565b3480156103e157600080fd5b50600b545b60405190815260200161035c565b34801561040057600080fd5b5061038561040f36600461374f565b611164565b34801561042057600080fd5b5061038561042f366004613790565b611188565b34801561044057600080fd5b5061038561044f366004613790565b6111c0565b34801561046057600080fd5b506040516012815260200161035c565b34801561047c57600080fd5b50466103e6565b34801561048f57600080fd5b5061038561049e36600461360d565b6111f8565b3480156104af57600080fd5b506103e6600f5481565b3480156104c557600080fd5b506103856104d43660046137bc565b61121a565b3480156104e557600080fd5b506104f96104f43660046137bc565b6112f3565b60405161035c929190613825565b34801561051357600080fd5b5061034f610522366004613840565b611329565b34801561053357600080fd5b506103e6610542366004613862565b60076020526000908152604090205481565b34801561056057600080fd5b5061033861056f366004613790565b6113ae565b34801561058057600080fd5b5061033861058f366004613862565b6114f0565b6103856105a23660046138bc565b611588565b3480156105b357600080fd5b506103e66105c2366004613790565b6001600160a01b031660009081526009602052604090205490565b3480156105e957600080fd5b506103e66105f836600461360d565b600860209081526000928352604080842090915290825290205481565b34801561062157600080fd5b50600e54610635906001600160a01b031681565b6040516001600160a01b03909116815260200161035c565b34801561065957600080fd5b50610338610668366004613994565b6118d1565b34801561067957600080fd5b5061034f61191b565b34801561068e57600080fd5b5061069761192a565b60405161035c9190613a44565b3480156106b057600080fd5b506103856106bf36600461360d565b611a1a565b3480156106d057600080fd5b506103856106df36600461360d565b611a95565b3480156106f057600080fd5b506103e660055481565b34801561070657600080fd5b50610338610715366004613a57565b611aa3565b34801561072657600080fd5b50610338610735366004613aa6565b611ac6565b610338610748366004613b76565b611be7565b34801561075957600080fd5b5061076d61076836600461360d565b611cb3565b60405161035c929190613bd1565b34801561078757600080fd5b50610338610796366004613862565b611e6e565b3480156107a757600080fd5b506103e66107b6366004613bfb565b611f03565b3480156107c757600080fd5b506103e66107d6366004613cbb565b611f30565b3480156107e757600080fd5b506103386107f6366004613cbb565b611f5b565b34801561080757600080fd5b50610338610816366004613790565b61208a565b34801561082757600080fd5b50610338610836366004613cf4565b6121a1565b34801561084757600080fd5b506004546103e6565b34801561085c57600080fd5b5061034f61086b366004613bfb565b612390565b34801561087c57600080fd5b5061033861088b366004613790565b612469565b34801561089c57600080fd5b506103e66124d2565b3480156108b157600080fd5b506103386108c036600461374f565b612529565b3480156108d157600080fd5b5061034f604051806040016040528060058152602001640312e342e360dc1b81525081565b6108fe61269c565b60005b81811015610a5b57600083838381811061091d5761091d613d3f565b90506020020160208101906109329190613790565b6001600160a01b031614610a2357610a1e83838381811061095557610955613d3f565b905060200201602081019061096a9190613790565b86610974600b5490565b610a0f8888888881811061098a5761098a613d3f565b905060200201602081019061099f9190613790565b6040516370a0823160e01b81523060048201526001600160a01b0391909116906370a0823190602401602060405180830381865afa1580156109e5573d6000803e3d6000fd5b505050506040513d601f19601f82011682018060405250810190610a099190613d55565b906126d5565b610a199190613d84565b612711565b610a49565b610a4985610a30600b5490565b610a3a47886126d5565b610a449190613d84565b61283b565b80610a5381613da6565b915050610901565b50846001600160a01b03167f22d324652c93739755cf4581508b60875ebdd78c20c0cff5cf8e23452b29963184604051610a9791815260200190565b60405180910390a2610aa98584612915565b5050505050565b6060600c8054610abf90613dbf565b80601f0160208091040260200160405190810160405280929190818152602001828054610aeb90613dbf565b8015610b385780601f10610b0d57610100808354040283529160200191610b38565b820191906000526020600020905b815481529060010190602001808311610b1b57829003601f168201915b5050505050905090565b600033610b50818585612a49565b60019150505b92915050565b610b6461269c565b6001600160a01b03821615801590610b8657506001600160a01b038216600114155b8015610b9b57506001600160a01b0382163014155b610bc05760405162461bcd60e51b8152600401610bb790613df9565b60405180910390fd5b6001600160a01b038281166000908152600260205260409020541615610bf85760405162461bcd60e51b8152600401610bb790613e18565b60026020527fe90b7bceb6e7df5418fb78d8ee546e97c83a08bbccc01a0644d599ccd2a7c2e080546001600160a01b038481166000818152604081208054939094166001600160a01b031993841617909355600183528354909116179091556003805491610c6583613da6565b90915550506040516001600160a01b03831681527f9465fa0c962cc76958e6373a993326400c1c94f8be2fe3a952adfa7f60b2ea269060200160405180910390a18060045414610cb857610cb8816114f0565b5050565b610cc78160416126d5565b82511015610cff5760405162461bcd60e51b8152602060048201526005602482015264047533032360dc1b6044820152606401610bb7565b6000808060008060005b86811015611158576041818102890160208101516040820151919092015160ff16955090935091506000849003610f1757885160208a01208a14610d775760405162461bcd60e51b8152602060048201526005602482015264475330323760d81b6044820152606401610bb7565b9193508391610d878760416126d5565b821015610dbe5760405162461bcd60e51b8152602060048201526005602482015264475330323160d81b6044820152606401610bb7565b8751610dcb836020612b6d565b1115610e015760405162461bcd60e51b815260206004820152600560248201526423a998191960d91b6044820152606401610bb7565b602082890181015189519091610e24908390610e1e908790612b6d565b90612b6d565b1115610e5a5760405162461bcd60e51b8152602060048201526005602482015264475330323360d81b6044820152606401610bb7565b6040516320c13b0b60e01b8082528a8501602001916001600160a01b038916906320c13b0b90610e90908f908690600401613e37565b602060405180830381865afa158015610ead573d6000803e3d6000fd5b505050506040513d601f19601f82011682018060405250810190610ed19190613e5c565b6001600160e01b03191614610f105760405162461bcd60e51b815260206004820152600560248201526411d4cc0c8d60da1b6044820152606401610bb7565b50506110be565b8360ff16600103610f99579193508391336001600160a01b0384161480610f6057506001600160a01b03851660009081526008602090815260408083208d845290915290205415155b610f945760405162461bcd60e51b8152602060048201526005602482015264475330323560d81b6044820152606401610bb7565b6110be565b601e8460ff16111561105e576040517f19457468657265756d205369676e6564204d6573736167653a0a3332000000006020820152603c81018b9052600190605c0160405160208183030381529060405280519060200120600486610ffe9190613e86565b6040805160008152602081018083529390935260ff90911690820152606081018590526080810184905260a0016020604051602081039080840390855afa15801561104d573d6000803e3d6000fd5b5050506020604051035194506110be565b6040805160008152602081018083528c905260ff861691810191909152606081018490526080810183905260019060a0016020604051602081039080840390855afa1580156110b1573d6000803e3d6000fd5b5050506020604051035194505b856001600160a01b0316856001600160a01b03161180156110f857506001600160a01b038581166000908152600260205260409020541615155b801561110e57506001600160a01b038516600114155b6111425760405162461bcd60e51b815260206004820152600560248201526423a998191b60d91b6044820152606401610bb7565b849550808061115090613da6565b915050610d09565b50505050505050505050565b600033611172858285612b89565b61117d858585612bfd565b506001949350505050565b600060016001600160a01b03831614801590610b565750506001600160a01b0390811660009081526001602052604090205416151590565b60006001600160a01b038216600114801590610b565750506001600160a01b0390811660009081526002602052604090205416151590565b600033610b5081858561120b8383611f30565b6112159190613e9f565b612a49565b6000336001148015906112445750336000908152600160205260409020546001600160a01b031615155b6112785760405162461bcd60e51b815260206004820152600560248201526411d4cc4c0d60da1b6044820152606401610bb7565b61128785858585600019612da8565b905080156112bf5760405133907f6895c13664aa4f67288b25d7a21d7aaa34916e355fb9b6fae0a139a9085becb890600090a26112eb565b60405133907facd2c8702804128fdb0db2bb49f6d127dd0181c13fd45dbfe16de0930e2bd37590600090a25b949350505050565b600060606113038686868661121a565b915060405160203d0181016040523d81523d6000602083013e8091505094509492505050565b60606000611338836020613eb2565b6001600160401b0381111561134f5761134f613639565b6040519080825280601f01601f191660200182016040528015611379576020820181803683370190505b50905060005b838110156113a657848101546020808302840101528061139e81613da6565b91505061137f565b509392505050565b6113b661269c565b6001600160a01b038116158015906113d857506001600160a01b038116600114155b61140c5760405162461bcd60e51b8152602060048201526005602482015264475331303160d81b6044820152606401610bb7565b6001600160a01b03818116600090815260016020526040902054161561145c5760405162461bcd60e51b815260206004820152600560248201526423a998981960d91b6044820152606401610bb7565b600160208181527fcc69885fda6bcc1a4ace058b4a62bf5e179ea78fd58a1ccd71c22cc9b688792f80546001600160a01b03858116600081815260408082208054949095166001600160a01b031994851617909455959095528254168417909155519182527fecdf3a3effea5783a3c4c2140e677577666428d44ed9d474a0b3a4c9943f844091015b60405180910390a150565b6114f861269c565b60035481111561151a5760405162461bcd60e51b8152600401610bb790613ec9565b60018110156115535760405162461bcd60e51b815260206004820152600560248201526423a999181960d91b6044820152606401610bb7565b60048190556040518181527f610f7ff2b304ae8903c3de74c60c6ab1f7d6226b3f52c5161905bb5ad4039c93906020016114e5565b60008060006115a28e8e8e8e8e8e8e8e8e8e600554612390565b6005805491925060006115b483613da6565b90915550508051602082012091506115cd8282866118d1565b5060006115f87f4a204f620c8c5ccdca3fd54d003badd85ba500436a431f0cbda4f558c93c34c85490565b90506001600160a01b0381161561167e57806001600160a01b03166375f0bb528f8f8f8f8f8f8f8f8f8f8f336040518d63ffffffff1660e01b815260040161164b9c9b9a99989796959493929190613f20565b600060405180830381600087803b15801561166557600080fd5b505af1158015611679573d6000803e3d6000fd5b505050505b6116aa61168d8a6109c4613e9f565b603f61169a8c6040613eb2565b6116a49190613d84565b90612def565b6116b6906101f4613e9f565b5a10156116ed5760405162461bcd60e51b8152602060048201526005602482015264047533031360dc1b6044820152606401610bb7565b60005a905061175e8f8f8f8f8080601f016020809104026020016040519081016040528093929190818152602001838380828437600081840152601f19601f820116905080830192505050505050508e8c60001461174b578e612da8565b6109c45a6117599190613fe5565b612da8565b935061176b5a8290612e06565b9050838061177857508915155b8061178257508715155b6117b65760405162461bcd60e51b8152602060048201526005602482015264475330313360d81b6044820152606401610bb7565b600088156117ce576117cb828b8b8b8b612e21565b90505b84156118125760408051858152602081018390527f442e715f626346e8c54381002da614f62bee8d27386535b2521ec8540898556e910160405180910390a161184c565b60408051858152602081018390527f23428b18acfb3ea64b08dc0c1d296ea9c09702c09083ca5272e64d115b687d23910160405180910390a15b50506001600160a01b038116156118c057604051631264e26d60e31b81526004810183905283151560248201526001600160a01b03821690639327136890604401600060405180830381600087803b1580156118a757600080fd5b505af11580156118bb573d6000803e3d6000fd5b505050505b50509b9a5050505050505050505050565b600454806119095760405162461bcd60e51b8152602060048201526005602482015264475330303160d81b6044820152606401610bb7565b61191584848484610cbc565b50505050565b6060600d8054610abf90613dbf565b606060006003546001600160401b0381111561194857611948613639565b604051908082528060200260200182016040528015611971578160200160208202803683370190505b506001600090815260026020527fe90b7bceb6e7df5418fb78d8ee546e97c83a08bbccc01a0644d599ccd2a7c2e054919250906001600160a01b03165b6001600160a01b038116600114611a1257808383815181106119d2576119d2613d3f565b6001600160a01b03928316602091820292909201810191909152918116600090815260029092526040909120541681611a0a81613da6565b9250506119ae565b509092915050565b60003381611a288286611f30565b905083811015611a885760405162461bcd60e51b815260206004820152602560248201527f45524332303a2064656372656173656420616c6c6f77616e63652062656c6f77604482015264207a65726f60d81b6064820152608401610bb7565b61117d8286868403612a49565b600033610b50818585612bfd565b600080825160208401855af480600052503d6020523d600060403e60403d016000fd5b611b048a8a808060200260200160405190810160405280939291908181526020018383602002808284376000920191909152508c9250612f21915050565b6001600160a01b03841615611b3b57611b3b847f6c9a6c4a39284e37ed1cf53d337577d14212a4870fb976a4366c693b939918d555565b611b7b8787878080601f01602080910402602001604051908101604052809392919081815260200183838082843760009201919091525061310792505050565b8115611b9257611b9082600060018685612e21565b505b336001600160a01b03167f141df868a6331af528e38c83b7aa03edc19be66e37ae67f9285bf4f8e3c6a1a88b8b8b8b89604051611bd3959493929190613ff8565b60405180910390a250505050505050505050565b611bef61269c565b6001600160a01b03821615611c5d57611c0a82863084613237565b604080518481526001600160a01b038481166020830152918101839052908516907f690dad8812fff0ab388cbf591e1bd224fd67dd07e6be8a4929190447cbe104699060600160405180910390a2611ca9565b6040805184815260006020820152348183015290516001600160a01b038616917f690dad8812fff0ab388cbf591e1bd224fd67dd07e6be8a4929190447cbe10469919081900360600190a25b610aa98484613375565b606060006001600160a01b03841660011480611cd35750611cd384611188565b611d075760405162461bcd60e51b8152602060048201526005602482015264475331303560d81b6044820152606401610bb7565b60008311611d3f5760405162461bcd60e51b815260206004820152600560248201526423a998981b60d91b6044820152606401610bb7565b826001600160401b03811115611d5757611d57613639565b604051908082528060200260200182016040528015611d80578160200160208202803683370190505b506001600160a01b03808616600090815260016020526040812054929450911691505b6001600160a01b03821615801590611dc557506001600160a01b038216600114155b8015611dd057508381105b15611e2b5781838281518110611de857611de8613d3f565b6001600160a01b03928316602091820292909201810191909152928116600090815260019093526040909220549091169080611e2381613da6565b915050611da3565b6001600160a01b038216600114611e635782611e48600183613fe5565b81518110611e5857611e58613d3f565b602002602001015191505b808352509250929050565b336000908152600260205260409020546001600160a01b0316611ebb5760405162461bcd60e51b8152602060048201526005602482015264047533033360dc1b6044820152606401610bb7565b336000818152600860209081526040808320858452909152808220600190555183917ff2a0eb156472d1440255b0d7c1e19cc07115d1051fe605b0dce69acfec884d9c91a350565b6000611f188c8c8c8c8c8c8c8c8c8c8c612390565b8051906020012090509b9a5050505050505050505050565b6001600160a01b039182166000908152600a6020908152604080832093909416825291909152205490565b611f6361269c565b6001600160a01b03811615801590611f8557506001600160a01b038116600114155b611fb95760405162461bcd60e51b8152602060048201526005602482015264475331303160d81b6044820152606401610bb7565b6001600160a01b0382811660009081526001602052604090205481169082161461200d5760405162461bcd60e51b8152602060048201526005602482015264475331303360d81b6044820152606401610bb7565b6001600160a01b038181166000818152600160209081526040808320805488871685528285208054919097166001600160a01b03199182161790965592849052825490941690915591519081527faab4fa2b463f581b2b32cb3b7e3b704b9ce37cc209b5fb4d77e593ace405427691015b60405180910390a15050565b61209261269c565b6001600160a01b03811615612144576040516301ffc9a760e01b815263736bd41d60e11b60048201526001600160a01b038216906301ffc9a790602401602060405180830381865afa1580156120ec573d6000803e3d6000fd5b505050506040513d601f19601f820116820180604052508101906121109190614064565b6121445760405162461bcd60e51b8152602060048201526005602482015264047533330360dc1b6044820152606401610bb7565b7f4a204f620c8c5ccdca3fd54d003badd85ba500436a431f0cbda4f558c93c34c88181556040516001600160a01b03831681527f1151116914515bc0891ff9047a6cb32cf902546f83066499bcf8ba33d2353fa29060200161207e565b6121a961269c565b6001600160a01b038116158015906121cb57506001600160a01b038116600114155b80156121e057506001600160a01b0381163014155b6121fc5760405162461bcd60e51b8152600401610bb790613df9565b6001600160a01b0381811660009081526002602052604090205416156122345760405162461bcd60e51b8152600401610bb790613e18565b6001600160a01b0382161580159061225657506001600160a01b038216600114155b6122725760405162461bcd60e51b8152600401610bb790613df9565b6001600160a01b038381166000908152600260205260409020548116908316146122c65760405162461bcd60e51b8152602060048201526005602482015264475332303560d81b6044820152606401610bb7565b6001600160a01b038281166000818152600260209081526040808320805487871680865283862080549289166001600160a01b0319938416179055968a1685528285208054821690971790965592849052825490941690915591519081527ff8d49fc529812e9a7c5c50e69c20f0dccc0db8fa95c98bc58cc9a4f1c1299eaf910160405180910390a16040516001600160a01b03821681527f9465fa0c962cc76958e6373a993326400c1c94f8be2fe3a952adfa7f60b2ea269060200160405180910390a1505050565b606060007fbb8310d486368db6bd6f849402fdd73ad53d316b5a4b2644ad6efe0f941286d860001b8d8d8d8d6040516123ca929190614086565b6040519081900381206123f0949392918e908e908e908e908e908e908e90602001614096565b60408051601f1981840301815291905280516020909101209050601960f81b600160f81b61241c6124d2565b6040516001600160f81b031993841660208201529290911660218301526022820152604281018290526062016040516020818303038152906040529150509b9a5050505050505050505050565b61247161269c565b612499817f6c9a6c4a39284e37ed1cf53d337577d14212a4870fb976a4366c693b939918d555565b6040516001600160a01b03821681527f5ac6c46c93c8d0e53714ba3b53db3e7c046da994313d7ed0d192028bc7c228b0906020016114e5565b60007f47e79534a245952e8b16893a336b85a3d9ea9fa8c573f3d803afb92a794692184660408051602081019390935282015230606082015260800160405160208183030381529060405280519060200120905090565b61253161269c565b8060016003546125419190613fe5565b101561255f5760405162461bcd60e51b8152600401610bb790613ec9565b6001600160a01b0382161580159061258157506001600160a01b038216600114155b61259d5760405162461bcd60e51b8152600401610bb790613df9565b6001600160a01b038381166000908152600260205260409020548116908316146125f15760405162461bcd60e51b8152602060048201526005602482015264475332303560d81b6044820152606401610bb7565b6001600160a01b03828116600081815260026020526040808220805488861684529183208054929095166001600160a01b0319928316179094559181528254909116909155600380549161264483614105565b90915550506040516001600160a01b03831681527ff8d49fc529812e9a7c5c50e69c20f0dccc0db8fa95c98bc58cc9a4f1c1299eaf9060200160405180910390a1806004541461269757612697816114f0565b505050565b3330146126d35760405162461bcd60e51b8152602060048201526005602482015264475330333160d81b6044820152606401610bb7565b565b6000826000036126e757506000610b56565b60006126f38385613eb2565b9050826127008583613d84565b1461270a57600080fd5b9392505050565b604080516001600160a01b038481166024830152604480830185905283518084039091018152606490920183526020820180516001600160e01b031663a9059cbb60e01b179052915160009283929087169161276d919061411c565b6000604051808303816000865af19150503d80600081146127aa576040519150601f19603f3d011682016040523d82523d6000602084013e6127af565b606091505b50915091508180156127d95750805115806127d95750808060200190518101906127d99190614064565b610aa95760405162461bcd60e51b815260206004820152602d60248201527f5472616e7366657248656c7065723a3a736166655472616e736665723a20747260448201526c185b9cd9995c8819985a5b1959609a1b6064820152608401610bb7565b604080516000808252602082019092526001600160a01b038416908390604051612865919061411c565b60006040518083038185875af1925050503d80600081146128a2576040519150601f19603f3d011682016040523d82523d6000602084013e6128a7565b606091505b50509050806126975760405162461bcd60e51b815260206004820152603460248201527f5472616e7366657248656c7065723a3a736166655472616e736665724554483a60448201527308115512081d1c985b9cd9995c8819985a5b195960621b6064820152608401610bb7565b6001600160a01b0382166129755760405162461bcd60e51b815260206004820152602160248201527f45524332303a206275726e2066726f6d20746865207a65726f206164647265736044820152607360f81b6064820152608401610bb7565b6001600160a01b038216600090815260096020526040902054818110156129e95760405162461bcd60e51b815260206004820152602260248201527f45524332303a206275726e20616d6f756e7420657863656564732062616c616e604482015261636560f01b6064820152608401610bb7565b6001600160a01b03831660008181526009602090815260408083208686039055600b80548790039055518581529192917fddf252ad1be2c89b69c2b068fc378daa952ba7f163c4a11628f55a4df523b3ef910160405180910390a3505050565b6001600160a01b038316612aab5760405162461bcd60e51b8152602060048201526024808201527f45524332303a20617070726f76652066726f6d20746865207a65726f206164646044820152637265737360e01b6064820152608401610bb7565b6001600160a01b038216612b0c5760405162461bcd60e51b815260206004820152602260248201527f45524332303a20617070726f766520746f20746865207a65726f206164647265604482015261737360f01b6064820152608401610bb7565b6001600160a01b038381166000818152600a602090815260408083209487168084529482529182902085905590518481527f8c5be1e5ebec7d5bd14f71427d1e84f3dd0314c0f7b2291e5b200ac8c7c3b925910160405180910390a3505050565b600080612b7a8385613e9f565b90508381101561270a57600080fd5b6000612b958484611f30565b905060001981146119155781811015612bf05760405162461bcd60e51b815260206004820152601d60248201527f45524332303a20696e73756666696369656e7420616c6c6f77616e63650000006044820152606401610bb7565b6119158484848403612a49565b6001600160a01b038316612c615760405162461bcd60e51b815260206004820152602560248201527f45524332303a207472616e736665722066726f6d20746865207a65726f206164604482015264647265737360d81b6064820152608401610bb7565b6001600160a01b038216612cc35760405162461bcd60e51b815260206004820152602360248201527f45524332303a207472616e7366657220746f20746865207a65726f206164647260448201526265737360e81b6064820152608401610bb7565b6001600160a01b03831660009081526009602052604090205481811015612d3b5760405162461bcd60e51b815260206004820152602660248201527f45524332303a207472616e7366657220616d6f756e7420657863656564732062604482015265616c616e636560d01b6064820152608401610bb7565b6001600160a01b0380851660008181526009602052604080822086860390559286168082529083902080548601905591517fddf252ad1be2c89b69c2b068fc378daa952ba7f163c4a11628f55a4df523b3ef90612d9b9086815260200190565b60405180910390a3611915565b60006001836001811115612dbe57612dbe613ee8565b03612dd6576000808551602087018986f49050612de6565b600080855160208701888a87f190505b95945050505050565b600081831015612dff578161270a565b5090919050565b600082821115612e1557600080fd5b60006112eb8385613fe5565b6000806001600160a01b03831615612e395782612e3b565b325b90506001600160a01b038416612ec857612e673a8610612e5b573a612e5d565b855b610a098989612b6d565b6040519092506001600160a01b0382169083156108fc029084906000818181858888f19350505050612ec35760405162461bcd60e51b8152602060048201526005602482015264475330313160d81b6044820152606401610bb7565b612f17565b612ed685610a098989612b6d565b9150612ee3848284613436565b612f175760405162461bcd60e51b815260206004820152600560248201526423a998189960d91b6044820152606401610bb7565b5095945050505050565b60045415612f595760405162461bcd60e51b8152602060048201526005602482015264047533230360dc1b6044820152606401610bb7565b8151811115612f7a5760405162461bcd60e51b8152600401610bb790613ec9565b6001811015612fb35760405162461bcd60e51b815260206004820152600560248201526423a999181960d91b6044820152606401610bb7565b600160005b83518110156130d4576000848281518110612fd557612fd5613d3f565b6020026020010151905060006001600160a01b0316816001600160a01b03161415801561300c57506001600160a01b038116600114155b801561302157506001600160a01b0381163014155b801561303f5750806001600160a01b0316836001600160a01b031614155b61305b5760405162461bcd60e51b8152600401610bb790613df9565b6001600160a01b0381811660009081526002602052604090205416156130935760405162461bcd60e51b8152600401610bb790613e18565b6001600160a01b03928316600090815260026020526040902080546001600160a01b03191693821693909317909255806130cc81613da6565b915050612fb8565b506001600160a01b0316600090815260026020526040902080546001600160a01b03191660011790559051600355600455565b600160008190526020527fcc69885fda6bcc1a4ace058b4a62bf5e179ea78fd58a1ccd71c22cc9b688792f546001600160a01b0316156131715760405162461bcd60e51b8152602060048201526005602482015264047533130360dc1b6044820152606401610bb7565b6001600081905260208190527fcc69885fda6bcc1a4ace058b4a62bf5e179ea78fd58a1ccd71c22cc9b688792f80546001600160a01b03191690911790556001600160a01b03821615610cb857813b6131f45760405162461bcd60e51b815260206004820152600560248201526423a998181960d91b6044820152606401610bb7565b6132038260008360015a612da8565b610cb85760405162461bcd60e51b8152602060048201526005602482015264047533030360dc1b6044820152606401610bb7565b604080516001600160a01b0385811660248301528481166044830152606480830185905283518084039091018152608490920183526020820180516001600160e01b03166323b872dd60e01b179052915160009283929088169161329b919061411c565b6000604051808303816000865af19150503d80600081146132d8576040519150601f19603f3d011682016040523d82523d6000602084013e6132dd565b606091505b50915091508180156133075750805115806133075750808060200190518101906133079190614064565b61336d5760405162461bcd60e51b815260206004820152603160248201527f5472616e7366657248656c7065723a3a7472616e7366657246726f6d3a207472604482015270185b9cd9995c919c9bdb4819985a5b1959607a1b6064820152608401610bb7565b505050505050565b6001600160a01b0382166133cb5760405162461bcd60e51b815260206004820152601f60248201527f45524332303a206d696e7420746f20746865207a65726f2061646472657373006044820152606401610bb7565b80600b60008282546133dd9190613e9f565b90915550506001600160a01b0382166000818152600960209081526040808320805486019055518481527fddf252ad1be2c89b69c2b068fc378daa952ba7f163c4a11628f55a4df523b3ef910160405180910390a35050565b604080516001600160a01b03841660248201526044808201849052825180830390910181526064909101909152602080820180516001600160e01b031663a9059cbb60e01b1781528251600093929184919082896127105a03f13d80156134a857602081146134b057600093506134bb565b8193506134bb565b600051158215171593505b5050509392505050565b6001600160a01b03811681146134da57600080fd5b50565b80356134e8816134c5565b919050565b60008083601f8401126134ff57600080fd5b5081356001600160401b0381111561351657600080fd5b6020830191508360208260051b850101111561353157600080fd5b9250929050565b60008060008060006080868803121561355057600080fd5b853561355b816134c5565b9450602086013561356b816134c5565b93506040860135925060608601356001600160401b0381111561358d57600080fd5b613599888289016134ed565b969995985093965092949392505050565b60005b838110156135c55781810151838201526020016135ad565b50506000910152565b600081518084526135e68160208601602086016135aa565b601f01601f19169290920160200192915050565b60208152600061270a60208301846135ce565b6000806040838503121561362057600080fd5b823561362b816134c5565b946020939093013593505050565b634e487b7160e01b600052604160045260246000fd5b600082601f83011261366057600080fd5b81356001600160401b038082111561367a5761367a613639565b604051601f8301601f19908116603f011681019082821181831017156136a2576136a2613639565b816040528381528660208588010111156136bb57600080fd5b836020870160208301376000602085830101528094505050505092915050565b600080600080608085870312156136f157600080fd5b8435935060208501356001600160401b038082111561370f57600080fd5b61371b8883890161364f565b9450604087013591508082111561373157600080fd5b5061373e8782880161364f565b949793965093946060013593505050565b60008060006060848603121561376457600080fd5b833561376f816134c5565b9250602084013561377f816134c5565b929592945050506040919091013590565b6000602082840312156137a257600080fd5b813561270a816134c5565b8035600281106134e857600080fd5b600080600080608085870312156137d257600080fd5b84356137dd816134c5565b93506020850135925060408501356001600160401b038111156137ff57600080fd5b61380b8782880161364f565b92505061381a606086016137ad565b905092959194509250565b82151581526040602082015260006112eb60408301846135ce565b6000806040838503121561385357600080fd5b50508035926020909101359150565b60006020828403121561387457600080fd5b5035919050565b60008083601f84011261388d57600080fd5b5081356001600160401b038111156138a457600080fd5b60208301915083602082850101111561353157600080fd5b60008060008060008060008060008060006101408c8e0312156138de57600080fd5b6138e78c6134dd565b9a5060208c013599506001600160401b038060408e0135111561390957600080fd5b6139198e60408f01358f0161387b565b909a50985061392a60608e016137ad565b975060808d0135965060a08d0135955060c08d0135945061394d60e08e016134dd565b935061395c6101008e016134dd565b9250806101208e0135111561397057600080fd5b506139828d6101208e01358e0161364f565b90509295989b509295989b9093969950565b6000806000606084860312156139a957600080fd5b8335925060208401356001600160401b03808211156139c757600080fd5b6139d38783880161364f565b935060408601359150808211156139e957600080fd5b506139f68682870161364f565b9150509250925092565b600081518084526020808501945080840160005b83811015613a395781516001600160a01b031687529582019590820190600101613a14565b509495945050505050565b60208152600061270a6020830184613a00565b60008060408385031215613a6a57600080fd5b8235613a75816134c5565b915060208301356001600160401b03811115613a9057600080fd5b613a9c8582860161364f565b9150509250929050565b6000806000806000806000806000806101008b8d031215613ac657600080fd5b8a356001600160401b0380821115613add57600080fd5b613ae98e838f016134ed565b909c509a5060208d0135995060408d01359150613b05826134c5565b90975060608c01359080821115613b1b57600080fd5b50613b288d828e0161387b565b90975095505060808b0135613b3c816134c5565b935060a08b0135613b4c816134c5565b925060c08b0135915060e08b0135613b63816134c5565b809150509295989b9194979a5092959850565b600080600080600060a08688031215613b8e57600080fd5b8535613b99816134c5565b94506020860135613ba9816134c5565b9350604086013592506060860135613bc0816134c5565b949793965091946080013592915050565b604081526000613be46040830185613a00565b905060018060a01b03831660208301529392505050565b60008060008060008060008060008060006101408c8e031215613c1d57600080fd5b8b35613c28816134c5565b9a5060208c0135995060408c01356001600160401b03811115613c4a57600080fd5b613c568e828f0161387b565b909a509850613c69905060608d016137ad565b965060808c0135955060a08c0135945060c08c0135935060e08c0135613c8e816134c5565b92506101008c0135613c9f816134c5565b809250506101208c013590509295989b509295989b9093969950565b60008060408385031215613cce57600080fd5b8235613cd9816134c5565b91506020830135613ce9816134c5565b809150509250929050565b600080600060608486031215613d0957600080fd5b8335613d14816134c5565b92506020840135613d24816134c5565b91506040840135613d34816134c5565b809150509250925092565b634e487b7160e01b600052603260045260246000fd5b600060208284031215613d6757600080fd5b5051919050565b634e487b7160e01b600052601160045260246000fd5b600082613da157634e487b7160e01b600052601260045260246000fd5b500490565b600060018201613db857613db8613d6e565b5060010190565b600181811c90821680613dd357607f821691505b602082108103613df357634e487b7160e01b600052602260045260246000fd5b50919050565b602080825260059082015264475332303360d81b604082015260600190565b60208082526005908201526411d4cc8c0d60da1b604082015260600190565b604081526000613e4a60408301856135ce565b8281036020840152612de681856135ce565b600060208284031215613e6e57600080fd5b81516001600160e01b03198116811461270a57600080fd5b60ff8281168282160390811115610b5657610b56613d6e565b80820180821115610b5657610b56613d6e565b8082028115828204841417610b5657610b56613d6e565b602080825260059082015264475332303160d81b604082015260600190565b634e487b7160e01b600052602160045260246000fd5b60028110613f1c57634e487b7160e01b600052602160045260246000fd5b9052565b6001600160a01b038d168152602081018c90526101606040820181905281018a905260006101808b8d828501376000838d01820152601f8c01601f19168301613f6c606085018d613efe565b8a60808501528960a08501528860c0850152613f9360e08501896001600160a01b03169052565b6001600160a01b0387166101008501528184820301610120850152613fba828201876135ce565b92505050613fd46101408301846001600160a01b03169052565b9d9c50505050505050505050505050565b81810381811115610b5657610b56613d6e565b6080808252810185905260008660a08301825b8881101561403b57823561401e816134c5565b6001600160a01b031682526020928301929091019060010161400b565b50602084019690965250506001600160a01b039283166040820152911660609091015292915050565b60006020828403121561407657600080fd5b8151801515811461270a57600080fd5b8183823760009101908152919050565b8b81526001600160a01b038b81166020830152604082018b9052606082018a90526101608201906140ca608084018b613efe565b60a083019890985260c082019690965260e0810194909452918516610100840152909316610120820152610140019190915295945050505050565b60008161411457614114613d6e565b506000190190565b6000825161412e8184602087016135aa565b919091019291505056fea2646970667358221220d6b6ad89001be33dffdea75b1ef853c46761f29e566859e93cb43c8c462280d964736f6c63430008120033",
			"opcodes": "PUSH1 0x80 PUSH1 0x40 MSTORE PUSH1 0xE DUP1 SLOAD PUSH1 0x1 PUSH1 0x1 PUSH1 0xA0 SHL SUB NOT AND CALLER OR SWAP1 SSTORE CALLVALUE DUP1 ISZERO PUSH3 0x23 JUMPI PUSH1 0x0 DUP1 REVERT JUMPDEST POP PUSH1 0x40 MLOAD PUSH3 0x4483 CODESIZE SUB DUP1 PUSH3 0x4483 DUP4 CODECOPY DUP2 ADD PUSH1 0x40 DUP2 SWAP1 MSTORE PUSH3 0x46 SWAP2 PUSH3 0x140 JUMP JUMPDEST PUSH1 0x1 PUSH1 0x4 SSTORE DUP2 DUP2 PUSH1 0xC PUSH3 0x5B DUP4 DUP3 PUSH3 0x239 JUMP JUMPDEST POP PUSH1 0xD PUSH3 0x6A DUP3 DUP3 PUSH3 0x239 JUMP JUMPDEST POP POP PUSH1 0x1 PUSH1 0x4 SSTORE POP PUSH3 0x305 SWAP2 POP POP JUMP JUMPDEST PUSH4 0x4E487B71 PUSH1 0xE0 SHL PUSH1 0x0 MSTORE PUSH1 0x41 PUSH1 0x4 MSTORE PUSH1 0x24 PUSH1 0x0 REVERT JUMPDEST PUSH1 0x0 DUP3 PUSH1 0x1F DUP4 ADD SLT PUSH3 0xA3 JUMPI PUSH1 0x0 DUP1 REVERT JUMPDEST DUP2 MLOAD PUSH1 0x1 PUSH1 0x1 PUSH1 0x40 SHL SUB DUP1 DUP3 GT ISZERO PUSH3 0xC0 JUMPI PUSH3 0xC0 PUSH3 0x7B JUMP JUMPDEST PUSH1 0x40 MLOAD PUSH1 0x1F DUP4 ADD PUSH1 0x1F NOT SWAP1 DUP2 AND PUSH1 0x3F ADD AND DUP2 ADD SWAP1 DUP3 DUP3 GT DUP2 DUP4 LT OR ISZERO PUSH3 0xEB JUMPI PUSH3 0xEB PUSH3 0x7B JUMP JUMPDEST DUP2 PUSH1 0x40 MSTORE DUP4 DUP2 MSTORE PUSH1 0x20 SWAP3 POP DUP7 DUP4 DUP6 DUP9 ADD ADD GT ISZERO PUSH3 0x108 JUMPI PUSH1 0x0 DUP1 REVERT JUMPDEST PUSH1 0x0 SWAP2 POP JUMPDEST DUP4 DUP3 LT ISZERO PUSH3 0x12C JUMPI DUP6 DUP3 ADD DUP4 ADD MLOAD DUP2 DUP4 ADD DUP5 ADD MSTORE SWAP1 DUP3 ADD SWAP1 PUSH3 0x10D JUMP JUMPDEST PUSH1 0x0 SWAP4 DUP2 ADD SWAP1 SWAP3 ADD SWAP3 SWAP1 SWAP3 MSTORE SWAP5 SWAP4 POP POP POP POP JUMP JUMPDEST PUSH1 0x0 DUP1 PUSH1 0x40 DUP4 DUP6 SUB SLT ISZERO PUSH3 0x154 JUMPI PUSH1 0x0 DUP1 REVERT JUMPDEST DUP3 MLOAD PUSH1 0x1 PUSH1 0x1 PUSH1 0x40 SHL SUB DUP1 DUP3 GT ISZERO PUSH3 0x16C JUMPI PUSH1 0x0 DUP1 REVERT JUMPDEST PUSH3 0x17A DUP7 DUP4 DUP8 ADD PUSH3 0x91 JUMP JUMPDEST SWAP4 POP PUSH1 0x20 DUP6 ADD MLOAD SWAP2 POP DUP1 DUP3 GT ISZERO PUSH3 0x191 JUMPI PUSH1 0x0 DUP1 REVERT JUMPDEST POP PUSH3 0x1A0 DUP6 DUP3 DUP7 ADD PUSH3 0x91 JUMP JUMPDEST SWAP2 POP POP SWAP3 POP SWAP3 SWAP1 POP JUMP JUMPDEST PUSH1 0x1 DUP2 DUP2 SHR SWAP1 DUP3 AND DUP1 PUSH3 0x1BF JUMPI PUSH1 0x7F DUP3 AND SWAP2 POP JUMPDEST PUSH1 0x20 DUP3 LT DUP2 SUB PUSH3 0x1E0 JUMPI PUSH4 0x4E487B71 PUSH1 0xE0 SHL PUSH1 0x0 MSTORE PUSH1 0x22 PUSH1 0x4 MSTORE PUSH1 0x24 PUSH1 0x0 REVERT JUMPDEST POP SWAP2 SWAP1 POP JUMP JUMPDEST PUSH1 0x1F DUP3 GT ISZERO PUSH3 0x234 JUMPI PUSH1 0x0 DUP2 DUP2 MSTORE PUSH1 0x20 DUP2 KECCAK256 PUSH1 0x1F DUP6 ADD PUSH1 0x5 SHR DUP2 ADD PUSH1 0x20 DUP7 LT ISZERO PUSH3 0x20F JUMPI POP DUP1 JUMPDEST PUSH1 0x1F DUP6 ADD PUSH1 0x5 SHR DUP3 ADD SWAP2 POP JUMPDEST DUP2 DUP2 LT ISZERO PUSH3 0x230 JUMPI DUP3 DUP2 SSTORE PUSH1 0x1 ADD PUSH3 0x21B JUMP JUMPDEST POP POP POP JUMPDEST POP POP POP JUMP JUMPDEST DUP2 MLOAD PUSH1 0x1 PUSH1 0x1 PUSH1 0x40 SHL SUB DUP2 GT ISZERO PUSH3 0x255 JUMPI PUSH3 0x255 PUSH3 0x7B JUMP JUMPDEST PUSH3 0x26D DUP2 PUSH3 0x266 DUP5 SLOAD PUSH3 0x1AA JUMP JUMPDEST DUP5 PUSH3 0x1E6 JUMP JUMPDEST PUSH1 0x20 DUP1 PUSH1 0x1F DUP4 GT PUSH1 0x1 DUP2 EQ PUSH3 0x2A5 JUMPI PUSH1 0x0 DUP5 ISZERO PUSH3 0x28C JUMPI POP DUP6 DUP4 ADD MLOAD JUMPDEST PUSH1 0x0 NOT PUSH1 0x3 DUP7 SWAP1 SHL SHR NOT AND PUSH1 0x1 DUP6 SWAP1 SHL OR DUP6 SSTORE PUSH3 0x230 JUMP JUMPDEST PUSH1 0x0 DUP6 DUP2 MSTORE PUSH1 0x20 DUP2 KECCAK256 PUSH1 0x1F NOT DUP7 AND SWAP2 JUMPDEST DUP3 DUP2 LT ISZERO PUSH3 0x2D6 JUMPI DUP9 DUP7 ADD MLOAD DUP3 SSTORE SWAP5 DUP5 ADD SWAP5 PUSH1 0x1 SWAP1 SWAP2 ADD SWAP1 DUP5 ADD PUSH3 0x2B5 JUMP JUMPDEST POP DUP6 DUP3 LT ISZERO PUSH3 0x2F5 JUMPI DUP8 DUP6 ADD MLOAD PUSH1 0x0 NOT PUSH1 0x3 DUP9 SWAP1 SHL PUSH1 0xF8 AND SHR NOT AND DUP2 SSTORE JUMPDEST POP POP POP POP POP PUSH1 0x1 SWAP1 DUP2 SHL ADD SWAP1 SSTORE POP JUMP JUMPDEST PUSH2 0x416E DUP1 PUSH3 0x315 PUSH1 0x0 CODECOPY PUSH1 0x0 RETURN INVALID PUSH1 0x80 PUSH1 0x40 MSTORE PUSH1 0x4 CALLDATASIZE LT PUSH2 0x276 JUMPI PUSH1 0x0 CALLDATALOAD PUSH1 0xE0 SHR DUP1 PUSH4 0x8DA5CB5B GT PUSH2 0x14F JUMPI DUP1 PUSH4 0xD4D9BDCD GT PUSH2 0xC1 JUMPI DUP1 PUSH4 0xE75235B8 GT PUSH2 0x7A JUMPI DUP1 PUSH4 0xE75235B8 EQ PUSH2 0x83B JUMPI DUP1 PUSH4 0xE86637DB EQ PUSH2 0x850 JUMPI DUP1 PUSH4 0xF08A0323 EQ PUSH2 0x870 JUMPI DUP1 PUSH4 0xF698DA25 EQ PUSH2 0x890 JUMPI DUP1 PUSH4 0xF8DC5DD9 EQ PUSH2 0x8A5 JUMPI DUP1 PUSH4 0xFFA1AD74 EQ PUSH2 0x8C5 JUMPI PUSH2 0x2B2 JUMP JUMPDEST DUP1 PUSH4 0xD4D9BDCD EQ PUSH2 0x77B JUMPI DUP1 PUSH4 0xD8D11F78 EQ PUSH2 0x79B JUMPI DUP1 PUSH4 0xDD62ED3E EQ PUSH2 0x7BB JUMPI DUP1 PUSH4 0xE009CFDE EQ PUSH2 0x7DB JUMPI DUP1 PUSH4 0xE19A9DD9 EQ PUSH2 0x7FB JUMPI DUP1 PUSH4 0xE318B52B EQ PUSH2 0x81B JUMPI PUSH2 0x2B2 JUMP JUMPDEST DUP1 PUSH4 0xA9059CBB GT PUSH2 0x113 JUMPI DUP1 PUSH4 0xA9059CBB EQ PUSH2 0x6C4 JUMPI DUP1 PUSH4 0xAFFED0E0 EQ PUSH2 0x6E4 JUMPI DUP1 PUSH4 0xB4FABA09 EQ PUSH2 0x6FA JUMPI DUP1 PUSH4 0xB63E800D EQ PUSH2 0x71A JUMPI DUP1 PUSH4 0xB6919EF2 EQ PUSH2 0x73A JUMPI DUP1 PUSH4 0xCC2F8452 EQ PUSH2 0x74D JUMPI PUSH2 0x2B2 JUMP JUMPDEST DUP1 PUSH4 0x8DA5CB5B EQ PUSH2 0x615 JUMPI DUP1 PUSH4 0x934F3A11 EQ PUSH2 0x64D JUMPI DUP1 PUSH4 0x95D89B41 EQ PUSH2 0x66D JUMPI DUP1 PUSH4 0xA0E67E2B EQ PUSH2 0x682 JUMPI DUP1 PUSH4 0xA457C2D7 EQ PUSH2 0x6A4 JUMPI PUSH2 0x2B2 JUMP JUMPDEST DUP1 PUSH4 0x39509351 GT PUSH2 0x1E8 JUMPI DUP1 PUSH4 0x5AE6BD37 GT PUSH2 0x1AC JUMPI DUP1 PUSH4 0x5AE6BD37 EQ PUSH2 0x527 JUMPI DUP1 PUSH4 0x610B5925 EQ PUSH2 0x554 JUMPI DUP1 PUSH4 0x694E80C3 EQ PUSH2 0x574 JUMPI DUP1 PUSH4 0x6A761202 EQ PUSH2 0x594 JUMPI DUP1 PUSH4 0x70A08231 EQ PUSH2 0x5A7 JUMPI DUP1 PUSH4 0x7D832974 EQ PUSH2 0x5DD JUMPI PUSH2 0x2B2 JUMP JUMPDEST DUP1 PUSH4 0x39509351 EQ PUSH2 0x483 JUMPI DUP1 PUSH4 0x445DF0AC EQ PUSH2 0x4A3 JUMPI DUP1 PUSH4 0x468721A7 EQ PUSH2 0x4B9 JUMPI DUP1 PUSH4 0x5229073F EQ PUSH2 0x4D9 JUMPI DUP1 PUSH4 0x5624B25B EQ PUSH2 0x507 JUMPI PUSH2 0x2B2 JUMP JUMPDEST DUP1 PUSH4 0x18160DDD GT PUSH2 0x23A JUMPI DUP1 PUSH4 0x18160DDD EQ PUSH2 0x3D5 JUMPI DUP1 PUSH4 0x23B872DD EQ PUSH2 0x3F4 JUMPI DUP1 PUSH4 0x2D9AD53D EQ PUSH2 0x414 JUMPI DUP1 PUSH4 0x2F54BF6E EQ PUSH2 0x434 JUMPI DUP1 PUSH4 0x313CE567 EQ PUSH2 0x454 JUMPI DUP1 PUSH4 0x3408E470 EQ PUSH2 0x470 JUMPI PUSH2 0x2B2 JUMP JUMPDEST DUP1 PUSH4 0x2D38445 EQ PUSH2 0x318 JUMPI DUP1 PUSH4 0x6FDDE03 EQ PUSH2 0x33A JUMPI DUP1 PUSH4 0x95EA7B3 EQ PUSH2 0x365 JUMPI DUP1 PUSH4 0xD582F13 EQ PUSH2 0x395 JUMPI DUP1 PUSH4 0x12FB68E0 EQ PUSH2 0x3B5 JUMPI PUSH2 0x2B2 JUMP JUMPDEST CALLDATASIZE PUSH2 0x2B2 JUMPI PUSH1 0x40 MLOAD CALLVALUE DUP2 MSTORE CALLER SWAP1 PUSH32 0x3D0CE9BFC3ED7D6862DBB28B2DEA94561FE714A1B4D019AA8AF39730D1AD7C3D SWAP1 PUSH1 0x20 ADD PUSH1 0x40 MLOAD DUP1 SWAP2 SUB SWAP1 LOG2 STOP JUMPDEST CALLVALUE DUP1 ISZERO PUSH2 0x2BE JUMPI PUSH1 0x0 DUP1 REVERT JUMPDEST POP PUSH32 0x6C9A6C4A39284E37ED1CF53D337577D14212A4870FB976A4366C693B939918D5 DUP1 SLOAD DUP1 PUSH2 0x2E9 JUMPI STOP JUMPDEST CALLDATASIZE PUSH1 0x0 DUP1 CALLDATACOPY CALLER PUSH1 0x60 SHL CALLDATASIZE MSTORE PUSH1 0x0 DUP1 PUSH1 0x14 CALLDATASIZE ADD PUSH1 0x0 DUP1 DUP6 GAS CALL SWAP1 POP RETURNDATASIZE PUSH1 0x0 DUP1 RETURNDATACOPY DUP1 PUSH2 0x312 JUMPI RETURNDATASIZE PUSH1 0x0 REVERT JUMPDEST POP RETURNDATASIZE PUSH1 0x0 RETURN JUMPDEST CALLVALUE DUP1 ISZERO PUSH2 0x324 JUMPI PUSH1 0x0 DUP1 REVERT JUMPDEST POP PUSH2 0x338 PUSH2 0x333 CALLDATASIZE PUSH1 0x4 PUSH2 0x3538 JUMP JUMPDEST PUSH2 0x8F6 JUMP JUMPDEST STOP JUMPDEST CALLVALUE DUP1 ISZERO PUSH2 0x346 JUMPI PUSH1 0x0 DUP1 REVERT JUMPDEST POP PUSH2 0x34F PUSH2 0xAB0 JUMP JUMPDEST PUSH1 0x40 MLOAD PUSH2 0x35C SWAP2 SWAP1 PUSH2 0x35FA JUMP JUMPDEST PUSH1 0x40 MLOAD DUP1 SWAP2 SUB SWAP1 RETURN JUMPDEST CALLVALUE DUP1 ISZERO PUSH2 0x371 JUMPI PUSH1 0x0 DUP1 REVERT JUMPDEST POP PUSH2 0x385 PUSH2 0x380 CALLDATASIZE PUSH1 0x4 PUSH2 0x360D JUMP JUMPDEST PUSH2 0xB42 JUMP JUMPDEST PUSH1 0x40 MLOAD SWAP1 ISZERO ISZERO DUP2 MSTORE PUSH1 0x20 ADD PUSH2 0x35C JUMP JUMPDEST CALLVALUE DUP1 ISZERO PUSH2 0x3A1 JUMPI PUSH1 0x0 DUP1 REVERT JUMPDEST POP PUSH2 0x338 PUSH2 0x3B0 CALLDATASIZE PUSH1 0x4 PUSH2 0x360D JUMP JUMPDEST PUSH2 0xB5C JUMP JUMPDEST CALLVALUE DUP1 ISZERO PUSH2 0x3C1 JUMPI PUSH1 0x0 DUP1 REVERT JUMPDEST POP PUSH2 0x338 PUSH2 0x3D0 CALLDATASIZE PUSH1 0x4 PUSH2 0x36DB JUMP JUMPDEST PUSH2 0xCBC JUMP JUMPDEST CALLVALUE DUP1 ISZERO PUSH2 0x3E1 JUMPI PUSH1 0x0 DUP1 REVERT JUMPDEST POP PUSH1 0xB SLOAD JUMPDEST PUSH1 0x40 MLOAD SWAP1 DUP2 MSTORE PUSH1 0x20 ADD PUSH2 0x35C JUMP JUMPDEST CALLVALUE DUP1 ISZERO PUSH2 0x400 JUMPI PUSH1 0x0 DUP1 REVERT JUMPDEST POP PUSH2 0x385 PUSH2 0x40F CALLDATASIZE PUSH1 0x4 PUSH2 0x374F JUMP JUMPDEST PUSH2 0x1164 JUMP JUMPDEST CALLVALUE DUP1 ISZERO PUSH2 0x420 JUMPI PUSH1 0x0 DUP1 REVERT JUMPDEST POP PUSH2 0x385 PUSH2 0x42F CALLDATASIZE PUSH1 0x4 PUSH2 0x3790 JUMP JUMPDEST PUSH2 0x1188 JUMP JUMPDEST CALLVALUE DUP1 ISZERO PUSH2 0x440 JUMPI PUSH1 0x0 DUP1 REVERT JUMPDEST POP PUSH2 0x385 PUSH2 0x44F CALLDATASIZE PUSH1 0x4 PUSH2 0x3790 JUMP JUMPDEST PUSH2 0x11C0 JUMP JUMPDEST CALLVALUE DUP1 ISZERO PUSH2 0x460 JUMPI PUSH1 0x0 DUP1 REVERT JUMPDEST POP PUSH1 0x40 MLOAD PUSH1 0x12 DUP2 MSTORE PUSH1 0x20 ADD PUSH2 0x35C JUMP JUMPDEST CALLVALUE DUP1 ISZERO PUSH2 0x47C JUMPI PUSH1 0x0 DUP1 REVERT JUMPDEST POP CHAINID PUSH2 0x3E6 JUMP JUMPDEST CALLVALUE DUP1 ISZERO PUSH2 0x48F JUMPI PUSH1 0x0 DUP1 REVERT JUMPDEST POP PUSH2 0x385 PUSH2 0x49E CALLDATASIZE PUSH1 0x4 PUSH2 0x360D JUMP JUMPDEST PUSH2 0x11F8 JUMP JUMPDEST CALLVALUE DUP1 ISZERO PUSH2 0x4AF JUMPI PUSH1 0x0 DUP1 REVERT JUMPDEST POP PUSH2 0x3E6 PUSH1 0xF SLOAD DUP2 JUMP JUMPDEST CALLVALUE DUP1 ISZERO PUSH2 0x4C5 JUMPI PUSH1 0x0 DUP1 REVERT JUMPDEST POP PUSH2 0x385 PUSH2 0x4D4 CALLDATASIZE PUSH1 0x4 PUSH2 0x37BC JUMP JUMPDEST PUSH2 0x121A JUMP JUMPDEST CALLVALUE DUP1 ISZERO PUSH2 0x4E5 JUMPI PUSH1 0x0 DUP1 REVERT JUMPDEST POP PUSH2 0x4F9 PUSH2 0x4F4 CALLDATASIZE PUSH1 0x4 PUSH2 0x37BC JUMP JUMPDEST PUSH2 0x12F3 JUMP JUMPDEST PUSH1 0x40 MLOAD PUSH2 0x35C SWAP3 SWAP2 SWAP1 PUSH2 0x3825 JUMP JUMPDEST CALLVALUE DUP1 ISZERO PUSH2 0x513 JUMPI PUSH1 0x0 DUP1 REVERT JUMPDEST POP PUSH2 0x34F PUSH2 0x522 CALLDATASIZE PUSH1 0x4 PUSH2 0x3840 JUMP JUMPDEST PUSH2 0x1329 JUMP JUMPDEST CALLVALUE DUP1 ISZERO PUSH2 0x533 JUMPI PUSH1 0x0 DUP1 REVERT JUMPDEST POP PUSH2 0x3E6 PUSH2 0x542 CALLDATASIZE PUSH1 0x4 PUSH2 0x3862 JUMP JUMPDEST PUSH1 0x7 PUSH1 0x20 MSTORE PUSH1 0x0 SWAP1 DUP2 MSTORE PUSH1 0x40 SWAP1 KECCAK256 SLOAD DUP2 JUMP JUMPDEST CALLVALUE DUP1 ISZERO PUSH2 0x560 JUMPI PUSH1 0x0 DUP1 REVERT JUMPDEST POP PUSH2 0x338 PUSH2 0x56F CALLDATASIZE PUSH1 0x4 PUSH2 0x3790 JUMP JUMPDEST PUSH2 0x13AE JUMP JUMPDEST CALLVALUE DUP1 ISZERO PUSH2 0x580 JUMPI PUSH1 0x0 DUP1 REVERT JUMPDEST POP PUSH2 0x338 PUSH2 0x58F CALLDATASIZE PUSH1 0x4 PUSH2 0x3862 JUMP JUMPDEST PUSH2 0x14F0 JUMP JUMPDEST PUSH2 0x385 PUSH2 0x5A2 CALLDATASIZE PUSH1 0x4 PUSH2 0x38BC JUMP JUMPDEST PUSH2 0x1588 JUMP JUMPDEST CALLVALUE DUP1 ISZERO PUSH2 0x5B3 JUMPI PUSH1 0x0 DUP1 REVERT JUMPDEST POP PUSH2 0x3E6 PUSH2 0x5C2 CALLDATASIZE PUSH1 0x4 PUSH2 0x3790 JUMP JUMPDEST PUSH1 0x1 PUSH1 0x1 PUSH1 0xA0 SHL SUB AND PUSH1 0x0 SWAP1 DUP2 MSTORE PUSH1 0x9 PUSH1 0x20 MSTORE PUSH1 0x40 SWAP1 KECCAK256 SLOAD SWAP1 JUMP JUMPDEST CALLVALUE DUP1 ISZERO PUSH2 0x5E9 JUMPI PUSH1 0x0 DUP1 REVERT JUMPDEST POP PUSH2 0x3E6 PUSH2 0x5F8 CALLDATASIZE PUSH1 0x4 PUSH2 0x360D JUMP JUMPDEST PUSH1 0x8 PUSH1 0x20 SWAP1 DUP2 MSTORE PUSH1 0x0 SWAP3 DUP4 MSTORE PUSH1 0x40 DUP1 DUP5 KECCAK256 SWAP1 SWAP2 MSTORE SWAP1 DUP3 MSTORE SWAP1 KECCAK256 SLOAD DUP2 JUMP JUMPDEST CALLVALUE DUP1 ISZERO PUSH2 0x621 JUMPI PUSH1 0x0 DUP1 REVERT JUMPDEST POP PUSH1 0xE SLOAD PUSH2 0x635 SWAP1 PUSH1 0x1 PUSH1 0x1 PUSH1 0xA0 SHL SUB AND DUP2 JUMP JUMPDEST PUSH1 0x40 MLOAD PUSH1 0x1 PUSH1 0x1 PUSH1 0xA0 SHL SUB SWAP1 SWAP2 AND DUP2 MSTORE PUSH1 0x20 ADD PUSH2 0x35C JUMP JUMPDEST CALLVALUE DUP1 ISZERO PUSH2 0x659 JUMPI PUSH1 0x0 DUP1 REVERT JUMPDEST POP PUSH2 0x338 PUSH2 0x668 CALLDATASIZE PUSH1 0x4 PUSH2 0x3994 JUMP JUMPDEST PUSH2 0x18D1 JUMP JUMPDEST CALLVALUE DUP1 ISZERO PUSH2 0x679 JUMPI PUSH1 0x0 DUP1 REVERT JUMPDEST POP PUSH2 0x34F PUSH2 0x191B JUMP JUMPDEST CALLVALUE DUP1 ISZERO PUSH2 0x68E JUMPI PUSH1 0x0 DUP1 REVERT JUMPDEST POP PUSH2 0x697 PUSH2 0x192A JUMP JUMPDEST PUSH1 0x40 MLOAD PUSH2 0x35C SWAP2 SWAP1 PUSH2 0x3A44 JUMP JUMPDEST CALLVALUE DUP1 ISZERO PUSH2 0x6B0 JUMPI PUSH1 0x0 DUP1 REVERT JUMPDEST POP PUSH2 0x385 PUSH2 0x6BF CALLDATASIZE PUSH1 0x4 PUSH2 0x360D JUMP JUMPDEST PUSH2 0x1A1A JUMP JUMPDEST CALLVALUE DUP1 ISZERO PUSH2 0x6D0 JUMPI PUSH1 0x0 DUP1 REVERT JUMPDEST POP PUSH2 0x385 PUSH2 0x6DF CALLDATASIZE PUSH1 0x4 PUSH2 0x360D JUMP JUMPDEST PUSH2 0x1A95 JUMP JUMPDEST CALLVALUE DUP1 ISZERO PUSH2 0x6F0 JUMPI PUSH1 0x0 DUP1 REVERT JUMPDEST POP PUSH2 0x3E6 PUSH1 0x5 SLOAD DUP2 JUMP JUMPDEST CALLVALUE DUP1 ISZERO PUSH2 0x706 JUMPI PUSH1 0x0 DUP1 REVERT JUMPDEST POP PUSH2 0x338 PUSH2 0x715 CALLDATASIZE PUSH1 0x4 PUSH2 0x3A57 JUMP JUMPDEST PUSH2 0x1AA3 JUMP JUMPDEST CALLVALUE DUP1 ISZERO PUSH2 0x726 JUMPI PUSH1 0x0 DUP1 REVERT JUMPDEST POP PUSH2 0x338 PUSH2 0x735 CALLDATASIZE PUSH1 0x4 PUSH2 0x3AA6 JUMP JUMPDEST PUSH2 0x1AC6 JUMP JUMPDEST PUSH2 0x338 PUSH2 0x748 CALLDATASIZE PUSH1 0x4 PUSH2 0x3B76 JUMP JUMPDEST PUSH2 0x1BE7 JUMP JUMPDEST CALLVALUE DUP1 ISZERO PUSH2 0x759 JUMPI PUSH1 0x0 DUP1 REVERT JUMPDEST POP PUSH2 0x76D PUSH2 0x768 CALLDATASIZE PUSH1 0x4 PUSH2 0x360D JUMP JUMPDEST PUSH2 0x1CB3 JUMP JUMPDEST PUSH1 0x40 MLOAD PUSH2 0x35C SWAP3 SWAP2 SWAP1 PUSH2 0x3BD1 JUMP JUMPDEST CALLVALUE DUP1 ISZERO PUSH2 0x787 JUMPI PUSH1 0x0 DUP1 REVERT JUMPDEST POP PUSH2 0x338 PUSH2 0x796 CALLDATASIZE PUSH1 0x4 PUSH2 0x3862 JUMP JUMPDEST PUSH2 0x1E6E JUMP JUMPDEST CALLVALUE DUP1 ISZERO PUSH2 0x7A7 JUMPI PUSH1 0x0 DUP1 REVERT JUMPDEST POP PUSH2 0x3E6 PUSH2 0x7B6 CALLDATASIZE PUSH1 0x4 PUSH2 0x3BFB JUMP JUMPDEST PUSH2 0x1F03 JUMP JUMPDEST CALLVALUE DUP1 ISZERO PUSH2 0x7C7 JUMPI PUSH1 0x0 DUP1 REVERT JUMPDEST POP PUSH2 0x3E6 PUSH2 0x7D6 CALLDATASIZE PUSH1 0x4 PUSH2 0x3CBB JUMP JUMPDEST PUSH2 0x1F30 JUMP JUMPDEST CALLVALUE DUP1 ISZERO PUSH2 0x7E7 JUMPI PUSH1 0x0 DUP1 REVERT JUMPDEST POP PUSH2 0x338 PUSH2 0x7F6 CALLDATASIZE PUSH1 0x4 PUSH2 0x3CBB JUMP JUMPDEST PUSH2 0x1F5B JUMP JUMPDEST CALLVALUE DUP1 ISZERO PUSH2 0x807 JUMPI PUSH1 0x0 DUP1 REVERT JUMPDEST POP PUSH2 0x338 PUSH2 0x816 CALLDATASIZE PUSH1 0x4 PUSH2 0x3790 JUMP JUMPDEST PUSH2 0x208A JUMP JUMPDEST CALLVALUE DUP1 ISZERO PUSH2 0x827 JUMPI PUSH1 0x0 DUP1 REVERT JUMPDEST POP PUSH2 0x338 PUSH2 0x836 CALLDATASIZE PUSH1 0x4 PUSH2 0x3CF4 JUMP JUMPDEST PUSH2 0x21A1 JUMP JUMPDEST CALLVALUE DUP1 ISZERO PUSH2 0x847 JUMPI PUSH1 0x0 DUP1 REVERT JUMPDEST POP PUSH1 0x4 SLOAD PUSH2 0x3E6 JUMP JUMPDEST CALLVALUE DUP1 ISZERO PUSH2 0x85C JUMPI PUSH1 0x0 DUP1 REVERT JUMPDEST POP PUSH2 0x34F PUSH2 0x86B CALLDATASIZE PUSH1 0x4 PUSH2 0x3BFB JUMP JUMPDEST PUSH2 0x2390 JUMP JUMPDEST CALLVALUE DUP1 ISZERO PUSH2 0x87C JUMPI PUSH1 0x0 DUP1 REVERT JUMPDEST POP PUSH2 0x338 PUSH2 0x88B CALLDATASIZE PUSH1 0x4 PUSH2 0x3790 JUMP JUMPDEST PUSH2 0x2469 JUMP JUMPDEST CALLVALUE DUP1 ISZERO PUSH2 0x89C JUMPI PUSH1 0x0 DUP1 REVERT JUMPDEST POP PUSH2 0x3E6 PUSH2 0x24D2 JUMP JUMPDEST CALLVALUE DUP1 ISZERO PUSH2 0x8B1 JUMPI PUSH1 0x0 DUP1 REVERT JUMPDEST POP PUSH2 0x338 PUSH2 0x8C0 CALLDATASIZE PUSH1 0x4 PUSH2 0x374F JUMP JUMPDEST PUSH2 0x2529 JUMP JUMPDEST CALLVALUE DUP1 ISZERO PUSH2 0x8D1 JUMPI PUSH1 0x0 DUP1 REVERT JUMPDEST POP PUSH2 0x34F PUSH1 0x40 MLOAD DUP1 PUSH1 0x40 ADD PUSH1 0x40 MSTORE DUP1 PUSH1 0x5 DUP2 MSTORE PUSH1 0x20 ADD PUSH5 0x312E342E3 PUSH1 0xDC SHL DUP2 MSTORE POP DUP2 JUMP JUMPDEST PUSH2 0x8FE PUSH2 0x269C JUMP JUMPDEST PUSH1 0x0 JUMPDEST DUP2 DUP2 LT ISZERO PUSH2 0xA5B JUMPI PUSH1 0x0 DUP4 DUP4 DUP4 DUP2 DUP2 LT PUSH2 0x91D JUMPI PUSH2 0x91D PUSH2 0x3D3F JUMP JUMPDEST SWAP1 POP PUSH1 0x20 MUL ADD PUSH1 0x20 DUP2 ADD SWAP1 PUSH2 0x932 SWAP2 SWAP1 PUSH2 0x3790 JUMP JUMPDEST PUSH1 0x1 PUSH1 0x1 PUSH1 0xA0 SHL SUB AND EQ PUSH2 0xA23 JUMPI PUSH2 0xA1E DUP4 DUP4 DUP4 DUP2 DUP2 LT PUSH2 0x955 JUMPI PUSH2 0x955 PUSH2 0x3D3F JUMP JUMPDEST SWAP1 POP PUSH1 0x20 MUL ADD PUSH1 0x20 DUP2 ADD SWAP1 PUSH2 0x96A SWAP2 SWAP1 PUSH2 0x3790 JUMP JUMPDEST DUP7 PUSH2 0x974 PUSH1 0xB SLOAD SWAP1 JUMP JUMPDEST PUSH2 0xA0F DUP9 DUP9 DUP9 DUP9 DUP2 DUP2 LT PUSH2 0x98A JUMPI PUSH2 0x98A PUSH2 0x3D3F JUMP JUMPDEST SWAP1 POP PUSH1 0x20 MUL ADD PUSH1 0x20 DUP2 ADD SWAP1 PUSH2 0x99F SWAP2 SWAP1 PUSH2 0x3790 JUMP JUMPDEST PUSH1 0x40 MLOAD PUSH4 0x70A08231 PUSH1 0xE0 SHL DUP2 MSTORE ADDRESS PUSH1 0x4 DUP3 ADD MSTORE PUSH1 0x1 PUSH1 0x1 PUSH1 0xA0 SHL SUB SWAP2 SWAP1 SWAP2 AND SWAP1 PUSH4 0x70A08231 SWAP1 PUSH1 0x24 ADD PUSH1 0x20 PUSH1 0x40 MLOAD DUP1 DUP4 SUB DUP2 DUP7 GAS STATICCALL ISZERO DUP1 ISZERO PUSH2 0x9E5 JUMPI RETURNDATASIZE PUSH1 0x0 DUP1 RETURNDATACOPY RETURNDATASIZE PUSH1 0x0 REVERT JUMPDEST POP POP POP POP PUSH1 0x40 MLOAD RETURNDATASIZE PUSH1 0x1F NOT PUSH1 0x1F DUP3 ADD AND DUP3 ADD DUP1 PUSH1 0x40 MSTORE POP DUP2 ADD SWAP1 PUSH2 0xA09 SWAP2 SWAP1 PUSH2 0x3D55 JUMP JUMPDEST SWAP1 PUSH2 0x26D5 JUMP JUMPDEST PUSH2 0xA19 SWAP2 SWAP1 PUSH2 0x3D84 JUMP JUMPDEST PUSH2 0x2711 JUMP JUMPDEST PUSH2 0xA49 JUMP JUMPDEST PUSH2 0xA49 DUP6 PUSH2 0xA30 PUSH1 0xB SLOAD SWAP1 JUMP JUMPDEST PUSH2 0xA3A SELFBALANCE DUP9 PUSH2 0x26D5 JUMP JUMPDEST PUSH2 0xA44 SWAP2 SWAP1 PUSH2 0x3D84 JUMP JUMPDEST PUSH2 0x283B JUMP JUMPDEST DUP1 PUSH2 0xA53 DUP2 PUSH2 0x3DA6 JUMP JUMPDEST SWAP2 POP POP PUSH2 0x901 JUMP JUMPDEST POP DUP5 PUSH1 0x1 PUSH1 0x1 PUSH1 0xA0 SHL SUB AND PUSH32 0x22D324652C93739755CF4581508B60875EBDD78C20C0CFF5CF8E23452B299631 DUP5 PUSH1 0x40 MLOAD PUSH2 0xA97 SWAP2 DUP2 MSTORE PUSH1 0x20 ADD SWAP1 JUMP JUMPDEST PUSH1 0x40 MLOAD DUP1 SWAP2 SUB SWAP1 LOG2 PUSH2 0xAA9 DUP6 DUP5 PUSH2 0x2915 JUMP JUMPDEST POP POP POP POP POP JUMP JUMPDEST PUSH1 0x60 PUSH1 0xC DUP1 SLOAD PUSH2 0xABF SWAP1 PUSH2 0x3DBF JUMP JUMPDEST DUP1 PUSH1 0x1F ADD PUSH1 0x20 DUP1 SWAP2 DIV MUL PUSH1 0x20 ADD PUSH1 0x40 MLOAD SWAP1 DUP2 ADD PUSH1 0x40 MSTORE DUP1 SWAP3 SWAP2 SWAP1 DUP2 DUP2 MSTORE PUSH1 0x20 ADD DUP3 DUP1 SLOAD PUSH2 0xAEB SWAP1 PUSH2 0x3DBF JUMP JUMPDEST DUP1 ISZERO PUSH2 0xB38 JUMPI DUP1 PUSH1 0x1F LT PUSH2 0xB0D JUMPI PUSH2 0x100 DUP1 DUP4 SLOAD DIV MUL DUP4 MSTORE SWAP2 PUSH1 0x20 ADD SWAP2 PUSH2 0xB38 JUMP JUMPDEST DUP3 ADD SWAP2 SWAP1 PUSH1 0x0 MSTORE PUSH1 0x20 PUSH1 0x0 KECCAK256 SWAP1 JUMPDEST DUP2 SLOAD DUP2 MSTORE SWAP1 PUSH1 0x1 ADD SWAP1 PUSH1 0x20 ADD DUP1 DUP4 GT PUSH2 0xB1B JUMPI DUP3 SWAP1 SUB PUSH1 0x1F AND DUP3 ADD SWAP2 JUMPDEST POP POP POP POP POP SWAP1 POP SWAP1 JUMP JUMPDEST PUSH1 0x0 CALLER PUSH2 0xB50 DUP2 DUP6 DUP6 PUSH2 0x2A49 JUMP JUMPDEST PUSH1 0x1 SWAP2 POP POP JUMPDEST SWAP3 SWAP2 POP POP JUMP JUMPDEST PUSH2 0xB64 PUSH2 0x269C JUMP JUMPDEST PUSH1 0x1 PUSH1 0x1 PUSH1 0xA0 SHL SUB DUP3 AND ISZERO DUP1 ISZERO SWAP1 PUSH2 0xB86 JUMPI POP PUSH1 0x1 PUSH1 0x1 PUSH1 0xA0 SHL SUB DUP3 AND PUSH1 0x1 EQ ISZERO JUMPDEST DUP1 ISZERO PUSH2 0xB9B JUMPI POP PUSH1 0x1 PUSH1 0x1 PUSH1 0xA0 SHL SUB DUP3 AND ADDRESS EQ ISZERO JUMPDEST PUSH2 0xBC0 JUMPI PUSH1 0x40 MLOAD PUSH3 0x461BCD PUSH1 0xE5 SHL DUP2 MSTORE PUSH1 0x4 ADD PUSH2 0xBB7 SWAP1 PUSH2 0x3DF9 JUMP JUMPDEST PUSH1 0x40 MLOAD DUP1 SWAP2 SUB SWAP1 REVERT JUMPDEST PUSH1 0x1 PUSH1 0x1 PUSH1 0xA0 SHL SUB DUP3 DUP2 AND PUSH1 0x0 SWAP1 DUP2 MSTORE PUSH1 0x2 PUSH1 0x20 MSTORE PUSH1 0x40 SWAP1 KECCAK256 SLOAD AND ISZERO PUSH2 0xBF8 JUMPI PUSH1 0x40 MLOAD PUSH3 0x461BCD PUSH1 0xE5 SHL DUP2 MSTORE PUSH1 0x4 ADD PUSH2 0xBB7 SWAP1 PUSH2 0x3E18 JUMP JUMPDEST PUSH1 0x2 PUSH1 0x20 MSTORE PUSH32 0xE90B7BCEB6E7DF5418FB78D8EE546E97C83A08BBCCC01A0644D599CCD2A7C2E0 DUP1 SLOAD PUSH1 0x1 PUSH1 0x1 PUSH1 0xA0 SHL SUB DUP5 DUP2 AND PUSH1 0x0 DUP2 DUP2 MSTORE PUSH1 0x40 DUP2 KECCAK256 DUP1 SLOAD SWAP4 SWAP1 SWAP5 AND PUSH1 0x1 PUSH1 0x1 PUSH1 0xA0 SHL SUB NOT SWAP4 DUP5 AND OR SWAP1 SWAP4 SSTORE PUSH1 0x1 DUP4 MSTORE DUP4 SLOAD SWAP1 SWAP2 AND OR SWAP1 SWAP2 SSTORE PUSH1 0x3 DUP1 SLOAD SWAP2 PUSH2 0xC65 DUP4 PUSH2 0x3DA6 JUMP JUMPDEST SWAP1 SWAP2 SSTORE POP POP PUSH1 0x40 MLOAD PUSH1 0x1 PUSH1 0x1 PUSH1 0xA0 SHL SUB DUP4 AND DUP2 MSTORE PUSH32 0x9465FA0C962CC76958E6373A993326400C1C94F8BE2FE3A952ADFA7F60B2EA26 SWAP1 PUSH1 0x20 ADD PUSH1 0x40 MLOAD DUP1 SWAP2 SUB SWAP1 LOG1 DUP1 PUSH1 0x4 SLOAD EQ PUSH2 0xCB8 JUMPI PUSH2 0xCB8 DUP2 PUSH2 0x14F0 JUMP JUMPDEST POP POP JUMP JUMPDEST PUSH2 0xCC7 DUP2 PUSH1 0x41 PUSH2 0x26D5 JUMP JUMPDEST DUP3 MLOAD LT ISZERO PUSH2 0xCFF JUMPI PUSH1 0x40 MLOAD PUSH3 0x461BCD PUSH1 0xE5 SHL DUP2 MSTORE PUSH1 0x20 PUSH1 0x4 DUP3 ADD MSTORE PUSH1 0x5 PUSH1 0x24 DUP3 ADD MSTORE PUSH5 0x475330323 PUSH1 0xDC SHL PUSH1 0x44 DUP3 ADD MSTORE PUSH1 0x64 ADD PUSH2 0xBB7 JUMP JUMPDEST PUSH1 0x0 DUP1 DUP1 PUSH1 0x0 DUP1 PUSH1 0x0 JUMPDEST DUP7 DUP2 LT ISZERO PUSH2 0x1158 JUMPI PUSH1 0x41 DUP2 DUP2 MUL DUP10 ADD PUSH1 0x20 DUP2 ADD MLOAD PUSH1 0x40 DUP3 ADD MLOAD SWAP2 SWAP1 SWAP3 ADD MLOAD PUSH1 0xFF AND SWAP6 POP SWAP1 SWAP4 POP SWAP2 POP PUSH1 0x0 DUP5 SWAP1 SUB PUSH2 0xF17 JUMPI DUP9 MLOAD PUSH1 0x20 DUP11 ADD KECCAK256 DUP11 EQ PUSH2 0xD77 JUMPI PUSH1 0x40 MLOAD PUSH3 0x461BCD PUSH1 0xE5 SHL DUP2 MSTORE PUSH1 0x20 PUSH1 0x4 DUP3 ADD MSTORE PUSH1 0x5 PUSH1 0x24 DUP3 ADD MSTORE PUSH5 0x4753303237 PUSH1 0xD8 SHL PUSH1 0x44 DUP3 ADD MSTORE PUSH1 0x64 ADD PUSH2 0xBB7 JUMP JUMPDEST SWAP2 SWAP4 POP DUP4 SWAP2 PUSH2 0xD87 DUP8 PUSH1 0x41 PUSH2 0x26D5 JUMP JUMPDEST DUP3 LT ISZERO PUSH2 0xDBE JUMPI PUSH1 0x40 MLOAD PUSH3 0x461BCD PUSH1 0xE5 SHL DUP2 MSTORE PUSH1 0x20 PUSH1 0x4 DUP3 ADD MSTORE PUSH1 0x5 PUSH1 0x24 DUP3 ADD MSTORE PUSH5 0x4753303231 PUSH1 0xD8 SHL PUSH1 0x44 DUP3 ADD MSTORE PUSH1 0x64 ADD PUSH2 0xBB7 JUMP JUMPDEST DUP8 MLOAD PUSH2 0xDCB DUP4 PUSH1 0x20 PUSH2 0x2B6D JUMP JUMPDEST GT ISZERO PUSH2 0xE01 JUMPI PUSH1 0x40 MLOAD PUSH3 0x461BCD PUSH1 0xE5 SHL DUP2 MSTORE PUSH1 0x20 PUSH1 0x4 DUP3 ADD MSTORE PUSH1 0x5 PUSH1 0x24 DUP3 ADD MSTORE PUSH5 0x23A9981919 PUSH1 0xD9 SHL PUSH1 0x44 DUP3 ADD MSTORE PUSH1 0x64 ADD PUSH2 0xBB7 JUMP JUMPDEST PUSH1 0x20 DUP3 DUP10 ADD DUP2 ADD MLOAD DUP10 MLOAD SWAP1 SWAP2 PUSH2 0xE24 SWAP1 DUP4 SWAP1 PUSH2 0xE1E SWAP1 DUP8 SWAP1 PUSH2 0x2B6D JUMP JUMPDEST SWAP1 PUSH2 0x2B6D JUMP JUMPDEST GT ISZERO PUSH2 0xE5A JUMPI PUSH1 0x40 MLOAD PUSH3 0x461BCD PUSH1 0xE5 SHL DUP2 MSTORE PUSH1 0x20 PUSH1 0x4 DUP3 ADD MSTORE PUSH1 0x5 PUSH1 0x24 DUP3 ADD MSTORE PUSH5 0x4753303233 PUSH1 0xD8 SHL PUSH1 0x44 DUP3 ADD MSTORE PUSH1 0x64 ADD PUSH2 0xBB7 JUMP JUMPDEST PUSH1 0x40 MLOAD PUSH4 0x20C13B0B PUSH1 0xE0 SHL DUP1 DUP3 MSTORE DUP11 DUP6 ADD PUSH1 0x20 ADD SWAP2 PUSH1 0x1 PUSH1 0x1 PUSH1 0xA0 SHL SUB DUP10 AND SWAP1 PUSH4 0x20C13B0B SWAP1 PUSH2 0xE90 SWAP1 DUP16 SWAP1 DUP7 SWAP1 PUSH1 0x4 ADD PUSH2 0x3E37 JUMP JUMPDEST PUSH1 0x20 PUSH1 0x40 MLOAD DUP1 DUP4 SUB DUP2 DUP7 GAS STATICCALL ISZERO DUP1 ISZERO PUSH2 0xEAD JUMPI RETURNDATASIZE PUSH1 0x0 DUP1 RETURNDATACOPY RETURNDATASIZE PUSH1 0x0 REVERT JUMPDEST POP POP POP POP PUSH1 0x40 MLOAD RETURNDATASIZE PUSH1 0x1F NOT PUSH1 0x1F DUP3 ADD AND DUP3 ADD DUP1 PUSH1 0x40 MSTORE POP DUP2 ADD SWAP1 PUSH2 0xED1 SWAP2 SWAP1 PUSH2 0x3E5C JUMP JUMPDEST PUSH1 0x1 PUSH1 0x1 PUSH1 0xE0 SHL SUB NOT AND EQ PUSH2 0xF10 JUMPI PUSH1 0x40 MLOAD PUSH3 0x461BCD PUSH1 0xE5 SHL DUP2 MSTORE PUSH1 0x20 PUSH1 0x4 DUP3 ADD MSTORE PUSH1 0x5 PUSH1 0x24 DUP3 ADD MSTORE PUSH5 0x11D4CC0C8D PUSH1 0xDA SHL PUSH1 0x44 DUP3 ADD MSTORE PUSH1 0x64 ADD PUSH2 0xBB7 JUMP JUMPDEST POP POP PUSH2 0x10BE JUMP JUMPDEST DUP4 PUSH1 0xFF AND PUSH1 0x1 SUB PUSH2 0xF99 JUMPI SWAP2 SWAP4 POP DUP4 SWAP2 CALLER PUSH1 0x1 PUSH1 0x1 PUSH1 0xA0 SHL SUB DUP5 AND EQ DUP1 PUSH2 0xF60 JUMPI POP PUSH1 0x1 PUSH1 0x1 PUSH1 0xA0 SHL SUB DUP6 AND PUSH1 0x0 SWAP1 DUP2 MSTORE PUSH1 0x8 PUSH1 0x20 SWAP1 DUP2 MSTORE PUSH1 0x40 DUP1 DUP4 KECCAK256 DUP14 DUP5 MSTORE SWAP1 SWAP2 MSTORE SWAP1 KECCAK256 SLOAD ISZERO ISZERO JUMPDEST PUSH2 0xF94 JUMPI PUSH1 0x40 MLOAD PUSH3 0x461BCD PUSH1 0xE5 SHL DUP2 MSTORE PUSH1 0x20 PUSH1 0x4 DUP3 ADD MSTORE PUSH1 0x5 PUSH1 0x24 DUP3 ADD MSTORE PUSH5 0x4753303235 PUSH1 0xD8 SHL PUSH1 0x44 DUP3 ADD MSTORE PUSH1 0x64 ADD PUSH2 0xBB7 JUMP JUMPDEST PUSH2 0x10BE JUMP JUMPDEST PUSH1 0x1E DUP5 PUSH1 0xFF AND GT ISZERO PUSH2 0x105E JUMPI PUSH1 0x40 MLOAD PUSH32 0x19457468657265756D205369676E6564204D6573736167653A0A333200000000 PUSH1 0x20 DUP3 ADD MSTORE PUSH1 0x3C DUP2 ADD DUP12 SWAP1 MSTORE PUSH1 0x1 SWAP1 PUSH1 0x5C ADD PUSH1 0x40 MLOAD PUSH1 0x20 DUP2 DUP4 SUB SUB DUP2 MSTORE SWAP1 PUSH1 0x40 MSTORE DUP1 MLOAD SWAP1 PUSH1 0x20 ADD KECCAK256 PUSH1 0x4 DUP7 PUSH2 0xFFE SWAP2 SWAP1 PUSH2 0x3E86 JUMP JUMPDEST PUSH1 0x40 DUP1 MLOAD PUSH1 0x0 DUP2 MSTORE PUSH1 0x20 DUP2 ADD DUP1 DUP4 MSTORE SWAP4 SWAP1 SWAP4 MSTORE PUSH1 0xFF SWAP1 SWAP2 AND SWAP1 DUP3 ADD MSTORE PUSH1 0x60 DUP2 ADD DUP6 SWAP1 MSTORE PUSH1 0x80 DUP2 ADD DUP5 SWAP1 MSTORE PUSH1 0xA0 ADD PUSH1 0x20 PUSH1 0x40 MLOAD PUSH1 0x20 DUP2 SUB SWAP1 DUP1 DUP5 SUB SWAP1 DUP6 GAS STATICCALL ISZERO DUP1 ISZERO PUSH2 0x104D JUMPI RETURNDATASIZE PUSH1 0x0 DUP1 RETURNDATACOPY RETURNDATASIZE PUSH1 0x0 REVERT JUMPDEST POP POP POP PUSH1 0x20 PUSH1 0x40 MLOAD SUB MLOAD SWAP5 POP PUSH2 0x10BE JUMP JUMPDEST PUSH1 0x40 DUP1 MLOAD PUSH1 0x0 DUP2 MSTORE PUSH1 0x20 DUP2 ADD DUP1 DUP4 MSTORE DUP13 SWAP1 MSTORE PUSH1 0xFF DUP7 AND SWAP2 DUP2 ADD SWAP2 SWAP1 SWAP2 MSTORE PUSH1 0x60 DUP2 ADD DUP5 SWAP1 MSTORE PUSH1 0x80 DUP2 ADD DUP4 SWAP1 MSTORE PUSH1 0x1 SWAP1 PUSH1 0xA0 ADD PUSH1 0x20 PUSH1 0x40 MLOAD PUSH1 0x20 DUP2 SUB SWAP1 DUP1 DUP5 SUB SWAP1 DUP6 GAS STATICCALL ISZERO DUP1 ISZERO PUSH2 0x10B1 JUMPI RETURNDATASIZE PUSH1 0x0 DUP1 RETURNDATACOPY RETURNDATASIZE PUSH1 0x0 REVERT JUMPDEST POP POP POP PUSH1 0x20 PUSH1 0x40 MLOAD SUB MLOAD SWAP5 POP JUMPDEST DUP6 PUSH1 0x1 PUSH1 0x1 PUSH1 0xA0 SHL SUB AND DUP6 PUSH1 0x1 PUSH1 0x1 PUSH1 0xA0 SHL SUB AND GT DUP1 ISZERO PUSH2 0x10F8 JUMPI POP PUSH1 0x1 PUSH1 0x1 PUSH1 0xA0 SHL SUB DUP6 DUP2 AND PUSH1 0x0 SWAP1 DUP2 MSTORE PUSH1 0x2 PUSH1 0x20 MSTORE PUSH1 0x40 SWAP1 KECCAK256 SLOAD AND ISZERO ISZERO JUMPDEST DUP1 ISZERO PUSH2 0x110E JUMPI POP PUSH1 0x1 PUSH1 0x1 PUSH1 0xA0 SHL SUB DUP6 AND PUSH1 0x1 EQ ISZERO JUMPDEST PUSH2 0x1142 JUMPI PUSH1 0x40 MLOAD PUSH3 0x461BCD PUSH1 0xE5 SHL DUP2 MSTORE PUSH1 0x20 PUSH1 0x4 DUP3 ADD MSTORE PUSH1 0x5 PUSH1 0x24 DUP3 ADD MSTORE PUSH5 0x23A998191B PUSH1 0xD9 SHL PUSH1 0x44 DUP3 ADD MSTORE PUSH1 0x64 ADD PUSH2 0xBB7 JUMP JUMPDEST DUP5 SWAP6 POP DUP1 DUP1 PUSH2 0x1150 SWAP1 PUSH2 0x3DA6 JUMP JUMPDEST SWAP2 POP POP PUSH2 0xD09 JUMP JUMPDEST POP POP POP POP POP POP POP POP POP POP JUMP JUMPDEST PUSH1 0x0 CALLER PUSH2 0x1172 DUP6 DUP3 DUP6 PUSH2 0x2B89 JUMP JUMPDEST PUSH2 0x117D DUP6 DUP6 DUP6 PUSH2 0x2BFD JUMP JUMPDEST POP PUSH1 0x1 SWAP5 SWAP4 POP POP POP POP JUMP JUMPDEST PUSH1 0x0 PUSH1 0x1 PUSH1 0x1 PUSH1 0x1 PUSH1 0xA0 SHL SUB DUP4 AND EQ DUP1 ISZERO SWAP1 PUSH2 0xB56 JUMPI POP POP PUSH1 0x1 PUSH1 0x1 PUSH1 0xA0 SHL SUB SWAP1 DUP2 AND PUSH1 0x0 SWAP1 DUP2 MSTORE PUSH1 0x1 PUSH1 0x20 MSTORE PUSH1 0x40 SWAP1 KECCAK256 SLOAD AND ISZERO ISZERO SWAP1 JUMP JUMPDEST PUSH1 0x0 PUSH1 0x1 PUSH1 0x1 PUSH1 0xA0 SHL SUB DUP3 AND PUSH1 0x1 EQ DUP1 ISZERO SWAP1 PUSH2 0xB56 JUMPI POP POP PUSH1 0x1 PUSH1 0x1 PUSH1 0xA0 SHL SUB SWAP1 DUP2 AND PUSH1 0x0 SWAP1 DUP2 MSTORE PUSH1 0x2 PUSH1 0x20 MSTORE PUSH1 0x40 SWAP1 KECCAK256 SLOAD AND ISZERO ISZERO SWAP1 JUMP JUMPDEST PUSH1 0x0 CALLER PUSH2 0xB50 DUP2 DUP6 DUP6 PUSH2 0x120B DUP4 DUP4 PUSH2 0x1F30 JUMP JUMPDEST PUSH2 0x1215 SWAP2 SWAP1 PUSH2 0x3E9F JUMP JUMPDEST PUSH2 0x2A49 JUMP JUMPDEST PUSH1 0x0 CALLER PUSH1 0x1 EQ DUP1 ISZERO SWAP1 PUSH2 0x1244 JUMPI POP CALLER PUSH1 0x0 SWAP1 DUP2 MSTORE PUSH1 0x1 PUSH1 0x20 MSTORE PUSH1 0x40 SWAP1 KECCAK256 SLOAD PUSH1 0x1 PUSH1 0x1 PUSH1 0xA0 SHL SUB AND ISZERO ISZERO JUMPDEST PUSH2 0x1278 JUMPI PUSH1 0x40 MLOAD PUSH3 0x461BCD PUSH1 0xE5 SHL DUP2 MSTORE PUSH1 0x20 PUSH1 0x4 DUP3 ADD MSTORE PUSH1 0x5 PUSH1 0x24 DUP3 ADD MSTORE PUSH5 0x11D4CC4C0D PUSH1 0xDA SHL PUSH1 0x44 DUP3 ADD MSTORE PUSH1 0x64 ADD PUSH2 0xBB7 JUMP JUMPDEST PUSH2 0x1287 DUP6 DUP6 DUP6 DUP6 PUSH1 0x0 NOT PUSH2 0x2DA8 JUMP JUMPDEST SWAP1 POP DUP1 ISZERO PUSH2 0x12BF JUMPI PUSH1 0x40 MLOAD CALLER SWAP1 PUSH32 0x6895C13664AA4F67288B25D7A21D7AAA34916E355FB9B6FAE0A139A9085BECB8 SWAP1 PUSH1 0x0 SWAP1 LOG2 PUSH2 0x12EB JUMP JUMPDEST PUSH1 0x40 MLOAD CALLER SWAP1 PUSH32 0xACD2C8702804128FDB0DB2BB49F6D127DD0181C13FD45DBFE16DE0930E2BD375 SWAP1 PUSH1 0x0 SWAP1 LOG2 JUMPDEST SWAP5 SWAP4 POP POP POP POP JUMP JUMPDEST PUSH1 0x0 PUSH1 0x60 PUSH2 0x1303 DUP7 DUP7 DUP7 DUP7 PUSH2 0x121A JUMP JUMPDEST SWAP2 POP PUSH1 0x40 MLOAD PUSH1 0x20 RETURNDATASIZE ADD DUP2 ADD PUSH1 0x40 MSTORE RETURNDATASIZE DUP2 MSTORE RETURNDATASIZE PUSH1 0x0 PUSH1 0x20 DUP4 ADD RETURNDATACOPY DUP1 SWAP2 POP POP SWAP5 POP SWAP5 SWAP3 POP POP POP JUMP JUMPDEST PUSH1 0x60 PUSH1 0x0 PUSH2 0x1338 DUP4 PUSH1 0x20 PUSH2 0x3EB2 JUMP JUMPDEST PUSH1 0x1 PUSH1 0x1 PUSH1 0x40 SHL SUB DUP2 GT ISZERO PUSH2 0x134F JUMPI PUSH2 0x134F PUSH2 0x3639 JUMP JUMPDEST PUSH1 0x40 MLOAD SWAP1 DUP1 DUP3 MSTORE DUP1 PUSH1 0x1F ADD PUSH1 0x1F NOT AND PUSH1 0x20 ADD DUP3 ADD PUSH1 0x40 MSTORE DUP1 ISZERO PUSH2 0x1379 JUMPI PUSH1 0x20 DUP3 ADD DUP2 DUP1 CALLDATASIZE DUP4 CALLDATACOPY ADD SWAP1 POP JUMPDEST POP SWAP1 POP PUSH1 0x0 JUMPDEST DUP4 DUP2 LT ISZERO PUSH2 0x13A6 JUMPI DUP5 DUP2 ADD SLOAD PUSH1 0x20 DUP1 DUP4 MUL DUP5 ADD ADD MSTORE DUP1 PUSH2 0x139E DUP2 PUSH2 0x3DA6 JUMP JUMPDEST SWAP2 POP POP PUSH2 0x137F JUMP JUMPDEST POP SWAP4 SWAP3 POP POP POP JUMP JUMPDEST PUSH2 0x13B6 PUSH2 0x269C JUMP JUMPDEST PUSH1 0x1 PUSH1 0x1 PUSH1 0xA0 SHL SUB DUP2 AND ISZERO DUP1 ISZERO SWAP1 PUSH2 0x13D8 JUMPI POP PUSH1 0x1 PUSH1 0x1 PUSH1 0xA0 SHL SUB DUP2 AND PUSH1 0x1 EQ ISZERO JUMPDEST PUSH2 0x140C JUMPI PUSH1 0x40 MLOAD PUSH3 0x461BCD PUSH1 0xE5 SHL DUP2 MSTORE PUSH1 0x20 PUSH1 0x4 DUP3 ADD MSTORE PUSH1 0x5 PUSH1 0x24 DUP3 ADD MSTORE PUSH5 0x4753313031 PUSH1 0xD8 SHL PUSH1 0x44 DUP3 ADD MSTORE PUSH1 0x64 ADD PUSH2 0xBB7 JUMP JUMPDEST PUSH1 0x1 PUSH1 0x1 PUSH1 0xA0 SHL SUB DUP2 DUP2 AND PUSH1 0x0 SWAP1 DUP2 MSTORE PUSH1 0x1 PUSH1 0x20 MSTORE PUSH1 0x40 SWAP1 KECCAK256 SLOAD AND ISZERO PUSH2 0x145C JUMPI PUSH1 0x40 MLOAD PUSH3 0x461BCD PUSH1 0xE5 SHL DUP2 MSTORE PUSH1 0x20 PUSH1 0x4 DUP3 ADD MSTORE PUSH1 0x5 PUSH1 0x24 DUP3 ADD MSTORE PUSH5 0x23A9989819 PUSH1 0xD9 SHL PUSH1 0x44 DUP3 ADD MSTORE PUSH1 0x64 ADD PUSH2 0xBB7 JUMP JUMPDEST PUSH1 0x1 PUSH1 0x20 DUP2 DUP2 MSTORE PUSH32 0xCC69885FDA6BCC1A4ACE058B4A62BF5E179EA78FD58A1CCD71C22CC9B688792F DUP1 SLOAD PUSH1 0x1 PUSH1 0x1 PUSH1 0xA0 SHL SUB DUP6 DUP2 AND PUSH1 0x0 DUP2 DUP2 MSTORE PUSH1 0x40 DUP1 DUP3 KECCAK256 DUP1 SLOAD SWAP5 SWAP1 SWAP6 AND PUSH1 0x1 PUSH1 0x1 PUSH1 0xA0 SHL SUB NOT SWAP5 DUP6 AND OR SWAP1 SWAP5 SSTORE SWAP6 SWAP1 SWAP6 MSTORE DUP3 SLOAD AND DUP5 OR SWAP1 SWAP2 SSTORE MLOAD SWAP2 DUP3 MSTORE PUSH32 0xECDF3A3EFFEA5783A3C4C2140E677577666428D44ED9D474A0B3A4C9943F8440 SWAP2 ADD JUMPDEST PUSH1 0x40 MLOAD DUP1 SWAP2 SUB SWAP1 LOG1 POP JUMP JUMPDEST PUSH2 0x14F8 PUSH2 0x269C JUMP JUMPDEST PUSH1 0x3 SLOAD DUP2 GT ISZERO PUSH2 0x151A JUMPI PUSH1 0x40 MLOAD PUSH3 0x461BCD PUSH1 0xE5 SHL DUP2 MSTORE PUSH1 0x4 ADD PUSH2 0xBB7 SWAP1 PUSH2 0x3EC9 JUMP JUMPDEST PUSH1 0x1 DUP2 LT ISZERO PUSH2 0x1553 JUMPI PUSH1 0x40 MLOAD PUSH3 0x461BCD PUSH1 0xE5 SHL DUP2 MSTORE PUSH1 0x20 PUSH1 0x4 DUP3 ADD MSTORE PUSH1 0x5 PUSH1 0x24 DUP3 ADD MSTORE PUSH5 0x23A9991819 PUSH1 0xD9 SHL PUSH1 0x44 DUP3 ADD MSTORE PUSH1 0x64 ADD PUSH2 0xBB7 JUMP JUMPDEST PUSH1 0x4 DUP2 SWAP1 SSTORE PUSH1 0x40 MLOAD DUP2 DUP2 MSTORE PUSH32 0x610F7FF2B304AE8903C3DE74C60C6AB1F7D6226B3F52C5161905BB5AD4039C93 SWAP1 PUSH1 0x20 ADD PUSH2 0x14E5 JUMP JUMPDEST PUSH1 0x0 DUP1 PUSH1 0x0 PUSH2 0x15A2 DUP15 DUP15 DUP15 DUP15 DUP15 DUP15 DUP15 DUP15 DUP15 DUP15 PUSH1 0x5 SLOAD PUSH2 0x2390 JUMP JUMPDEST PUSH1 0x5 DUP1 SLOAD SWAP2 SWAP3 POP PUSH1 0x0 PUSH2 0x15B4 DUP4 PUSH2 0x3DA6 JUMP JUMPDEST SWAP1 SWAP2 SSTORE POP POP DUP1 MLOAD PUSH1 0x20 DUP3 ADD KECCAK256 SWAP2 POP PUSH2 0x15CD DUP3 DUP3 DUP7 PUSH2 0x18D1 JUMP JUMPDEST POP PUSH1 0x0 PUSH2 0x15F8 PUSH32 0x4A204F620C8C5CCDCA3FD54D003BADD85BA500436A431F0CBDA4F558C93C34C8 SLOAD SWAP1 JUMP JUMPDEST SWAP1 POP PUSH1 0x1 PUSH1 0x1 PUSH1 0xA0 SHL SUB DUP2 AND ISZERO PUSH2 0x167E JUMPI DUP1 PUSH1 0x1 PUSH1 0x1 PUSH1 0xA0 SHL SUB AND PUSH4 0x75F0BB52 DUP16 DUP16 DUP16 DUP16 DUP16 DUP16 DUP16 DUP16 DUP16 DUP16 DUP16 CALLER PUSH1 0x40 MLOAD DUP14 PUSH4 0xFFFFFFFF AND PUSH1 0xE0 SHL DUP2 MSTORE PUSH1 0x4 ADD PUSH2 0x164B SWAP13 SWAP12 SWAP11 SWAP10 SWAP9 SWAP8 SWAP7 SWAP6 SWAP5 SWAP4 SWAP3 SWAP2 SWAP1 PUSH2 0x3F20 JUMP JUMPDEST PUSH1 0x0 PUSH1 0x40 MLOAD DUP1 DUP4 SUB DUP2 PUSH1 0x0 DUP8 DUP1 EXTCODESIZE ISZERO DUP1 ISZERO PUSH2 0x1665 JUMPI PUSH1 0x0 DUP1 REVERT JUMPDEST POP GAS CALL ISZERO DUP1 ISZERO PUSH2 0x1679 JUMPI RETURNDATASIZE PUSH1 0x0 DUP1 RETURNDATACOPY RETURNDATASIZE PUSH1 0x0 REVERT JUMPDEST POP POP POP POP JUMPDEST PUSH2 0x16AA PUSH2 0x168D DUP11 PUSH2 0x9C4 PUSH2 0x3E9F JUMP JUMPDEST PUSH1 0x3F PUSH2 0x169A DUP13 PUSH1 0x40 PUSH2 0x3EB2 JUMP JUMPDEST PUSH2 0x16A4 SWAP2 SWAP1 PUSH2 0x3D84 JUMP JUMPDEST SWAP1 PUSH2 0x2DEF JUMP JUMPDEST PUSH2 0x16B6 SWAP1 PUSH2 0x1F4 PUSH2 0x3E9F JUMP JUMPDEST GAS LT ISZERO PUSH2 0x16ED JUMPI PUSH1 0x40 MLOAD PUSH3 0x461BCD PUSH1 0xE5 SHL DUP2 MSTORE PUSH1 0x20 PUSH1 0x4 DUP3 ADD MSTORE PUSH1 0x5 PUSH1 0x24 DUP3 ADD MSTORE PUSH5 0x475330313 PUSH1 0xDC SHL PUSH1 0x44 DUP3 ADD MSTORE PUSH1 0x64 ADD PUSH2 0xBB7 JUMP JUMPDEST PUSH1 0x0 GAS SWAP1 POP PUSH2 0x175E DUP16 DUP16 DUP16 DUP16 DUP1 DUP1 PUSH1 0x1F ADD PUSH1 0x20 DUP1 SWAP2 DIV MUL PUSH1 0x20 ADD PUSH1 0x40 MLOAD SWAP1 DUP2 ADD PUSH1 0x40 MSTORE DUP1 SWAP4 SWAP3 SWAP2 SWAP1 DUP2 DUP2 MSTORE PUSH1 0x20 ADD DUP4 DUP4 DUP1 DUP3 DUP5 CALLDATACOPY PUSH1 0x0 DUP2 DUP5 ADD MSTORE PUSH1 0x1F NOT PUSH1 0x1F DUP3 ADD AND SWAP1 POP DUP1 DUP4 ADD SWAP3 POP POP POP POP POP POP POP DUP15 DUP13 PUSH1 0x0 EQ PUSH2 0x174B JUMPI DUP15 PUSH2 0x2DA8 JUMP JUMPDEST PUSH2 0x9C4 GAS PUSH2 0x1759 SWAP2 SWAP1 PUSH2 0x3FE5 JUMP JUMPDEST PUSH2 0x2DA8 JUMP JUMPDEST SWAP4 POP PUSH2 0x176B GAS DUP3 SWAP1 PUSH2 0x2E06 JUMP JUMPDEST SWAP1 POP DUP4 DUP1 PUSH2 0x1778 JUMPI POP DUP10 ISZERO ISZERO JUMPDEST DUP1 PUSH2 0x1782 JUMPI POP DUP8 ISZERO ISZERO JUMPDEST PUSH2 0x17B6 JUMPI PUSH1 0x40 MLOAD PUSH3 0x461BCD PUSH1 0xE5 SHL DUP2 MSTORE PUSH1 0x20 PUSH1 0x4 DUP3 ADD MSTORE PUSH1 0x5 PUSH1 0x24 DUP3 ADD MSTORE PUSH5 0x4753303133 PUSH1 0xD8 SHL PUSH1 0x44 DUP3 ADD MSTORE PUSH1 0x64 ADD PUSH2 0xBB7 JUMP JUMPDEST PUSH1 0x0 DUP9 ISZERO PUSH2 0x17CE JUMPI PUSH2 0x17CB DUP3 DUP12 DUP12 DUP12 DUP12 PUSH2 0x2E21 JUMP JUMPDEST SWAP1 POP JUMPDEST DUP5 ISZERO PUSH2 0x1812 JUMPI PUSH1 0x40 DUP1 MLOAD DUP6 DUP2 MSTORE PUSH1 0x20 DUP2 ADD DUP4 SWAP1 MSTORE PUSH32 0x442E715F626346E8C54381002DA614F62BEE8D27386535B2521EC8540898556E SWAP2 ADD PUSH1 0x40 MLOAD DUP1 SWAP2 SUB SWAP1 LOG1 PUSH2 0x184C JUMP JUMPDEST PUSH1 0x40 DUP1 MLOAD DUP6 DUP2 MSTORE PUSH1 0x20 DUP2 ADD DUP4 SWAP1 MSTORE PUSH32 0x23428B18ACFB3EA64B08DC0C1D296EA9C09702C09083CA5272E64D115B687D23 SWAP2 ADD PUSH1 0x40 MLOAD DUP1 SWAP2 SUB SWAP1 LOG1 JUMPDEST POP POP PUSH1 0x1 PUSH1 0x1 PUSH1 0xA0 SHL SUB DUP2 AND ISZERO PUSH2 0x18C0 JUMPI PUSH1 0x40 MLOAD PUSH4 0x1264E26D PUSH1 0xE3 SHL DUP2 MSTORE PUSH1 0x4 DUP2 ADD DUP4 SWAP1 MSTORE DUP4 ISZERO ISZERO PUSH1 0x24 DUP3 ADD MSTORE PUSH1 0x1 PUSH1 0x1 PUSH1 0xA0 SHL SUB DUP3 AND SWAP1 PUSH4 0x93271368 SWAP1 PUSH1 0x44 ADD PUSH1 0x0 PUSH1 0x40 MLOAD DUP1 DUP4 SUB DUP2 PUSH1 0x0 DUP8 DUP1 EXTCODESIZE ISZERO DUP1 ISZERO PUSH2 0x18A7 JUMPI PUSH1 0x0 DUP1 REVERT JUMPDEST POP GAS CALL ISZERO DUP1 ISZERO PUSH2 0x18BB JUMPI RETURNDATASIZE PUSH1 0x0 DUP1 RETURNDATACOPY RETURNDATASIZE PUSH1 0x0 REVERT JUMPDEST POP POP POP POP JUMPDEST POP POP SWAP12 SWAP11 POP POP POP POP POP POP POP POP POP POP POP JUMP JUMPDEST PUSH1 0x4 SLOAD DUP1 PUSH2 0x1909 JUMPI PUSH1 0x40 MLOAD PUSH3 0x461BCD PUSH1 0xE5 SHL DUP2 MSTORE PUSH1 0x20 PUSH1 0x4 DUP3 ADD MSTORE PUSH1 0x5 PUSH1 0x24 DUP3 ADD MSTORE PUSH5 0x4753303031 PUSH1 0xD8 SHL PUSH1 0x44 DUP3 ADD MSTORE PUSH1 0x64 ADD PUSH2 0xBB7 JUMP JUMPDEST PUSH2 0x1915 DUP5 DUP5 DUP5 DUP5 PUSH2 0xCBC JUMP JUMPDEST POP POP POP POP JUMP JUMPDEST PUSH1 0x60 PUSH1 0xD DUP1 SLOAD PUSH2 0xABF SWAP1 PUSH2 0x3DBF JUMP JUMPDEST PUSH1 0x60 PUSH1 0x0 PUSH1 0x3 SLOAD PUSH1 0x1 PUSH1 0x1 PUSH1 0x40 SHL SUB DUP2 GT ISZERO PUSH2 0x1948 JUMPI PUSH2 0x1948 PUSH2 0x3639 JUMP JUMPDEST PUSH1 0x40 MLOAD SWAP1 DUP1 DUP3 MSTORE DUP1 PUSH1 0x20 MUL PUSH1 0x20 ADD DUP3 ADD PUSH1 0x40 MSTORE DUP1 ISZERO PUSH2 0x1971 JUMPI DUP2 PUSH1 0x20 ADD PUSH1 0x20 DUP3 MUL DUP1 CALLDATASIZE DUP4 CALLDATACOPY ADD SWAP1 POP JUMPDEST POP PUSH1 0x1 PUSH1 0x0 SWAP1 DUP2 MSTORE PUSH1 0x2 PUSH1 0x20 MSTORE PUSH32 0xE90B7BCEB6E7DF5418FB78D8EE546E97C83A08BBCCC01A0644D599CCD2A7C2E0 SLOAD SWAP2 SWAP3 POP SWAP1 PUSH1 0x1 PUSH1 0x1 PUSH1 0xA0 SHL SUB AND JUMPDEST PUSH1 0x1 PUSH1 0x1 PUSH1 0xA0 SHL SUB DUP2 AND PUSH1 0x1 EQ PUSH2 0x1A12 JUMPI DUP1 DUP4 DUP4 DUP2 MLOAD DUP2 LT PUSH2 0x19D2 JUMPI PUSH2 0x19D2 PUSH2 0x3D3F JUMP JUMPDEST PUSH1 0x1 PUSH1 0x1 PUSH1 0xA0 SHL SUB SWAP3 DUP4 AND PUSH1 0x20 SWAP2 DUP3 MUL SWAP3 SWAP1 SWAP3 ADD DUP2 ADD SWAP2 SWAP1 SWAP2 MSTORE SWAP2 DUP2 AND PUSH1 0x0 SWAP1 DUP2 MSTORE PUSH1 0x2 SWAP1 SWAP3 MSTORE PUSH1 0x40 SWAP1 SWAP2 KECCAK256 SLOAD AND DUP2 PUSH2 0x1A0A DUP2 PUSH2 0x3DA6 JUMP JUMPDEST SWAP3 POP POP PUSH2 0x19AE JUMP JUMPDEST POP SWAP1 SWAP3 SWAP2 POP POP JUMP JUMPDEST PUSH1 0x0 CALLER DUP2 PUSH2 0x1A28 DUP3 DUP7 PUSH2 0x1F30 JUMP JUMPDEST SWAP1 POP DUP4 DUP2 LT ISZERO PUSH2 0x1A88 JUMPI PUSH1 0x40 MLOAD PUSH3 0x461BCD PUSH1 0xE5 SHL DUP2 MSTORE PUSH1 0x20 PUSH1 0x4 DUP3 ADD MSTORE PUSH1 0x25 PUSH1 0x24 DUP3 ADD MSTORE PUSH32 0x45524332303A2064656372656173656420616C6C6F77616E63652062656C6F77 PUSH1 0x44 DUP3 ADD MSTORE PUSH5 0x207A65726F PUSH1 0xD8 SHL PUSH1 0x64 DUP3 ADD MSTORE PUSH1 0x84 ADD PUSH2 0xBB7 JUMP JUMPDEST PUSH2 0x117D DUP3 DUP7 DUP7 DUP5 SUB PUSH2 0x2A49 JUMP JUMPDEST PUSH1 0x0 CALLER PUSH2 0xB50 DUP2 DUP6 DUP6 PUSH2 0x2BFD JUMP JUMPDEST PUSH1 0x0 DUP1 DUP3 MLOAD PUSH1 0x20 DUP5 ADD DUP6 GAS DELEGATECALL DUP1 PUSH1 0x0 MSTORE POP RETURNDATASIZE PUSH1 0x20 MSTORE RETURNDATASIZE PUSH1 0x0 PUSH1 0x40 RETURNDATACOPY PUSH1 0x40 RETURNDATASIZE ADD PUSH1 0x0 REVERT JUMPDEST PUSH2 0x1B04 DUP11 DUP11 DUP1 DUP1 PUSH1 0x20 MUL PUSH1 0x20 ADD PUSH1 0x40 MLOAD SWAP1 DUP2 ADD PUSH1 0x40 MSTORE DUP1 SWAP4 SWAP3 SWAP2 SWAP1 DUP2 DUP2 MSTORE PUSH1 0x20 ADD DUP4 DUP4 PUSH1 0x20 MUL DUP1 DUP3 DUP5 CALLDATACOPY PUSH1 0x0 SWAP3 ADD SWAP2 SWAP1 SWAP2 MSTORE POP DUP13 SWAP3 POP PUSH2 0x2F21 SWAP2 POP POP JUMP JUMPDEST PUSH1 0x1 PUSH1 0x1 PUSH1 0xA0 SHL SUB DUP5 AND ISZERO PUSH2 0x1B3B JUMPI PUSH2 0x1B3B DUP5 PUSH32 0x6C9A6C4A39284E37ED1CF53D337577D14212A4870FB976A4366C693B939918D5 SSTORE JUMP JUMPDEST PUSH2 0x1B7B DUP8 DUP8 DUP8 DUP1 DUP1 PUSH1 0x1F ADD PUSH1 0x20 DUP1 SWAP2 DIV MUL PUSH1 0x20 ADD PUSH1 0x40 MLOAD SWAP1 DUP2 ADD PUSH1 0x40 MSTORE DUP1 SWAP4 SWAP3 SWAP2 SWAP1 DUP2 DUP2 MSTORE PUSH1 0x20 ADD DUP4 DUP4 DUP1 DUP3 DUP5 CALLDATACOPY PUSH1 0x0 SWAP3 ADD SWAP2 SWAP1 SWAP2 MSTORE POP PUSH2 0x3107 SWAP3 POP POP POP JUMP JUMPDEST DUP2 ISZERO PUSH2 0x1B92 JUMPI PUSH2 0x1B90 DUP3 PUSH1 0x0 PUSH1 0x1 DUP7 DUP6 PUSH2 0x2E21 JUMP JUMPDEST POP JUMPDEST CALLER PUSH1 0x1 PUSH1 0x1 PUSH1 0xA0 SHL SUB AND PUSH32 0x141DF868A6331AF528E38C83B7AA03EDC19BE66E37AE67F9285BF4F8E3C6A1A8 DUP12 DUP12 DUP12 DUP12 DUP10 PUSH1 0x40 MLOAD PUSH2 0x1BD3 SWAP6 SWAP5 SWAP4 SWAP3 SWAP2 SWAP1 PUSH2 0x3FF8 JUMP JUMPDEST PUSH1 0x40 MLOAD DUP1 SWAP2 SUB SWAP1 LOG2 POP POP POP POP POP POP POP POP POP POP JUMP JUMPDEST PUSH2 0x1BEF PUSH2 0x269C JUMP JUMPDEST PUSH1 0x1 PUSH1 0x1 PUSH1 0xA0 SHL SUB DUP3 AND ISZERO PUSH2 0x1C5D JUMPI PUSH2 0x1C0A DUP3 DUP7 ADDRESS DUP5 PUSH2 0x3237 JUMP JUMPDEST PUSH1 0x40 DUP1 MLOAD DUP5 DUP2 MSTORE PUSH1 0x1 PUSH1 0x1 PUSH1 0xA0 SHL SUB DUP5 DUP2 AND PUSH1 0x20 DUP4 ADD MSTORE SWAP2 DUP2 ADD DUP4 SWAP1 MSTORE SWAP1 DUP6 AND SWAP1 PUSH32 0x690DAD8812FFF0AB388CBF591E1BD224FD67DD07E6BE8A4929190447CBE10469 SWAP1 PUSH1 0x60 ADD PUSH1 0x40 MLOAD DUP1 SWAP2 SUB SWAP1 LOG2 PUSH2 0x1CA9 JUMP JUMPDEST PUSH1 0x40 DUP1 MLOAD DUP5 DUP2 MSTORE PUSH1 0x0 PUSH1 0x20 DUP3 ADD MSTORE CALLVALUE DUP2 DUP4 ADD MSTORE SWAP1 MLOAD PUSH1 0x1 PUSH1 0x1 PUSH1 0xA0 SHL SUB DUP7 AND SWAP2 PUSH32 0x690DAD8812FFF0AB388CBF591E1BD224FD67DD07E6BE8A4929190447CBE10469 SWAP2 SWAP1 DUP2 SWAP1 SUB PUSH1 0x60 ADD SWAP1 LOG2 JUMPDEST PUSH2 0xAA9 DUP5 DUP5 PUSH2 0x3375 JUMP JUMPDEST PUSH1 0x60 PUSH1 0x0 PUSH1 0x1 PUSH1 0x1 PUSH1 0xA0 SHL SUB DUP5 AND PUSH1 0x1 EQ DUP1 PUSH2 0x1CD3 JUMPI POP PUSH2 0x1CD3 DUP5 PUSH2 0x1188 JUMP JUMPDEST PUSH2 0x1D07 JUMPI PUSH1 0x40 MLOAD PUSH3 0x461BCD PUSH1 0xE5 SHL DUP2 MSTORE PUSH1 0x20 PUSH1 0x4 DUP3 ADD MSTORE PUSH1 0x5 PUSH1 0x24 DUP3 ADD MSTORE PUSH5 0x4753313035 PUSH1 0xD8 SHL PUSH1 0x44 DUP3 ADD MSTORE PUSH1 0x64 ADD PUSH2 0xBB7 JUMP JUMPDEST PUSH1 0x0 DUP4 GT PUSH2 0x1D3F JUMPI PUSH1 0x40 MLOAD PUSH3 0x461BCD PUSH1 0xE5 SHL DUP2 MSTORE PUSH1 0x20 PUSH1 0x4 DUP3 ADD MSTORE PUSH1 0x5 PUSH1 0x24 DUP3 ADD MSTORE PUSH5 0x23A998981B PUSH1 0xD9 SHL PUSH1 0x44 DUP3 ADD MSTORE PUSH1 0x64 ADD PUSH2 0xBB7 JUMP JUMPDEST DUP3 PUSH1 0x1 PUSH1 0x1 PUSH1 0x40 SHL SUB DUP2 GT ISZERO PUSH2 0x1D57 JUMPI PUSH2 0x1D57 PUSH2 0x3639 JUMP JUMPDEST PUSH1 0x40 MLOAD SWAP1 DUP1 DUP3 MSTORE DUP1 PUSH1 0x20 MUL PUSH1 0x20 ADD DUP3 ADD PUSH1 0x40 MSTORE DUP1 ISZERO PUSH2 0x1D80 JUMPI DUP2 PUSH1 0x20 ADD PUSH1 0x20 DUP3 MUL DUP1 CALLDATASIZE DUP4 CALLDATACOPY ADD SWAP1 POP JUMPDEST POP PUSH1 0x1 PUSH1 0x1 PUSH1 0xA0 SHL SUB DUP1 DUP7 AND PUSH1 0x0 SWAP1 DUP2 MSTORE PUSH1 0x1 PUSH1 0x20 MSTORE PUSH1 0x40 DUP2 KECCAK256 SLOAD SWAP3 SWAP5 POP SWAP2 AND SWAP2 POP JUMPDEST PUSH1 0x1 PUSH1 0x1 PUSH1 0xA0 SHL SUB DUP3 AND ISZERO DUP1 ISZERO SWAP1 PUSH2 0x1DC5 JUMPI POP PUSH1 0x1 PUSH1 0x1 PUSH1 0xA0 SHL SUB DUP3 AND PUSH1 0x1 EQ ISZERO JUMPDEST DUP1 ISZERO PUSH2 0x1DD0 JUMPI POP DUP4 DUP2 LT JUMPDEST ISZERO PUSH2 0x1E2B JUMPI DUP2 DUP4 DUP3 DUP2 MLOAD DUP2 LT PUSH2 0x1DE8 JUMPI PUSH2 0x1DE8 PUSH2 0x3D3F JUMP JUMPDEST PUSH1 0x1 PUSH1 0x1 PUSH1 0xA0 SHL SUB SWAP3 DUP4 AND PUSH1 0x20 SWAP2 DUP3 MUL SWAP3 SWAP1 SWAP3 ADD DUP2 ADD SWAP2 SWAP1 SWAP2 MSTORE SWAP3 DUP2 AND PUSH1 0x0 SWAP1 DUP2 MSTORE PUSH1 0x1 SWAP1 SWAP4 MSTORE PUSH1 0x40 SWAP1 SWAP3 KECCAK256 SLOAD SWAP1 SWAP2 AND SWAP1 DUP1 PUSH2 0x1E23 DUP2 PUSH2 0x3DA6 JUMP JUMPDEST SWAP2 POP POP PUSH2 0x1DA3 JUMP JUMPDEST PUSH1 0x1 PUSH1 0x1 PUSH1 0xA0 SHL SUB DUP3 AND PUSH1 0x1 EQ PUSH2 0x1E63 JUMPI DUP3 PUSH2 0x1E48 PUSH1 0x1 DUP4 PUSH2 0x3FE5 JUMP JUMPDEST DUP2 MLOAD DUP2 LT PUSH2 0x1E58 JUMPI PUSH2 0x1E58 PUSH2 0x3D3F JUMP JUMPDEST PUSH1 0x20 MUL PUSH1 0x20 ADD ADD MLOAD SWAP2 POP JUMPDEST DUP1 DUP4 MSTORE POP SWAP3 POP SWAP3 SWAP1 POP JUMP JUMPDEST CALLER PUSH1 0x0 SWAP1 DUP2 MSTORE PUSH1 0x2 PUSH1 0x20 MSTORE PUSH1 0x40 SWAP1 KECCAK256 SLOAD PUSH1 0x1 PUSH1 0x1 PUSH1 0xA0 SHL SUB AND PUSH2 0x1EBB JUMPI PUSH1 0x40 MLOAD PUSH3 0x461BCD PUSH1 0xE5 SHL DUP2 MSTORE PUSH1 0x20 PUSH1 0x4 DUP3 ADD MSTORE PUSH1 0x5 PUSH1 0x24 DUP3 ADD MSTORE PUSH5 0x475330333 PUSH1 0xDC SHL PUSH1 0x44 DUP3 ADD MSTORE PUSH1 0x64 ADD PUSH2 0xBB7 JUMP JUMPDEST CALLER PUSH1 0x0 DUP2 DUP2 MSTORE PUSH1 0x8 PUSH1 0x20 SWAP1 DUP2 MSTORE PUSH1 0x40 DUP1 DUP4 KECCAK256 DUP6 DUP5 MSTORE SWAP1 SWAP2 MSTORE DUP1 DUP3 KECCAK256 PUSH1 0x1 SWAP1 SSTORE MLOAD DUP4 SWAP2 PUSH32 0xF2A0EB156472D1440255B0D7C1E19CC07115D1051FE605B0DCE69ACFEC884D9C SWAP2 LOG3 POP JUMP JUMPDEST PUSH1 0x0 PUSH2 0x1F18 DUP13 DUP13 DUP13 DUP13 DUP13 DUP13 DUP13 DUP13 DUP13 DUP13 DUP13 PUSH2 0x2390 JUMP JUMPDEST DUP1 MLOAD SWAP1 PUSH1 0x20 ADD KECCAK256 SWAP1 POP SWAP12 SWAP11 POP POP POP POP POP POP POP POP POP POP POP JUMP JUMPDEST PUSH1 0x1 PUSH1 0x1 PUSH1 0xA0 SHL SUB SWAP2 DUP3 AND PUSH1 0x0 SWAP1 DUP2 MSTORE PUSH1 0xA PUSH1 0x20 SWAP1 DUP2 MSTORE PUSH1 0x40 DUP1 DUP4 KECCAK256 SWAP4 SWAP1 SWAP5 AND DUP3 MSTORE SWAP2 SWAP1 SWAP2 MSTORE KECCAK256 SLOAD SWAP1 JUMP JUMPDEST PUSH2 0x1F63 PUSH2 0x269C JUMP JUMPDEST PUSH1 0x1 PUSH1 0x1 PUSH1 0xA0 SHL SUB DUP2 AND ISZERO DUP1 ISZERO SWAP1 PUSH2 0x1F85 JUMPI POP PUSH1 0x1 PUSH1 0x1 PUSH1 0xA0 SHL SUB DUP2 AND PUSH1 0x1 EQ ISZERO JUMPDEST PUSH2 0x1FB9 JUMPI PUSH1 0x40 MLOAD PUSH3 0x461BCD PUSH1 0xE5 SHL DUP2 MSTORE PUSH1 0x20 PUSH1 0x4 DUP3 ADD MSTORE PUSH1 0x5 PUSH1 0x24 DUP3 ADD MSTORE PUSH5 0x4753313031 PUSH1 0xD8 SHL PUSH1 0x44 DUP3 ADD MSTORE PUSH1 0x64 ADD PUSH2 0xBB7 JUMP JUMPDEST PUSH1 0x1 PUSH1 0x1 PUSH1 0xA0 SHL SUB DUP3 DUP2 AND PUSH1 0x0 SWAP1 DUP2 MSTORE PUSH1 0x1 PUSH1 0x20 MSTORE PUSH1 0x40 SWAP1 KECCAK256 SLOAD DUP2 AND SWAP1 DUP3 AND EQ PUSH2 0x200D JUMPI PUSH1 0x40 MLOAD PUSH3 0x461BCD PUSH1 0xE5 SHL DUP2 MSTORE PUSH1 0x20 PUSH1 0x4 DUP3 ADD MSTORE PUSH1 0x5 PUSH1 0x24 DUP3 ADD MSTORE PUSH5 0x4753313033 PUSH1 0xD8 SHL PUSH1 0x44 DUP3 ADD MSTORE PUSH1 0x64 ADD PUSH2 0xBB7 JUMP JUMPDEST PUSH1 0x1 PUSH1 0x1 PUSH1 0xA0 SHL SUB DUP2 DUP2 AND PUSH1 0x0 DUP2 DUP2 MSTORE PUSH1 0x1 PUSH1 0x20 SWAP1 DUP2 MSTORE PUSH1 0x40 DUP1 DUP4 KECCAK256 DUP1 SLOAD DUP9 DUP8 AND DUP6 MSTORE DUP3 DUP6 KECCAK256 DUP1 SLOAD SWAP2 SWAP1 SWAP8 AND PUSH1 0x1 PUSH1 0x1 PUSH1 0xA0 SHL SUB NOT SWAP2 DUP3 AND OR SWAP1 SWAP7 SSTORE SWAP3 DUP5 SWAP1 MSTORE DUP3 SLOAD SWAP1 SWAP5 AND SWAP1 SWAP2 SSTORE SWAP2 MLOAD SWAP1 DUP2 MSTORE PUSH32 0xAAB4FA2B463F581B2B32CB3B7E3B704B9CE37CC209B5FB4D77E593ACE4054276 SWAP2 ADD JUMPDEST PUSH1 0x40 MLOAD DUP1 SWAP2 SUB SWAP1 LOG1 POP POP JUMP JUMPDEST PUSH2 0x2092 PUSH2 0x269C JUMP JUMPDEST PUSH1 0x1 PUSH1 0x1 PUSH1 0xA0 SHL SUB DUP2 AND ISZERO PUSH2 0x2144 JUMPI PUSH1 0x40 MLOAD PUSH4 0x1FFC9A7 PUSH1 0xE0 SHL DUP2 MSTORE PUSH4 0x736BD41D PUSH1 0xE1 SHL PUSH1 0x4 DUP3 ADD MSTORE PUSH1 0x1 PUSH1 0x1 PUSH1 0xA0 SHL SUB DUP3 AND SWAP1 PUSH4 0x1FFC9A7 SWAP1 PUSH1 0x24 ADD PUSH1 0x20 PUSH1 0x40 MLOAD DUP1 DUP4 SUB DUP2 DUP7 GAS STATICCALL ISZERO DUP1 ISZERO PUSH2 0x20EC JUMPI RETURNDATASIZE PUSH1 0x0 DUP1 RETURNDATACOPY RETURNDATASIZE PUSH1 0x0 REVERT JUMPDEST POP POP POP POP PUSH1 0x40 MLOAD RETURNDATASIZE PUSH1 0x1F NOT PUSH1 0x1F DUP3 ADD AND DUP3 ADD DUP1 PUSH1 0x40 MSTORE POP DUP2 ADD SWAP1 PUSH2 0x2110 SWAP2 SWAP1 PUSH2 0x4064 JUMP JUMPDEST PUSH2 0x2144 JUMPI PUSH1 0x40 MLOAD PUSH3 0x461BCD PUSH1 0xE5 SHL DUP2 MSTORE PUSH1 0x20 PUSH1 0x4 DUP3 ADD MSTORE PUSH1 0x5 PUSH1 0x24 DUP3 ADD MSTORE PUSH5 0x475333303 PUSH1 0xDC SHL PUSH1 0x44 DUP3 ADD MSTORE PUSH1 0x64 ADD PUSH2 0xBB7 JUMP JUMPDEST PUSH32 0x4A204F620C8C5CCDCA3FD54D003BADD85BA500436A431F0CBDA4F558C93C34C8 DUP2 DUP2 SSTORE PUSH1 0x40 MLOAD PUSH1 0x1 PUSH1 0x1 PUSH1 0xA0 SHL SUB DUP4 AND DUP2 MSTORE PUSH32 0x1151116914515BC0891FF9047A6CB32CF902546F83066499BCF8BA33D2353FA2 SWAP1 PUSH1 0x20 ADD PUSH2 0x207E JUMP JUMPDEST PUSH2 0x21A9 PUSH2 0x269C JUMP JUMPDEST PUSH1 0x1 PUSH1 0x1 PUSH1 0xA0 SHL SUB DUP2 AND ISZERO DUP1 ISZERO SWAP1 PUSH2 0x21CB JUMPI POP PUSH1 0x1 PUSH1 0x1 PUSH1 0xA0 SHL SUB DUP2 AND PUSH1 0x1 EQ ISZERO JUMPDEST DUP1 ISZERO PUSH2 0x21E0 JUMPI POP PUSH1 0x1 PUSH1 0x1 PUSH1 0xA0 SHL SUB DUP2 AND ADDRESS EQ ISZERO JUMPDEST PUSH2 0x21FC JUMPI PUSH1 0x40 MLOAD PUSH3 0x461BCD PUSH1 0xE5 SHL DUP2 MSTORE PUSH1 0x4 ADD PUSH2 0xBB7 SWAP1 PUSH2 0x3DF9 JUMP JUMPDEST PUSH1 0x1 PUSH1 0x1 PUSH1 0xA0 SHL SUB DUP2 DUP2 AND PUSH1 0x0 SWAP1 DUP2 MSTORE PUSH1 0x2 PUSH1 0x20 MSTORE PUSH1 0x40 SWAP1 KECCAK256 SLOAD AND ISZERO PUSH2 0x2234 JUMPI PUSH1 0x40 MLOAD PUSH3 0x461BCD PUSH1 0xE5 SHL DUP2 MSTORE PUSH1 0x4 ADD PUSH2 0xBB7 SWAP1 PUSH2 0x3E18 JUMP JUMPDEST PUSH1 0x1 PUSH1 0x1 PUSH1 0xA0 SHL SUB DUP3 AND ISZERO DUP1 ISZERO SWAP1 PUSH2 0x2256 JUMPI POP PUSH1 0x1 PUSH1 0x1 PUSH1 0xA0 SHL SUB DUP3 AND PUSH1 0x1 EQ ISZERO JUMPDEST PUSH2 0x2272 JUMPI PUSH1 0x40 MLOAD PUSH3 0x461BCD PUSH1 0xE5 SHL DUP2 MSTORE PUSH1 0x4 ADD PUSH2 0xBB7 SWAP1 PUSH2 0x3DF9 JUMP JUMPDEST PUSH1 0x1 PUSH1 0x1 PUSH1 0xA0 SHL SUB DUP4 DUP2 AND PUSH1 0x0 SWAP1 DUP2 MSTORE PUSH1 0x2 PUSH1 0x20 MSTORE PUSH1 0x40 SWAP1 KECCAK256 SLOAD DUP2 AND SWAP1 DUP4 AND EQ PUSH2 0x22C6 JUMPI PUSH1 0x40 MLOAD PUSH3 0x461BCD PUSH1 0xE5 SHL DUP2 MSTORE PUSH1 0x20 PUSH1 0x4 DUP3 ADD MSTORE PUSH1 0x5 PUSH1 0x24 DUP3 ADD MSTORE PUSH5 0x4753323035 PUSH1 0xD8 SHL PUSH1 0x44 DUP3 ADD MSTORE PUSH1 0x64 ADD PUSH2 0xBB7 JUMP JUMPDEST PUSH1 0x1 PUSH1 0x1 PUSH1 0xA0 SHL SUB DUP3 DUP2 AND PUSH1 0x0 DUP2 DUP2 MSTORE PUSH1 0x2 PUSH1 0x20 SWAP1 DUP2 MSTORE PUSH1 0x40 DUP1 DUP4 KECCAK256 DUP1 SLOAD DUP8 DUP8 AND DUP1 DUP7 MSTORE DUP4 DUP7 KECCAK256 DUP1 SLOAD SWAP3 DUP10 AND PUSH1 0x1 PUSH1 0x1 PUSH1 0xA0 SHL SUB NOT SWAP4 DUP5 AND OR SWAP1 SSTORE SWAP7 DUP11 AND DUP6 MSTORE DUP3 DUP6 KECCAK256 DUP1 SLOAD DUP3 AND SWAP1 SWAP8 OR SWAP1 SWAP7 SSTORE SWAP3 DUP5 SWAP1 MSTORE DUP3 SLOAD SWAP1 SWAP5 AND SWAP1 SWAP2 SSTORE SWAP2 MLOAD SWAP1 DUP2 MSTORE PUSH32 0xF8D49FC529812E9A7C5C50E69C20F0DCCC0DB8FA95C98BC58CC9A4F1C1299EAF SWAP2 ADD PUSH1 0x40 MLOAD DUP1 SWAP2 SUB SWAP1 LOG1 PUSH1 0x40 MLOAD PUSH1 0x1 PUSH1 0x1 PUSH1 0xA0 SHL SUB DUP3 AND DUP2 MSTORE PUSH32 0x9465FA0C962CC76958E6373A993326400C1C94F8BE2FE3A952ADFA7F60B2EA26 SWAP1 PUSH1 0x20 ADD PUSH1 0x40 MLOAD DUP1 SWAP2 SUB SWAP1 LOG1 POP POP POP JUMP JUMPDEST PUSH1 0x60 PUSH1 0x0 PUSH32 0xBB8310D486368DB6BD6F849402FDD73AD53D316B5A4B2644AD6EFE0F941286D8 PUSH1 0x0 SHL DUP14 DUP14 DUP14 DUP14 PUSH1 0x40 MLOAD PUSH2 0x23CA SWAP3 SWAP2 SWAP1 PUSH2 0x4086 JUMP JUMPDEST PUSH1 0x40 MLOAD SWAP1 DUP2 SWAP1 SUB DUP2 KECCAK256 PUSH2 0x23F0 SWAP5 SWAP4 SWAP3 SWAP2 DUP15 SWAP1 DUP15 SWAP1 DUP15 SWAP1 DUP15 SWAP1 DUP15 SWAP1 DUP15 SWAP1 DUP15 SWAP1 PUSH1 0x20 ADD PUSH2 0x4096 JUMP JUMPDEST PUSH1 0x40 DUP1 MLOAD PUSH1 0x1F NOT DUP2 DUP5 SUB ADD DUP2 MSTORE SWAP2 SWAP1 MSTORE DUP1 MLOAD PUSH1 0x20 SWAP1 SWAP2 ADD KECCAK256 SWAP1 POP PUSH1 0x19 PUSH1 0xF8 SHL PUSH1 0x1 PUSH1 0xF8 SHL PUSH2 0x241C PUSH2 0x24D2 JUMP JUMPDEST PUSH1 0x40 MLOAD PUSH1 0x1 PUSH1 0x1 PUSH1 0xF8 SHL SUB NOT SWAP4 DUP5 AND PUSH1 0x20 DUP3 ADD MSTORE SWAP3 SWAP1 SWAP2 AND PUSH1 0x21 DUP4 ADD MSTORE PUSH1 0x22 DUP3 ADD MSTORE PUSH1 0x42 DUP2 ADD DUP3 SWAP1 MSTORE PUSH1 0x62 ADD PUSH1 0x40 MLOAD PUSH1 0x20 DUP2 DUP4 SUB SUB DUP2 MSTORE SWAP1 PUSH1 0x40 MSTORE SWAP2 POP POP SWAP12 SWAP11 POP POP POP POP POP POP POP POP POP POP POP JUMP JUMPDEST PUSH2 0x2471 PUSH2 0x269C JUMP JUMPDEST PUSH2 0x2499 DUP2 PUSH32 0x6C9A6C4A39284E37ED1CF53D337577D14212A4870FB976A4366C693B939918D5 SSTORE JUMP JUMPDEST PUSH1 0x40 MLOAD PUSH1 0x1 PUSH1 0x1 PUSH1 0xA0 SHL SUB DUP3 AND DUP2 MSTORE PUSH32 0x5AC6C46C93C8D0E53714BA3B53DB3E7C046DA994313D7ED0D192028BC7C228B0 SWAP1 PUSH1 0x20 ADD PUSH2 0x14E5 JUMP JUMPDEST PUSH1 0x0 PUSH32 0x47E79534A245952E8B16893A336B85A3D9EA9FA8C573F3D803AFB92A79469218 CHAINID PUSH1 0x40 DUP1 MLOAD PUSH1 0x20 DUP2 ADD SWAP4 SWAP1 SWAP4 MSTORE DUP3 ADD MSTORE ADDRESS PUSH1 0x60 DUP3 ADD MSTORE PUSH1 0x80 ADD PUSH1 0x40 MLOAD PUSH1 0x20 DUP2 DUP4 SUB SUB DUP2 MSTORE SWAP1 PUSH1 0x40 MSTORE DUP1 MLOAD SWAP1 PUSH1 0x20 ADD KECCAK256 SWAP1 POP SWAP1 JUMP JUMPDEST PUSH2 0x2531 PUSH2 0x269C JUMP JUMPDEST DUP1 PUSH1 0x1 PUSH1 0x3 SLOAD PUSH2 0x2541 SWAP2 SWAP1 PUSH2 0x3FE5 JUMP JUMPDEST LT ISZERO PUSH2 0x255F JUMPI PUSH1 0x40 MLOAD PUSH3 0x461BCD PUSH1 0xE5 SHL DUP2 MSTORE PUSH1 0x4 ADD PUSH2 0xBB7 SWAP1 PUSH2 0x3EC9 JUMP JUMPDEST PUSH1 0x1 PUSH1 0x1 PUSH1 0xA0 SHL SUB DUP3 AND ISZERO DUP1 ISZERO SWAP1 PUSH2 0x2581 JUMPI POP PUSH1 0x1 PUSH1 0x1 PUSH1 0xA0 SHL SUB DUP3 AND PUSH1 0x1 EQ ISZERO JUMPDEST PUSH2 0x259D JUMPI PUSH1 0x40 MLOAD PUSH3 0x461BCD PUSH1 0xE5 SHL DUP2 MSTORE PUSH1 0x4 ADD PUSH2 0xBB7 SWAP1 PUSH2 0x3DF9 JUMP JUMPDEST PUSH1 0x1 PUSH1 0x1 PUSH1 0xA0 SHL SUB DUP4 DUP2 AND PUSH1 0x0 SWAP1 DUP2 MSTORE PUSH1 0x2 PUSH1 0x20 MSTORE PUSH1 0x40 SWAP1 KECCAK256 SLOAD DUP2 AND SWAP1 DUP4 AND EQ PUSH2 0x25F1 JUMPI PUSH1 0x40 MLOAD PUSH3 0x461BCD PUSH1 0xE5 SHL DUP2 MSTORE PUSH1 0x20 PUSH1 0x4 DUP3 ADD MSTORE PUSH1 0x5 PUSH1 0x24 DUP3 ADD MSTORE PUSH5 0x4753323035 PUSH1 0xD8 SHL PUSH1 0x44 DUP3 ADD MSTORE PUSH1 0x64 ADD PUSH2 0xBB7 JUMP JUMPDEST PUSH1 0x1 PUSH1 0x1 PUSH1 0xA0 SHL SUB DUP3 DUP2 AND PUSH1 0x0 DUP2 DUP2 MSTORE PUSH1 0x2 PUSH1 0x20 MSTORE PUSH1 0x40 DUP1 DUP3 KECCAK256 DUP1 SLOAD DUP9 DUP7 AND DUP5 MSTORE SWAP2 DUP4 KECCAK256 DUP1 SLOAD SWAP3 SWAP1 SWAP6 AND PUSH1 0x1 PUSH1 0x1 PUSH1 0xA0 SHL SUB NOT SWAP3 DUP4 AND OR SWAP1 SWAP5 SSTORE SWAP2 DUP2 MSTORE DUP3 SLOAD SWAP1 SWAP2 AND SWAP1 SWAP2 SSTORE PUSH1 0x3 DUP1 SLOAD SWAP2 PUSH2 0x2644 DUP4 PUSH2 0x4105 JUMP JUMPDEST SWAP1 SWAP2 SSTORE POP POP PUSH1 0x40 MLOAD PUSH1 0x1 PUSH1 0x1 PUSH1 0xA0 SHL SUB DUP4 AND DUP2 MSTORE PUSH32 0xF8D49FC529812E9A7C5C50E69C20F0DCCC0DB8FA95C98BC58CC9A4F1C1299EAF SWAP1 PUSH1 0x20 ADD PUSH1 0x40 MLOAD DUP1 SWAP2 SUB SWAP1 LOG1 DUP1 PUSH1 0x4 SLOAD EQ PUSH2 0x2697 JUMPI PUSH2 0x2697 DUP2 PUSH2 0x14F0 JUMP JUMPDEST POP POP POP JUMP JUMPDEST CALLER ADDRESS EQ PUSH2 0x26D3 JUMPI PUSH1 0x40 MLOAD PUSH3 0x461BCD PUSH1 0xE5 SHL DUP2 MSTORE PUSH1 0x20 PUSH1 0x4 DUP3 ADD MSTORE PUSH1 0x5 PUSH1 0x24 DUP3 ADD MSTORE PUSH5 0x4753303331 PUSH1 0xD8 SHL PUSH1 0x44 DUP3 ADD MSTORE PUSH1 0x64 ADD PUSH2 0xBB7 JUMP JUMPDEST JUMP JUMPDEST PUSH1 0x0 DUP3 PUSH1 0x0 SUB PUSH2 0x26E7 JUMPI POP PUSH1 0x0 PUSH2 0xB56 JUMP JUMPDEST PUSH1 0x0 PUSH2 0x26F3 DUP4 DUP6 PUSH2 0x3EB2 JUMP JUMPDEST SWAP1 POP DUP3 PUSH2 0x2700 DUP6 DUP4 PUSH2 0x3D84 JUMP JUMPDEST EQ PUSH2 0x270A JUMPI PUSH1 0x0 DUP1 REVERT JUMPDEST SWAP4 SWAP3 POP POP POP JUMP JUMPDEST PUSH1 0x40 DUP1 MLOAD PUSH1 0x1 PUSH1 0x1 PUSH1 0xA0 SHL SUB DUP5 DUP2 AND PUSH1 0x24 DUP4 ADD MSTORE PUSH1 0x44 DUP1 DUP4 ADD DUP6 SWAP1 MSTORE DUP4 MLOAD DUP1 DUP5 SUB SWAP1 SWAP2 ADD DUP2 MSTORE PUSH1 0x64 SWAP1 SWAP3 ADD DUP4 MSTORE PUSH1 0x20 DUP3 ADD DUP1 MLOAD PUSH1 0x1 PUSH1 0x1 PUSH1 0xE0 SHL SUB AND PUSH4 0xA9059CBB PUSH1 0xE0 SHL OR SWAP1 MSTORE SWAP2 MLOAD PUSH1 0x0 SWAP3 DUP4 SWAP3 SWAP1 DUP8 AND SWAP2 PUSH2 0x276D SWAP2 SWAP1 PUSH2 0x411C JUMP JUMPDEST PUSH1 0x0 PUSH1 0x40 MLOAD DUP1 DUP4 SUB DUP2 PUSH1 0x0 DUP7 GAS CALL SWAP2 POP POP RETURNDATASIZE DUP1 PUSH1 0x0 DUP2 EQ PUSH2 0x27AA JUMPI PUSH1 0x40 MLOAD SWAP2 POP PUSH1 0x1F NOT PUSH1 0x3F RETURNDATASIZE ADD AND DUP3 ADD PUSH1 0x40 MSTORE RETURNDATASIZE DUP3 MSTORE RETURNDATASIZE PUSH1 0x0 PUSH1 0x20 DUP5 ADD RETURNDATACOPY PUSH2 0x27AF JUMP JUMPDEST PUSH1 0x60 SWAP2 POP JUMPDEST POP SWAP2 POP SWAP2 POP DUP2 DUP1 ISZERO PUSH2 0x27D9 JUMPI POP DUP1 MLOAD ISZERO DUP1 PUSH2 0x27D9 JUMPI POP DUP1 DUP1 PUSH1 0x20 ADD SWAP1 MLOAD DUP2 ADD SWAP1 PUSH2 0x27D9 SWAP2 SWAP1 PUSH2 0x4064 JUMP JUMPDEST PUSH2 0xAA9 JUMPI PUSH1 0x40 MLOAD PUSH3 0x461BCD PUSH1 0xE5 SHL DUP2 MSTORE PUSH1 0x20 PUSH1 0x4 DUP3 ADD MSTORE PUSH1 0x2D PUSH1 0x24 DUP3 ADD MSTORE PUSH32 0x5472616E7366657248656C7065723A3A736166655472616E736665723A207472 PUSH1 0x44 DUP3 ADD MSTORE PUSH13 0x185B9CD9995C8819985A5B1959 PUSH1 0x9A SHL PUSH1 0x64 DUP3 ADD MSTORE PUSH1 0x84 ADD PUSH2 0xBB7 JUMP JUMPDEST PUSH1 0x40 DUP1 MLOAD PUSH1 0x0 DUP1 DUP3 MSTORE PUSH1 0x20 DUP3 ADD SWAP1 SWAP3 MSTORE PUSH1 0x1 PUSH1 0x1 PUSH1 0xA0 SHL SUB DUP5 AND SWAP1 DUP4 SWAP1 PUSH1 0x40 MLOAD PUSH2 0x2865 SWAP2 SWAP1 PUSH2 0x411C JUMP JUMPDEST PUSH1 0x0 PUSH1 0x40 MLOAD DUP1 DUP4 SUB DUP2 DUP6 DUP8 GAS CALL SWAP3 POP POP POP RETURNDATASIZE DUP1 PUSH1 0x0 DUP2 EQ PUSH2 0x28A2 JUMPI PUSH1 0x40 MLOAD SWAP2 POP PUSH1 0x1F NOT PUSH1 0x3F RETURNDATASIZE ADD AND DUP3 ADD PUSH1 0x40 MSTORE RETURNDATASIZE DUP3 MSTORE RETURNDATASIZE PUSH1 0x0 PUSH1 0x20 DUP5 ADD RETURNDATACOPY PUSH2 0x28A7 JUMP JUMPDEST PUSH1 0x60 SWAP2 POP JUMPDEST POP POP SWAP1 POP DUP1 PUSH2 0x2697 JUMPI PUSH1 0x40 MLOAD PUSH3 0x461BCD PUSH1 0xE5 SHL DUP2 MSTORE PUSH1 0x20 PUSH1 0x4 DUP3 ADD MSTORE PUSH1 0x34 PUSH1 0x24 DUP3 ADD MSTORE PUSH32 0x5472616E7366657248656C7065723A3A736166655472616E736665724554483A PUSH1 0x44 DUP3 ADD MSTORE PUSH20 0x8115512081D1C985B9CD9995C8819985A5B1959 PUSH1 0x62 SHL PUSH1 0x64 DUP3 ADD MSTORE PUSH1 0x84 ADD PUSH2 0xBB7 JUMP JUMPDEST PUSH1 0x1 PUSH1 0x1 PUSH1 0xA0 SHL SUB DUP3 AND PUSH2 0x2975 JUMPI PUSH1 0x40 MLOAD PUSH3 0x461BCD PUSH1 0xE5 SHL DUP2 MSTORE PUSH1 0x20 PUSH1 0x4 DUP3 ADD MSTORE PUSH1 0x21 PUSH1 0x24 DUP3 ADD MSTORE PUSH32 0x45524332303A206275726E2066726F6D20746865207A65726F20616464726573 PUSH1 0x44 DUP3 ADD MSTORE PUSH1 0x73 PUSH1 0xF8 SHL PUSH1 0x64 DUP3 ADD MSTORE PUSH1 0x84 ADD PUSH2 0xBB7 JUMP JUMPDEST PUSH1 0x1 PUSH1 0x1 PUSH1 0xA0 SHL SUB DUP3 AND PUSH1 0x0 SWAP1 DUP2 MSTORE PUSH1 0x9 PUSH1 0x20 MSTORE PUSH1 0x40 SWAP1 KECCAK256 SLOAD DUP2 DUP2 LT ISZERO PUSH2 0x29E9 JUMPI PUSH1 0x40 MLOAD PUSH3 0x461BCD PUSH1 0xE5 SHL DUP2 MSTORE PUSH1 0x20 PUSH1 0x4 DUP3 ADD MSTORE PUSH1 0x22 PUSH1 0x24 DUP3 ADD MSTORE PUSH32 0x45524332303A206275726E20616D6F756E7420657863656564732062616C616E PUSH1 0x44 DUP3 ADD MSTORE PUSH2 0x6365 PUSH1 0xF0 SHL PUSH1 0x64 DUP3 ADD MSTORE PUSH1 0x84 ADD PUSH2 0xBB7 JUMP JUMPDEST PUSH1 0x1 PUSH1 0x1 PUSH1 0xA0 SHL SUB DUP4 AND PUSH1 0x0 DUP2 DUP2 MSTORE PUSH1 0x9 PUSH1 0x20 SWAP1 DUP2 MSTORE PUSH1 0x40 DUP1 DUP4 KECCAK256 DUP7 DUP7 SUB SWAP1 SSTORE PUSH1 0xB DUP1 SLOAD DUP8 SWAP1 SUB SWAP1 SSTORE MLOAD DUP6 DUP2 MSTORE SWAP2 SWAP3 SWAP2 PUSH32 0xDDF252AD1BE2C89B69C2B068FC378DAA952BA7F163C4A11628F55A4DF523B3EF SWAP2 ADD PUSH1 0x40 MLOAD DUP1 SWAP2 SUB SWAP1 LOG3 POP POP POP JUMP JUMPDEST PUSH1 0x1 PUSH1 0x1 PUSH1 0xA0 SHL SUB DUP4 AND PUSH2 0x2AAB JUMPI PUSH1 0x40 MLOAD PUSH3 0x461BCD PUSH1 0xE5 SHL DUP2 MSTORE PUSH1 0x20 PUSH1 0x4 DUP3 ADD MSTORE PUSH1 0x24 DUP1 DUP3 ADD MSTORE PUSH32 0x45524332303A20617070726F76652066726F6D20746865207A65726F20616464 PUSH1 0x44 DUP3 ADD MSTORE PUSH4 0x72657373 PUSH1 0xE0 SHL PUSH1 0x64 DUP3 ADD MSTORE PUSH1 0x84 ADD PUSH2 0xBB7 JUMP JUMPDEST PUSH1 0x1 PUSH1 0x1 PUSH1 0xA0 SHL SUB DUP3 AND PUSH2 0x2B0C JUMPI PUSH1 0x40 MLOAD PUSH3 0x461BCD PUSH1 0xE5 SHL DUP2 MSTORE PUSH1 0x20 PUSH1 0x4 DUP3 ADD MSTORE PUSH1 0x22 PUSH1 0x24 DUP3 ADD MSTORE PUSH32 0x45524332303A20617070726F766520746F20746865207A65726F206164647265 PUSH1 0x44 DUP3 ADD MSTORE PUSH2 0x7373 PUSH1 0xF0 SHL PUSH1 0x64 DUP3 ADD MSTORE PUSH1 0x84 ADD PUSH2 0xBB7 JUMP JUMPDEST PUSH1 0x1 PUSH1 0x1 PUSH1 0xA0 SHL SUB DUP4 DUP2 AND PUSH1 0x0 DUP2 DUP2 MSTORE PUSH1 0xA PUSH1 0x20 SWAP1 DUP2 MSTORE PUSH1 0x40 DUP1 DUP4 KECCAK256 SWAP5 DUP8 AND DUP1 DUP5 MSTORE SWAP5 DUP3 MSTORE SWAP2 DUP3 SWAP1 KECCAK256 DUP6 SWAP1 SSTORE SWAP1 MLOAD DUP5 DUP2 MSTORE PUSH32 0x8C5BE1E5EBEC7D5BD14F71427D1E84F3DD0314C0F7B2291E5B200AC8C7C3B925 SWAP2 ADD PUSH1 0x40 MLOAD DUP1 SWAP2 SUB SWAP1 LOG3 POP POP POP JUMP JUMPDEST PUSH1 0x0 DUP1 PUSH2 0x2B7A DUP4 DUP6 PUSH2 0x3E9F JUMP JUMPDEST SWAP1 POP DUP4 DUP2 LT ISZERO PUSH2 0x270A JUMPI PUSH1 0x0 DUP1 REVERT JUMPDEST PUSH1 0x0 PUSH2 0x2B95 DUP5 DUP5 PUSH2 0x1F30 JUMP JUMPDEST SWAP1 POP PUSH1 0x0 NOT DUP2 EQ PUSH2 0x1915 JUMPI DUP2 DUP2 LT ISZERO PUSH2 0x2BF0 JUMPI PUSH1 0x40 MLOAD PUSH3 0x461BCD PUSH1 0xE5 SHL DUP2 MSTORE PUSH1 0x20 PUSH1 0x4 DUP3 ADD MSTORE PUSH1 0x1D PUSH1 0x24 DUP3 ADD MSTORE PUSH32 0x45524332303A20696E73756666696369656E7420616C6C6F77616E6365000000 PUSH1 0x44 DUP3 ADD MSTORE PUSH1 0x64 ADD PUSH2 0xBB7 JUMP JUMPDEST PUSH2 0x1915 DUP5 DUP5 DUP5 DUP5 SUB PUSH2 0x2A49 JUMP JUMPDEST PUSH1 0x1 PUSH1 0x1 PUSH1 0xA0 SHL SUB DUP4 AND PUSH2 0x2C61 JUMPI PUSH1 0x40 MLOAD PUSH3 0x461BCD PUSH1 0xE5 SHL DUP2 MSTORE PUSH1 0x20 PUSH1 0x4 DUP3 ADD MSTORE PUSH1 0x25 PUSH1 0x24 DUP3 ADD MSTORE PUSH32 0x45524332303A207472616E736665722066726F6D20746865207A65726F206164 PUSH1 0x44 DUP3 ADD MSTORE PUSH5 0x6472657373 PUSH1 0xD8 SHL PUSH1 0x64 DUP3 ADD MSTORE PUSH1 0x84 ADD PUSH2 0xBB7 JUMP JUMPDEST PUSH1 0x1 PUSH1 0x1 PUSH1 0xA0 SHL SUB DUP3 AND PUSH2 0x2CC3 JUMPI PUSH1 0x40 MLOAD PUSH3 0x461BCD PUSH1 0xE5 SHL DUP2 MSTORE PUSH1 0x20 PUSH1 0x4 DUP3 ADD MSTORE PUSH1 0x23 PUSH1 0x24 DUP3 ADD MSTORE PUSH32 0x45524332303A207472616E7366657220746F20746865207A65726F2061646472 PUSH1 0x44 DUP3 ADD MSTORE PUSH3 0x657373 PUSH1 0xE8 SHL PUSH1 0x64 DUP3 ADD MSTORE PUSH1 0x84 ADD PUSH2 0xBB7 JUMP JUMPDEST PUSH1 0x1 PUSH1 0x1 PUSH1 0xA0 SHL SUB DUP4 AND PUSH1 0x0 SWAP1 DUP2 MSTORE PUSH1 0x9 PUSH1 0x20 MSTORE PUSH1 0x40 SWAP1 KECCAK256 SLOAD DUP2 DUP2 LT ISZERO PUSH2 0x2D3B JUMPI PUSH1 0x40 MLOAD PUSH3 0x461BCD PUSH1 0xE5 SHL DUP2 MSTORE PUSH1 0x20 PUSH1 0x4 DUP3 ADD MSTORE PUSH1 0x26 PUSH1 0x24 DUP3 ADD MSTORE PUSH32 0x45524332303A207472616E7366657220616D6F756E7420657863656564732062 PUSH1 0x44 DUP3 ADD MSTORE PUSH6 0x616C616E6365 PUSH1 0xD0 SHL PUSH1 0x64 DUP3 ADD MSTORE PUSH1 0x84 ADD PUSH2 0xBB7 JUMP JUMPDEST PUSH1 0x1 PUSH1 0x1 PUSH1 0xA0 SHL SUB DUP1 DUP6 AND PUSH1 0x0 DUP2 DUP2 MSTORE PUSH1 0x9 PUSH1 0x20 MSTORE PUSH1 0x40 DUP1 DUP3 KECCAK256 DUP7 DUP7 SUB SWAP1 SSTORE SWAP3 DUP7 AND DUP1 DUP3 MSTORE SWAP1 DUP4 SWAP1 KECCAK256 DUP1 SLOAD DUP7 ADD SWAP1 SSTORE SWAP2 MLOAD PUSH32 0xDDF252AD1BE2C89B69C2B068FC378DAA952BA7F163C4A11628F55A4DF523B3EF SWAP1 PUSH2 0x2D9B SWAP1 DUP7 DUP2 MSTORE PUSH1 0x20 ADD SWAP1 JUMP JUMPDEST PUSH1 0x40 MLOAD DUP1 SWAP2 SUB SWAP1 LOG3 PUSH2 0x1915 JUMP JUMPDEST PUSH1 0x0 PUSH1 0x1 DUP4 PUSH1 0x1 DUP2 GT ISZERO PUSH2 0x2DBE JUMPI PUSH2 0x2DBE PUSH2 0x3EE8 JUMP JUMPDEST SUB PUSH2 0x2DD6 JUMPI PUSH1 0x0 DUP1 DUP6 MLOAD PUSH1 0x20 DUP8 ADD DUP10 DUP7 DELEGATECALL SWAP1 POP PUSH2 0x2DE6 JUMP JUMPDEST PUSH1 0x0 DUP1 DUP6 MLOAD PUSH1 0x20 DUP8 ADD DUP9 DUP11 DUP8 CALL SWAP1 POP JUMPDEST SWAP6 SWAP5 POP POP POP POP POP JUMP JUMPDEST PUSH1 0x0 DUP2 DUP4 LT ISZERO PUSH2 0x2DFF JUMPI DUP2 PUSH2 0x270A JUMP JUMPDEST POP SWAP1 SWAP2 SWAP1 POP JUMP JUMPDEST PUSH1 0x0 DUP3 DUP3 GT ISZERO PUSH2 0x2E15 JUMPI PUSH1 0x0 DUP1 REVERT JUMPDEST PUSH1 0x0 PUSH2 0x12EB DUP4 DUP6 PUSH2 0x3FE5 JUMP JUMPDEST PUSH1 0x0 DUP1 PUSH1 0x1 PUSH1 0x1 PUSH1 0xA0 SHL SUB DUP4 AND ISZERO PUSH2 0x2E39 JUMPI DUP3 PUSH2 0x2E3B JUMP JUMPDEST ORIGIN JUMPDEST SWAP1 POP PUSH1 0x1 PUSH1 0x1 PUSH1 0xA0 SHL SUB DUP5 AND PUSH2 0x2EC8 JUMPI PUSH2 0x2E67 GASPRICE DUP7 LT PUSH2 0x2E5B JUMPI GASPRICE PUSH2 0x2E5D JUMP JUMPDEST DUP6 JUMPDEST PUSH2 0xA09 DUP10 DUP10 PUSH2 0x2B6D JUMP JUMPDEST PUSH1 0x40 MLOAD SWAP1 SWAP3 POP PUSH1 0x1 PUSH1 0x1 PUSH1 0xA0 SHL SUB DUP3 AND SWAP1 DUP4 ISZERO PUSH2 0x8FC MUL SWAP1 DUP5 SWAP1 PUSH1 0x0 DUP2 DUP2 DUP2 DUP6 DUP9 DUP9 CALL SWAP4 POP POP POP POP PUSH2 0x2EC3 JUMPI PUSH1 0x40 MLOAD PUSH3 0x461BCD PUSH1 0xE5 SHL DUP2 MSTORE PUSH1 0x20 PUSH1 0x4 DUP3 ADD MSTORE PUSH1 0x5 PUSH1 0x24 DUP3 ADD MSTORE PUSH5 0x4753303131 PUSH1 0xD8 SHL PUSH1 0x44 DUP3 ADD MSTORE PUSH1 0x64 ADD PUSH2 0xBB7 JUMP JUMPDEST PUSH2 0x2F17 JUMP JUMPDEST PUSH2 0x2ED6 DUP6 PUSH2 0xA09 DUP10 DUP10 PUSH2 0x2B6D JUMP JUMPDEST SWAP2 POP PUSH2 0x2EE3 DUP5 DUP3 DUP5 PUSH2 0x3436 JUMP JUMPDEST PUSH2 0x2F17 JUMPI PUSH1 0x40 MLOAD PUSH3 0x461BCD PUSH1 0xE5 SHL DUP2 MSTORE PUSH1 0x20 PUSH1 0x4 DUP3 ADD MSTORE PUSH1 0x5 PUSH1 0x24 DUP3 ADD MSTORE PUSH5 0x23A9981899 PUSH1 0xD9 SHL PUSH1 0x44 DUP3 ADD MSTORE PUSH1 0x64 ADD PUSH2 0xBB7 JUMP JUMPDEST POP SWAP6 SWAP5 POP POP POP POP POP JUMP JUMPDEST PUSH1 0x4 SLOAD ISZERO PUSH2 0x2F59 JUMPI PUSH1 0x40 MLOAD PUSH3 0x461BCD PUSH1 0xE5 SHL DUP2 MSTORE PUSH1 0x20 PUSH1 0x4 DUP3 ADD MSTORE PUSH1 0x5 PUSH1 0x24 DUP3 ADD MSTORE PUSH5 0x475332303 PUSH1 0xDC SHL PUSH1 0x44 DUP3 ADD MSTORE PUSH1 0x64 ADD PUSH2 0xBB7 JUMP JUMPDEST DUP2 MLOAD DUP2 GT ISZERO PUSH2 0x2F7A JUMPI PUSH1 0x40 MLOAD PUSH3 0x461BCD PUSH1 0xE5 SHL DUP2 MSTORE PUSH1 0x4 ADD PUSH2 0xBB7 SWAP1 PUSH2 0x3EC9 JUMP JUMPDEST PUSH1 0x1 DUP2 LT ISZERO PUSH2 0x2FB3 JUMPI PUSH1 0x40 MLOAD PUSH3 0x461BCD PUSH1 0xE5 SHL DUP2 MSTORE PUSH1 0x20 PUSH1 0x4 DUP3 ADD MSTORE PUSH1 0x5 PUSH1 0x24 DUP3 ADD MSTORE PUSH5 0x23A9991819 PUSH1 0xD9 SHL PUSH1 0x44 DUP3 ADD MSTORE PUSH1 0x64 ADD PUSH2 0xBB7 JUMP JUMPDEST PUSH1 0x1 PUSH1 0x0 JUMPDEST DUP4 MLOAD DUP2 LT ISZERO PUSH2 0x30D4 JUMPI PUSH1 0x0 DUP5 DUP3 DUP2 MLOAD DUP2 LT PUSH2 0x2FD5 JUMPI PUSH2 0x2FD5 PUSH2 0x3D3F JUMP JUMPDEST PUSH1 0x20 MUL PUSH1 0x20 ADD ADD MLOAD SWAP1 POP PUSH1 0x0 PUSH1 0x1 PUSH1 0x1 PUSH1 0xA0 SHL SUB AND DUP2 PUSH1 0x1 PUSH1 0x1 PUSH1 0xA0 SHL SUB AND EQ ISZERO DUP1 ISZERO PUSH2 0x300C JUMPI POP PUSH1 0x1 PUSH1 0x1 PUSH1 0xA0 SHL SUB DUP2 AND PUSH1 0x1 EQ ISZERO JUMPDEST DUP1 ISZERO PUSH2 0x3021 JUMPI POP PUSH1 0x1 PUSH1 0x1 PUSH1 0xA0 SHL SUB DUP2 AND ADDRESS EQ ISZERO JUMPDEST DUP1 ISZERO PUSH2 0x303F JUMPI POP DUP1 PUSH1 0x1 PUSH1 0x1 PUSH1 0xA0 SHL SUB AND DUP4 PUSH1 0x1 PUSH1 0x1 PUSH1 0xA0 SHL SUB AND EQ ISZERO JUMPDEST PUSH2 0x305B JUMPI PUSH1 0x40 MLOAD PUSH3 0x461BCD PUSH1 0xE5 SHL DUP2 MSTORE PUSH1 0x4 ADD PUSH2 0xBB7 SWAP1 PUSH2 0x3DF9 JUMP JUMPDEST PUSH1 0x1 PUSH1 0x1 PUSH1 0xA0 SHL SUB DUP2 DUP2 AND PUSH1 0x0 SWAP1 DUP2 MSTORE PUSH1 0x2 PUSH1 0x20 MSTORE PUSH1 0x40 SWAP1 KECCAK256 SLOAD AND ISZERO PUSH2 0x3093 JUMPI PUSH1 0x40 MLOAD PUSH3 0x461BCD PUSH1 0xE5 SHL DUP2 MSTORE PUSH1 0x4 ADD PUSH2 0xBB7 SWAP1 PUSH2 0x3E18 JUMP JUMPDEST PUSH1 0x1 PUSH1 0x1 PUSH1 0xA0 SHL SUB SWAP3 DUP4 AND PUSH1 0x0 SWAP1 DUP2 MSTORE PUSH1 0x2 PUSH1 0x20 MSTORE PUSH1 0x40 SWAP1 KECCAK256 DUP1 SLOAD PUSH1 0x1 PUSH1 0x1 PUSH1 0xA0 SHL SUB NOT AND SWAP4 DUP3 AND SWAP4 SWAP1 SWAP4 OR SWAP1 SWAP3 SSTORE DUP1 PUSH2 0x30CC DUP2 PUSH2 0x3DA6 JUMP JUMPDEST SWAP2 POP POP PUSH2 0x2FB8 JUMP JUMPDEST POP PUSH1 0x1 PUSH1 0x1 PUSH1 0xA0 SHL SUB AND PUSH1 0x0 SWAP1 DUP2 MSTORE PUSH1 0x2 PUSH1 0x20 MSTORE PUSH1 0x40 SWAP1 KECCAK256 DUP1 SLOAD PUSH1 0x1 PUSH1 0x1 PUSH1 0xA0 SHL SUB NOT AND PUSH1 0x1 OR SWAP1 SSTORE SWAP1 MLOAD PUSH1 0x3 SSTORE PUSH1 0x4 SSTORE JUMP JUMPDEST PUSH1 0x1 PUSH1 0x0 DUP2 SWAP1 MSTORE PUSH1 0x20 MSTORE PUSH32 0xCC69885FDA6BCC1A4ACE058B4A62BF5E179EA78FD58A1CCD71C22CC9B688792F SLOAD PUSH1 0x1 PUSH1 0x1 PUSH1 0xA0 SHL SUB AND ISZERO PUSH2 0x3171 JUMPI PUSH1 0x40 MLOAD PUSH3 0x461BCD PUSH1 0xE5 SHL DUP2 MSTORE PUSH1 0x20 PUSH1 0x4 DUP3 ADD MSTORE PUSH1 0x5 PUSH1 0x24 DUP3 ADD MSTORE PUSH5 0x475331303 PUSH1 0xDC SHL PUSH1 0x44 DUP3 ADD MSTORE PUSH1 0x64 ADD PUSH2 0xBB7 JUMP JUMPDEST PUSH1 0x1 PUSH1 0x0 DUP2 SWAP1 MSTORE PUSH1 0x20 DUP2 SWAP1 MSTORE PUSH32 0xCC69885FDA6BCC1A4ACE058B4A62BF5E179EA78FD58A1CCD71C22CC9B688792F DUP1 SLOAD PUSH1 0x1 PUSH1 0x1 PUSH1 0xA0 SHL SUB NOT AND SWAP1 SWAP2 OR SWAP1 SSTORE PUSH1 0x1 PUSH1 0x1 PUSH1 0xA0 SHL SUB DUP3 AND ISZERO PUSH2 0xCB8 JUMPI DUP2 EXTCODESIZE PUSH2 0x31F4 JUMPI PUSH1 0x40 MLOAD PUSH3 0x461BCD PUSH1 0xE5 SHL DUP2 MSTORE PUSH1 0x20 PUSH1 0x4 DUP3 ADD MSTORE PUSH1 0x5 PUSH1 0x24 DUP3 ADD MSTORE PUSH5 0x23A9981819 PUSH1 0xD9 SHL PUSH1 0x44 DUP3 ADD MSTORE PUSH1 0x64 ADD PUSH2 0xBB7 JUMP JUMPDEST PUSH2 0x3203 DUP3 PUSH1 0x0 DUP4 PUSH1 0x1 GAS PUSH2 0x2DA8 JUMP JUMPDEST PUSH2 0xCB8 JUMPI PUSH1 0x40 MLOAD PUSH3 0x461BCD PUSH1 0xE5 SHL DUP2 MSTORE PUSH1 0x20 PUSH1 0x4 DUP3 ADD MSTORE PUSH1 0x5 PUSH1 0x24 DUP3 ADD MSTORE PUSH5 0x475330303 PUSH1 0xDC SHL PUSH1 0x44 DUP3 ADD MSTORE PUSH1 0x64 ADD PUSH2 0xBB7 JUMP JUMPDEST PUSH1 0x40 DUP1 MLOAD PUSH1 0x1 PUSH1 0x1 PUSH1 0xA0 SHL SUB DUP6 DUP2 AND PUSH1 0x24 DUP4 ADD MSTORE DUP5 DUP2 AND PUSH1 0x44 DUP4 ADD MSTORE PUSH1 0x64 DUP1 DUP4 ADD DUP6 SWAP1 MSTORE DUP4 MLOAD DUP1 DUP5 SUB SWAP1 SWAP2 ADD DUP2 MSTORE PUSH1 0x84 SWAP1 SWAP3 ADD DUP4 MSTORE PUSH1 0x20 DUP3 ADD DUP1 MLOAD PUSH1 0x1 PUSH1 0x1 PUSH1 0xE0 SHL SUB AND PUSH4 0x23B872DD PUSH1 0xE0 SHL OR SWAP1 MSTORE SWAP2 MLOAD PUSH1 0x0 SWAP3 DUP4 SWAP3 SWAP1 DUP9 AND SWAP2 PUSH2 0x329B SWAP2 SWAP1 PUSH2 0x411C JUMP JUMPDEST PUSH1 0x0 PUSH1 0x40 MLOAD DUP1 DUP4 SUB DUP2 PUSH1 0x0 DUP7 GAS CALL SWAP2 POP POP RETURNDATASIZE DUP1 PUSH1 0x0 DUP2 EQ PUSH2 0x32D8 JUMPI PUSH1 0x40 MLOAD SWAP2 POP PUSH1 0x1F NOT PUSH1 0x3F RETURNDATASIZE ADD AND DUP3 ADD PUSH1 0x40 MSTORE RETURNDATASIZE DUP3 MSTORE RETURNDATASIZE PUSH1 0x0 PUSH1 0x20 DUP5 ADD RETURNDATACOPY PUSH2 0x32DD JUMP JUMPDEST PUSH1 0x60 SWAP2 POP JUMPDEST POP SWAP2 POP SWAP2 POP DUP2 DUP1 ISZERO PUSH2 0x3307 JUMPI POP DUP1 MLOAD ISZERO DUP1 PUSH2 0x3307 JUMPI POP DUP1 DUP1 PUSH1 0x20 ADD SWAP1 MLOAD DUP2 ADD SWAP1 PUSH2 0x3307 SWAP2 SWAP1 PUSH2 0x4064 JUMP JUMPDEST PUSH2 0x336D JUMPI PUSH1 0x40 MLOAD PUSH3 0x461BCD PUSH1 0xE5 SHL DUP2 MSTORE PUSH1 0x20 PUSH1 0x4 DUP3 ADD MSTORE PUSH1 0x31 PUSH1 0x24 DUP3 ADD MSTORE PUSH32 0x5472616E7366657248656C7065723A3A7472616E7366657246726F6D3A207472 PUSH1 0x44 DUP3 ADD MSTORE PUSH17 0x185B9CD9995C919C9BDB4819985A5B1959 PUSH1 0x7A SHL PUSH1 0x64 DUP3 ADD MSTORE PUSH1 0x84 ADD PUSH2 0xBB7 JUMP JUMPDEST POP POP POP POP POP POP JUMP JUMPDEST PUSH1 0x1 PUSH1 0x1 PUSH1 0xA0 SHL SUB DUP3 AND PUSH2 0x33CB JUMPI PUSH1 0x40 MLOAD PUSH3 0x461BCD PUSH1 0xE5 SHL DUP2 MSTORE PUSH1 0x20 PUSH1 0x4 DUP3 ADD MSTORE PUSH1 0x1F PUSH1 0x24 DUP3 ADD MSTORE PUSH32 0x45524332303A206D696E7420746F20746865207A65726F206164647265737300 PUSH1 0x44 DUP3 ADD MSTORE PUSH1 0x64 ADD PUSH2 0xBB7 JUMP JUMPDEST DUP1 PUSH1 0xB PUSH1 0x0 DUP3 DUP3 SLOAD PUSH2 0x33DD SWAP2 SWAP1 PUSH2 0x3E9F JUMP JUMPDEST SWAP1 SWAP2 SSTORE POP POP PUSH1 0x1 PUSH1 0x1 PUSH1 0xA0 SHL SUB DUP3 AND PUSH1 0x0 DUP2 DUP2 MSTORE PUSH1 0x9 PUSH1 0x20 SWAP1 DUP2 MSTORE PUSH1 0x40 DUP1 DUP4 KECCAK256 DUP1 SLOAD DUP7 ADD SWAP1 SSTORE MLOAD DUP5 DUP2 MSTORE PUSH32 0xDDF252AD1BE2C89B69C2B068FC378DAA952BA7F163C4A11628F55A4DF523B3EF SWAP2 ADD PUSH1 0x40 MLOAD DUP1 SWAP2 SUB SWAP1 LOG3 POP POP JUMP JUMPDEST PUSH1 0x40 DUP1 MLOAD PUSH1 0x1 PUSH1 0x1 PUSH1 0xA0 SHL SUB DUP5 AND PUSH1 0x24 DUP3 ADD MSTORE PUSH1 0x44 DUP1 DUP3 ADD DUP5 SWAP1 MSTORE DUP3 MLOAD DUP1 DUP4 SUB SWAP1 SWAP2 ADD DUP2 MSTORE PUSH1 0x64 SWAP1 SWAP2 ADD SWAP1 SWAP2 MSTORE PUSH1 0x20 DUP1 DUP3 ADD DUP1 MLOAD PUSH1 0x1 PUSH1 0x1 PUSH1 0xE0 SHL SUB AND PUSH4 0xA9059CBB PUSH1 0xE0 SHL OR DUP2 MSTORE DUP3 MLOAD PUSH1 0x0 SWAP4 SWAP3 SWAP2 DUP5 SWAP2 SWAP1 DUP3 DUP10 PUSH2 0x2710 GAS SUB CALL RETURNDATASIZE DUP1 ISZERO PUSH2 0x34A8 JUMPI PUSH1 0x20 DUP2 EQ PUSH2 0x34B0 JUMPI PUSH1 0x0 SWAP4 POP PUSH2 0x34BB JUMP JUMPDEST DUP2 SWAP4 POP PUSH2 0x34BB JUMP JUMPDEST PUSH1 0x0 MLOAD ISZERO DUP3 ISZERO OR ISZERO SWAP4 POP JUMPDEST POP POP POP SWAP4 SWAP3 POP POP POP JUMP JUMPDEST PUSH1 0x1 PUSH1 0x1 PUSH1 0xA0 SHL SUB DUP2 AND DUP2 EQ PUSH2 0x34DA JUMPI PUSH1 0x0 DUP1 REVERT JUMPDEST POP JUMP JUMPDEST DUP1 CALLDATALOAD PUSH2 0x34E8 DUP2 PUSH2 0x34C5 JUMP JUMPDEST SWAP2 SWAP1 POP JUMP JUMPDEST PUSH1 0x0 DUP1 DUP4 PUSH1 0x1F DUP5 ADD SLT PUSH2 0x34FF JUMPI PUSH1 0x0 DUP1 REVERT JUMPDEST POP DUP2 CALLDATALOAD PUSH1 0x1 PUSH1 0x1 PUSH1 0x40 SHL SUB DUP2 GT ISZERO PUSH2 0x3516 JUMPI PUSH1 0x0 DUP1 REVERT JUMPDEST PUSH1 0x20 DUP4 ADD SWAP2 POP DUP4 PUSH1 0x20 DUP3 PUSH1 0x5 SHL DUP6 ADD ADD GT ISZERO PUSH2 0x3531 JUMPI PUSH1 0x0 DUP1 REVERT JUMPDEST SWAP3 POP SWAP3 SWAP1 POP JUMP JUMPDEST PUSH1 0x0 DUP1 PUSH1 0x0 DUP1 PUSH1 0x0 PUSH1 0x80 DUP7 DUP9 SUB SLT ISZERO PUSH2 0x3550 JUMPI PUSH1 0x0 DUP1 REVERT JUMPDEST DUP6 CALLDATALOAD PUSH2 0x355B DUP2 PUSH2 0x34C5 JUMP JUMPDEST SWAP5 POP PUSH1 0x20 DUP7 ADD CALLDATALOAD PUSH2 0x356B DUP2 PUSH2 0x34C5 JUMP JUMPDEST SWAP4 POP PUSH1 0x40 DUP7 ADD CALLDATALOAD SWAP3 POP PUSH1 0x60 DUP7 ADD CALLDATALOAD PUSH1 0x1 PUSH1 0x1 PUSH1 0x40 SHL SUB DUP2 GT ISZERO PUSH2 0x358D JUMPI PUSH1 0x0 DUP1 REVERT JUMPDEST PUSH2 0x3599 DUP9 DUP3 DUP10 ADD PUSH2 0x34ED JUMP JUMPDEST SWAP7 SWAP10 SWAP6 SWAP9 POP SWAP4 SWAP7 POP SWAP3 SWAP5 SWAP4 SWAP3 POP POP POP JUMP JUMPDEST PUSH1 0x0 JUMPDEST DUP4 DUP2 LT ISZERO PUSH2 0x35C5 JUMPI DUP2 DUP2 ADD MLOAD DUP4 DUP3 ADD MSTORE PUSH1 0x20 ADD PUSH2 0x35AD JUMP JUMPDEST POP POP PUSH1 0x0 SWAP2 ADD MSTORE JUMP JUMPDEST PUSH1 0x0 DUP2 MLOAD DUP1 DUP5 MSTORE PUSH2 0x35E6 DUP2 PUSH1 0x20 DUP7 ADD PUSH1 0x20 DUP7 ADD PUSH2 0x35AA JUMP JUMPDEST PUSH1 0x1F ADD PUSH1 0x1F NOT AND SWAP3 SWAP1 SWAP3 ADD PUSH1 0x20 ADD SWAP3 SWAP2 POP POP JUMP JUMPDEST PUSH1 0x20 DUP2 MSTORE PUSH1 0x0 PUSH2 0x270A PUSH1 0x20 DUP4 ADD DUP5 PUSH2 0x35CE JUMP JUMPDEST PUSH1 0x0 DUP1 PUSH1 0x40 DUP4 DUP6 SUB SLT ISZERO PUSH2 0x3620 JUMPI PUSH1 0x0 DUP1 REVERT JUMPDEST DUP3 CALLDATALOAD PUSH2 0x362B DUP2 PUSH2 0x34C5 JUMP JUMPDEST SWAP5 PUSH1 0x20 SWAP4 SWAP1 SWAP4 ADD CALLDATALOAD SWAP4 POP POP POP JUMP JUMPDEST PUSH4 0x4E487B71 PUSH1 0xE0 SHL PUSH1 0x0 MSTORE PUSH1 0x41 PUSH1 0x4 MSTORE PUSH1 0x24 PUSH1 0x0 REVERT JUMPDEST PUSH1 0x0 DUP3 PUSH1 0x1F DUP4 ADD SLT PUSH2 0x3660 JUMPI PUSH1 0x0 DUP1 REVERT JUMPDEST DUP2 CALLDATALOAD PUSH1 0x1 PUSH1 0x1 PUSH1 0x40 SHL SUB DUP1 DUP3 GT ISZERO PUSH2 0x367A JUMPI PUSH2 0x367A PUSH2 0x3639 JUMP JUMPDEST PUSH1 0x40 MLOAD PUSH1 0x1F DUP4 ADD PUSH1 0x1F NOT SWAP1 DUP2 AND PUSH1 0x3F ADD AND DUP2 ADD SWAP1 DUP3 DUP3 GT DUP2 DUP4 LT OR ISZERO PUSH2 0x36A2 JUMPI PUSH2 0x36A2 PUSH2 0x3639 JUMP JUMPDEST DUP2 PUSH1 0x40 MSTORE DUP4 DUP2 MSTORE DUP7 PUSH1 0x20 DUP6 DUP9 ADD ADD GT ISZERO PUSH2 0x36BB JUMPI PUSH1 0x0 DUP1 REVERT JUMPDEST DUP4 PUSH1 0x20 DUP8 ADD PUSH1 0x20 DUP4 ADD CALLDATACOPY PUSH1 0x0 PUSH1 0x20 DUP6 DUP4 ADD ADD MSTORE DUP1 SWAP5 POP POP POP POP POP SWAP3 SWAP2 POP POP JUMP JUMPDEST PUSH1 0x0 DUP1 PUSH1 0x0 DUP1 PUSH1 0x80 DUP6 DUP8 SUB SLT ISZERO PUSH2 0x36F1 JUMPI PUSH1 0x0 DUP1 REVERT JUMPDEST DUP5 CALLDATALOAD SWAP4 POP PUSH1 0x20 DUP6 ADD CALLDATALOAD PUSH1 0x1 PUSH1 0x1 PUSH1 0x40 SHL SUB DUP1 DUP3 GT ISZERO PUSH2 0x370F JUMPI PUSH1 0x0 DUP1 REVERT JUMPDEST PUSH2 0x371B DUP9 DUP4 DUP10 ADD PUSH2 0x364F JUMP JUMPDEST SWAP5 POP PUSH1 0x40 DUP8 ADD CALLDATALOAD SWAP2 POP DUP1 DUP3 GT ISZERO PUSH2 0x3731 JUMPI PUSH1 0x0 DUP1 REVERT JUMPDEST POP PUSH2 0x373E DUP8 DUP3 DUP9 ADD PUSH2 0x364F JUMP JUMPDEST SWAP5 SWAP8 SWAP4 SWAP7 POP SWAP4 SWAP5 PUSH1 0x60 ADD CALLDATALOAD SWAP4 POP POP POP JUMP JUMPDEST PUSH1 0x0 DUP1 PUSH1 0x0 PUSH1 0x60 DUP5 DUP7 SUB SLT ISZERO PUSH2 0x3764 JUMPI PUSH1 0x0 DUP1 REVERT JUMPDEST DUP4 CALLDATALOAD PUSH2 0x376F DUP2 PUSH2 0x34C5 JUMP JUMPDEST SWAP3 POP PUSH1 0x20 DUP5 ADD CALLDATALOAD PUSH2 0x377F DUP2 PUSH2 0x34C5 JUMP JUMPDEST SWAP3 SWAP6 SWAP3 SWAP5 POP POP POP PUSH1 0x40 SWAP2 SWAP1 SWAP2 ADD CALLDATALOAD SWAP1 JUMP JUMPDEST PUSH1 0x0 PUSH1 0x20 DUP3 DUP5 SUB SLT ISZERO PUSH2 0x37A2 JUMPI PUSH1 0x0 DUP1 REVERT JUMPDEST DUP2 CALLDATALOAD PUSH2 0x270A DUP2 PUSH2 0x34C5 JUMP JUMPDEST DUP1 CALLDATALOAD PUSH1 0x2 DUP2 LT PUSH2 0x34E8 JUMPI PUSH1 0x0 DUP1 REVERT JUMPDEST PUSH1 0x0 DUP1 PUSH1 0x0 DUP1 PUSH1 0x80 DUP6 DUP8 SUB SLT ISZERO PUSH2 0x37D2 JUMPI PUSH1 0x0 DUP1 REVERT JUMPDEST DUP5 CALLDATALOAD PUSH2 0x37DD DUP2 PUSH2 0x34C5 JUMP JUMPDEST SWAP4 POP PUSH1 0x20 DUP6 ADD CALLDATALOAD SWAP3 POP PUSH1 0x40 DUP6 ADD CALLDATALOAD PUSH1 0x1 PUSH1 0x1 PUSH1 0x40 SHL SUB DUP2 GT ISZERO PUSH2 0x37FF JUMPI PUSH1 0x0 DUP1 REVERT JUMPDEST PUSH2 0x380B DUP8 DUP3 DUP9 ADD PUSH2 0x364F JUMP JUMPDEST SWAP3 POP POP PUSH2 0x381A PUSH1 0x60 DUP7 ADD PUSH2 0x37AD JUMP JUMPDEST SWAP1 POP SWAP3 SWAP6 SWAP2 SWAP5 POP SWAP3 POP JUMP JUMPDEST DUP3 ISZERO ISZERO DUP2 MSTORE PUSH1 0x40 PUSH1 0x20 DUP3 ADD MSTORE PUSH1 0x0 PUSH2 0x12EB PUSH1 0x40 DUP4 ADD DUP5 PUSH2 0x35CE JUMP JUMPDEST PUSH1 0x0 DUP1 PUSH1 0x40 DUP4 DUP6 SUB SLT ISZERO PUSH2 0x3853 JUMPI PUSH1 0x0 DUP1 REVERT JUMPDEST POP POP DUP1 CALLDATALOAD SWAP3 PUSH1 0x20 SWAP1 SWAP2 ADD CALLDATALOAD SWAP2 POP JUMP JUMPDEST PUSH1 0x0 PUSH1 0x20 DUP3 DUP5 SUB SLT ISZERO PUSH2 0x3874 JUMPI PUSH1 0x0 DUP1 REVERT JUMPDEST POP CALLDATALOAD SWAP2 SWAP1 POP JUMP JUMPDEST PUSH1 0x0 DUP1 DUP4 PUSH1 0x1F DUP5 ADD SLT PUSH2 0x388D JUMPI PUSH1 0x0 DUP1 REVERT JUMPDEST POP DUP2 CALLDATALOAD PUSH1 0x1 PUSH1 0x1 PUSH1 0x40 SHL SUB DUP2 GT ISZERO PUSH2 0x38A4 JUMPI PUSH1 0x0 DUP1 REVERT JUMPDEST PUSH1 0x20 DUP4 ADD SWAP2 POP DUP4 PUSH1 0x20 DUP3 DUP6 ADD ADD GT ISZERO PUSH2 0x3531 JUMPI PUSH1 0x0 DUP1 REVERT JUMPDEST PUSH1 0x0 DUP1 PUSH1 0x0 DUP1 PUSH1 0x0 DUP1 PUSH1 0x0 DUP1 PUSH1 0x0 DUP1 PUSH1 0x0 PUSH2 0x140 DUP13 DUP15 SUB SLT ISZERO PUSH2 0x38DE JUMPI PUSH1 0x0 DUP1 REVERT JUMPDEST PUSH2 0x38E7 DUP13 PUSH2 0x34DD JUMP JUMPDEST SWAP11 POP PUSH1 0x20 DUP13 ADD CALLDATALOAD SWAP10 POP PUSH1 0x1 PUSH1 0x1 PUSH1 0x40 SHL SUB DUP1 PUSH1 0x40 DUP15 ADD CALLDATALOAD GT ISZERO PUSH2 0x3909 JUMPI PUSH1 0x0 DUP1 REVERT JUMPDEST PUSH2 0x3919 DUP15 PUSH1 0x40 DUP16 ADD CALLDATALOAD DUP16 ADD PUSH2 0x387B JUMP JUMPDEST SWAP1 SWAP11 POP SWAP9 POP PUSH2 0x392A PUSH1 0x60 DUP15 ADD PUSH2 0x37AD JUMP JUMPDEST SWAP8 POP PUSH1 0x80 DUP14 ADD CALLDATALOAD SWAP7 POP PUSH1 0xA0 DUP14 ADD CALLDATALOAD SWAP6 POP PUSH1 0xC0 DUP14 ADD CALLDATALOAD SWAP5 POP PUSH2 0x394D PUSH1 0xE0 DUP15 ADD PUSH2 0x34DD JUMP JUMPDEST SWAP4 POP PUSH2 0x395C PUSH2 0x100 DUP15 ADD PUSH2 0x34DD JUMP JUMPDEST SWAP3 POP DUP1 PUSH2 0x120 DUP15 ADD CALLDATALOAD GT ISZERO PUSH2 0x3970 JUMPI PUSH1 0x0 DUP1 REVERT JUMPDEST POP PUSH2 0x3982 DUP14 PUSH2 0x120 DUP15 ADD CALLDATALOAD DUP15 ADD PUSH2 0x364F JUMP JUMPDEST SWAP1 POP SWAP3 SWAP6 SWAP9 SWAP12 POP SWAP3 SWAP6 SWAP9 SWAP12 SWAP1 SWAP4 SWAP7 SWAP10 POP JUMP JUMPDEST PUSH1 0x0 DUP1 PUSH1 0x0 PUSH1 0x60 DUP5 DUP7 SUB SLT ISZERO PUSH2 0x39A9 JUMPI PUSH1 0x0 DUP1 REVERT JUMPDEST DUP4 CALLDATALOAD SWAP3 POP PUSH1 0x20 DUP5 ADD CALLDATALOAD PUSH1 0x1 PUSH1 0x1 PUSH1 0x40 SHL SUB DUP1 DUP3 GT ISZERO PUSH2 0x39C7 JUMPI PUSH1 0x0 DUP1 REVERT JUMPDEST PUSH2 0x39D3 DUP8 DUP4 DUP9 ADD PUSH2 0x364F JUMP JUMPDEST SWAP4 POP PUSH1 0x40 DUP7 ADD CALLDATALOAD SWAP2 POP DUP1 DUP3 GT ISZERO PUSH2 0x39E9 JUMPI PUSH1 0x0 DUP1 REVERT JUMPDEST POP PUSH2 0x39F6 DUP7 DUP3 DUP8 ADD PUSH2 0x364F JUMP JUMPDEST SWAP2 POP POP SWAP3 POP SWAP3 POP SWAP3 JUMP JUMPDEST PUSH1 0x0 DUP2 MLOAD DUP1 DUP5 MSTORE PUSH1 0x20 DUP1 DUP6 ADD SWAP5 POP DUP1 DUP5 ADD PUSH1 0x0 JUMPDEST DUP4 DUP2 LT ISZERO PUSH2 0x3A39 JUMPI DUP2 MLOAD PUSH1 0x1 PUSH1 0x1 PUSH1 0xA0 SHL SUB AND DUP8 MSTORE SWAP6 DUP3 ADD SWAP6 SWAP1 DUP3 ADD SWAP1 PUSH1 0x1 ADD PUSH2 0x3A14 JUMP JUMPDEST POP SWAP5 SWAP6 SWAP5 POP POP POP POP POP JUMP JUMPDEST PUSH1 0x20 DUP2 MSTORE PUSH1 0x0 PUSH2 0x270A PUSH1 0x20 DUP4 ADD DUP5 PUSH2 0x3A00 JUMP JUMPDEST PUSH1 0x0 DUP1 PUSH1 0x40 DUP4 DUP6 SUB SLT ISZERO PUSH2 0x3A6A JUMPI PUSH1 0x0 DUP1 REVERT JUMPDEST DUP3 CALLDATALOAD PUSH2 0x3A75 DUP2 PUSH2 0x34C5 JUMP JUMPDEST SWAP2 POP PUSH1 0x20 DUP4 ADD CALLDATALOAD PUSH1 0x1 PUSH1 0x1 PUSH1 0x40 SHL SUB DUP2 GT ISZERO PUSH2 0x3A90 JUMPI PUSH1 0x0 DUP1 REVERT JUMPDEST PUSH2 0x3A9C DUP6 DUP3 DUP7 ADD PUSH2 0x364F JUMP JUMPDEST SWAP2 POP POP SWAP3 POP SWAP3 SWAP1 POP JUMP JUMPDEST PUSH1 0x0 DUP1 PUSH1 0x0 DUP1 PUSH1 0x0 DUP1 PUSH1 0x0 DUP1 PUSH1 0x0 DUP1 PUSH2 0x100 DUP12 DUP14 SUB SLT ISZERO PUSH2 0x3AC6 JUMPI PUSH1 0x0 DUP1 REVERT JUMPDEST DUP11 CALLDATALOAD PUSH1 0x1 PUSH1 0x1 PUSH1 0x40 SHL SUB DUP1 DUP3 GT ISZERO PUSH2 0x3ADD JUMPI PUSH1 0x0 DUP1 REVERT JUMPDEST PUSH2 0x3AE9 DUP15 DUP4 DUP16 ADD PUSH2 0x34ED JUMP JUMPDEST SWAP1 SWAP13 POP SWAP11 POP PUSH1 0x20 DUP14 ADD CALLDATALOAD SWAP10 POP PUSH1 0x40 DUP14 ADD CALLDATALOAD SWAP2 POP PUSH2 0x3B05 DUP3 PUSH2 0x34C5 JUMP JUMPDEST SWAP1 SWAP8 POP PUSH1 0x60 DUP13 ADD CALLDATALOAD SWAP1 DUP1 DUP3 GT ISZERO PUSH2 0x3B1B JUMPI PUSH1 0x0 DUP1 REVERT JUMPDEST POP PUSH2 0x3B28 DUP14 DUP3 DUP15 ADD PUSH2 0x387B JUMP JUMPDEST SWAP1 SWAP8 POP SWAP6 POP POP PUSH1 0x80 DUP12 ADD CALLDATALOAD PUSH2 0x3B3C DUP2 PUSH2 0x34C5 JUMP JUMPDEST SWAP4 POP PUSH1 0xA0 DUP12 ADD CALLDATALOAD PUSH2 0x3B4C DUP2 PUSH2 0x34C5 JUMP JUMPDEST SWAP3 POP PUSH1 0xC0 DUP12 ADD CALLDATALOAD SWAP2 POP PUSH1 0xE0 DUP12 ADD CALLDATALOAD PUSH2 0x3B63 DUP2 PUSH2 0x34C5 JUMP JUMPDEST DUP1 SWAP2 POP POP SWAP3 SWAP6 SWAP9 SWAP12 SWAP2 SWAP5 SWAP8 SWAP11 POP SWAP3 SWAP6 SWAP9 POP JUMP JUMPDEST PUSH1 0x0 DUP1 PUSH1 0x0 DUP1 PUSH1 0x0 PUSH1 0xA0 DUP7 DUP9 SUB SLT ISZERO PUSH2 0x3B8E JUMPI PUSH1 0x0 DUP1 REVERT JUMPDEST DUP6 CALLDATALOAD PUSH2 0x3B99 DUP2 PUSH2 0x34C5 JUMP JUMPDEST SWAP5 POP PUSH1 0x20 DUP7 ADD CALLDATALOAD PUSH2 0x3BA9 DUP2 PUSH2 0x34C5 JUMP JUMPDEST SWAP4 POP PUSH1 0x40 DUP7 ADD CALLDATALOAD SWAP3 POP PUSH1 0x60 DUP7 ADD CALLDATALOAD PUSH2 0x3BC0 DUP2 PUSH2 0x34C5 JUMP JUMPDEST SWAP5 SWAP8 SWAP4 SWAP7 POP SWAP2 SWAP5 PUSH1 0x80 ADD CALLDATALOAD SWAP3 SWAP2 POP POP JUMP JUMPDEST PUSH1 0x40 DUP2 MSTORE PUSH1 0x0 PUSH2 0x3BE4 PUSH1 0x40 DUP4 ADD DUP6 PUSH2 0x3A00 JUMP JUMPDEST SWAP1 POP PUSH1 0x1 DUP1 PUSH1 0xA0 SHL SUB DUP4 AND PUSH1 0x20 DUP4 ADD MSTORE SWAP4 SWAP3 POP POP POP JUMP JUMPDEST PUSH1 0x0 DUP1 PUSH1 0x0 DUP1 PUSH1 0x0 DUP1 PUSH1 0x0 DUP1 PUSH1 0x0 DUP1 PUSH1 0x0 PUSH2 0x140 DUP13 DUP15 SUB SLT ISZERO PUSH2 0x3C1D JUMPI PUSH1 0x0 DUP1 REVERT JUMPDEST DUP12 CALLDATALOAD PUSH2 0x3C28 DUP2 PUSH2 0x34C5 JUMP JUMPDEST SWAP11 POP PUSH1 0x20 DUP13 ADD CALLDATALOAD SWAP10 POP PUSH1 0x40 DUP13 ADD CALLDATALOAD PUSH1 0x1 PUSH1 0x1 PUSH1 0x40 SHL SUB DUP2 GT ISZERO PUSH2 0x3C4A JUMPI PUSH1 0x0 DUP1 REVERT JUMPDEST PUSH2 0x3C56 DUP15 DUP3 DUP16 ADD PUSH2 0x387B JUMP JUMPDEST SWAP1 SWAP11 POP SWAP9 POP PUSH2 0x3C69 SWAP1 POP PUSH1 0x60 DUP14 ADD PUSH2 0x37AD JUMP JUMPDEST SWAP7 POP PUSH1 0x80 DUP13 ADD CALLDATALOAD SWAP6 POP PUSH1 0xA0 DUP13 ADD CALLDATALOAD SWAP5 POP PUSH1 0xC0 DUP13 ADD CALLDATALOAD SWAP4 POP PUSH1 0xE0 DUP13 ADD CALLDATALOAD PUSH2 0x3C8E DUP2 PUSH2 0x34C5 JUMP JUMPDEST SWAP3 POP PUSH2 0x100 DUP13 ADD CALLDATALOAD PUSH2 0x3C9F DUP2 PUSH2 0x34C5 JUMP JUMPDEST DUP1 SWAP3 POP POP PUSH2 0x120 DUP13 ADD CALLDATALOAD SWAP1 POP SWAP3 SWAP6 SWAP9 SWAP12 POP SWAP3 SWAP6 SWAP9 SWAP12 SWAP1 SWAP4 SWAP7 SWAP10 POP JUMP JUMPDEST PUSH1 0x0 DUP1 PUSH1 0x40 DUP4 DUP6 SUB SLT ISZERO PUSH2 0x3CCE JUMPI PUSH1 0x0 DUP1 REVERT JUMPDEST DUP3 CALLDATALOAD PUSH2 0x3CD9 DUP2 PUSH2 0x34C5 JUMP JUMPDEST SWAP2 POP PUSH1 0x20 DUP4 ADD CALLDATALOAD PUSH2 0x3CE9 DUP2 PUSH2 0x34C5 JUMP JUMPDEST DUP1 SWAP2 POP POP SWAP3 POP SWAP3 SWAP1 POP JUMP JUMPDEST PUSH1 0x0 DUP1 PUSH1 0x0 PUSH1 0x60 DUP5 DUP7 SUB SLT ISZERO PUSH2 0x3D09 JUMPI PUSH1 0x0 DUP1 REVERT JUMPDEST DUP4 CALLDATALOAD PUSH2 0x3D14 DUP2 PUSH2 0x34C5 JUMP JUMPDEST SWAP3 POP PUSH1 0x20 DUP5 ADD CALLDATALOAD PUSH2 0x3D24 DUP2 PUSH2 0x34C5 JUMP JUMPDEST SWAP2 POP PUSH1 0x40 DUP5 ADD CALLDATALOAD PUSH2 0x3D34 DUP2 PUSH2 0x34C5 JUMP JUMPDEST DUP1 SWAP2 POP POP SWAP3 POP SWAP3 POP SWAP3 JUMP JUMPDEST PUSH4 0x4E487B71 PUSH1 0xE0 SHL PUSH1 0x0 MSTORE PUSH1 0x32 PUSH1 0x4 MSTORE PUSH1 0x24 PUSH1 0x0 REVERT JUMPDEST PUSH1 0x0 PUSH1 0x20 DUP3 DUP5 SUB SLT ISZERO PUSH2 0x3D67 JUMPI PUSH1 0x0 DUP1 REVERT JUMPDEST POP MLOAD SWAP2 SWAP1 POP JUMP JUMPDEST PUSH4 0x4E487B71 PUSH1 0xE0 SHL PUSH1 0x0 MSTORE PUSH1 0x11 PUSH1 0x4 MSTORE PUSH1 0x24 PUSH1 0x0 REVERT JUMPDEST PUSH1 0x0 DUP3 PUSH2 0x3DA1 JUMPI PUSH4 0x4E487B71 PUSH1 0xE0 SHL PUSH1 0x0 MSTORE PUSH1 0x12 PUSH1 0x4 MSTORE PUSH1 0x24 PUSH1 0x0 REVERT JUMPDEST POP DIV SWAP1 JUMP JUMPDEST PUSH1 0x0 PUSH1 0x1 DUP3 ADD PUSH2 0x3DB8 JUMPI PUSH2 0x3DB8 PUSH2 0x3D6E JUMP JUMPDEST POP PUSH1 0x1 ADD SWAP1 JUMP JUMPDEST PUSH1 0x1 DUP2 DUP2 SHR SWAP1 DUP3 AND DUP1 PUSH2 0x3DD3 JUMPI PUSH1 0x7F DUP3 AND SWAP2 POP JUMPDEST PUSH1 0x20 DUP3 LT DUP2 SUB PUSH2 0x3DF3 JUMPI PUSH4 0x4E487B71 PUSH1 0xE0 SHL PUSH1 0x0 MSTORE PUSH1 0x22 PUSH1 0x4 MSTORE PUSH1 0x24 PUSH1 0x0 REVERT JUMPDEST POP SWAP2 SWAP1 POP JUMP JUMPDEST PUSH1 0x20 DUP1 DUP3 MSTORE PUSH1 0x5 SWAP1 DUP3 ADD MSTORE PUSH5 0x4753323033 PUSH1 0xD8 SHL PUSH1 0x40 DUP3 ADD MSTORE PUSH1 0x60 ADD SWAP1 JUMP JUMPDEST PUSH1 0x20 DUP1 DUP3 MSTORE PUSH1 0x5 SWAP1 DUP3 ADD MSTORE PUSH5 0x11D4CC8C0D PUSH1 0xDA SHL PUSH1 0x40 DUP3 ADD MSTORE PUSH1 0x60 ADD SWAP1 JUMP JUMPDEST PUSH1 0x40 DUP2 MSTORE PUSH1 0x0 PUSH2 0x3E4A PUSH1 0x40 DUP4 ADD DUP6 PUSH2 0x35CE JUMP JUMPDEST DUP3 DUP2 SUB PUSH1 0x20 DUP5 ADD MSTORE PUSH2 0x2DE6 DUP2 DUP6 PUSH2 0x35CE JUMP JUMPDEST PUSH1 0x0 PUSH1 0x20 DUP3 DUP5 SUB SLT ISZERO PUSH2 0x3E6E JUMPI PUSH1 0x0 DUP1 REVERT JUMPDEST DUP2 MLOAD PUSH1 0x1 PUSH1 0x1 PUSH1 0xE0 SHL SUB NOT DUP2 AND DUP2 EQ PUSH2 0x270A JUMPI PUSH1 0x0 DUP1 REVERT JUMPDEST PUSH1 0xFF DUP3 DUP2 AND DUP3 DUP3 AND SUB SWAP1 DUP2 GT ISZERO PUSH2 0xB56 JUMPI PUSH2 0xB56 PUSH2 0x3D6E JUMP JUMPDEST DUP1 DUP3 ADD DUP1 DUP3 GT ISZERO PUSH2 0xB56 JUMPI PUSH2 0xB56 PUSH2 0x3D6E JUMP JUMPDEST DUP1 DUP3 MUL DUP2 ISZERO DUP3 DUP3 DIV DUP5 EQ OR PUSH2 0xB56 JUMPI PUSH2 0xB56 PUSH2 0x3D6E JUMP JUMPDEST PUSH1 0x20 DUP1 DUP3 MSTORE PUSH1 0x5 SWAP1 DUP3 ADD MSTORE PUSH5 0x4753323031 PUSH1 0xD8 SHL PUSH1 0x40 DUP3 ADD MSTORE PUSH1 0x60 ADD SWAP1 JUMP JUMPDEST PUSH4 0x4E487B71 PUSH1 0xE0 SHL PUSH1 0x0 MSTORE PUSH1 0x21 PUSH1 0x4 MSTORE PUSH1 0x24 PUSH1 0x0 REVERT JUMPDEST PUSH1 0x2 DUP2 LT PUSH2 0x3F1C JUMPI PUSH4 0x4E487B71 PUSH1 0xE0 SHL PUSH1 0x0 MSTORE PUSH1 0x21 PUSH1 0x4 MSTORE PUSH1 0x24 PUSH1 0x0 REVERT JUMPDEST SWAP1 MSTORE JUMP JUMPDEST PUSH1 0x1 PUSH1 0x1 PUSH1 0xA0 SHL SUB DUP14 AND DUP2 MSTORE PUSH1 0x20 DUP2 ADD DUP13 SWAP1 MSTORE PUSH2 0x160 PUSH1 0x40 DUP3 ADD DUP2 SWAP1 MSTORE DUP2 ADD DUP11 SWAP1 MSTORE PUSH1 0x0 PUSH2 0x180 DUP12 DUP14 DUP3 DUP6 ADD CALLDATACOPY PUSH1 0x0 DUP4 DUP14 ADD DUP3 ADD MSTORE PUSH1 0x1F DUP13 ADD PUSH1 0x1F NOT AND DUP4 ADD PUSH2 0x3F6C PUSH1 0x60 DUP6 ADD DUP14 PUSH2 0x3EFE JUMP JUMPDEST DUP11 PUSH1 0x80 DUP6 ADD MSTORE DUP10 PUSH1 0xA0 DUP6 ADD MSTORE DUP9 PUSH1 0xC0 DUP6 ADD MSTORE PUSH2 0x3F93 PUSH1 0xE0 DUP6 ADD DUP10 PUSH1 0x1 PUSH1 0x1 PUSH1 0xA0 SHL SUB AND SWAP1 MSTORE JUMP JUMPDEST PUSH1 0x1 PUSH1 0x1 PUSH1 0xA0 SHL SUB DUP8 AND PUSH2 0x100 DUP6 ADD MSTORE DUP2 DUP5 DUP3 SUB ADD PUSH2 0x120 DUP6 ADD MSTORE PUSH2 0x3FBA DUP3 DUP3 ADD DUP8 PUSH2 0x35CE JUMP JUMPDEST SWAP3 POP POP POP PUSH2 0x3FD4 PUSH2 0x140 DUP4 ADD DUP5 PUSH1 0x1 PUSH1 0x1 PUSH1 0xA0 SHL SUB AND SWAP1 MSTORE JUMP JUMPDEST SWAP14 SWAP13 POP POP POP POP POP POP POP POP POP POP POP POP POP JUMP JUMPDEST DUP2 DUP2 SUB DUP2 DUP2 GT ISZERO PUSH2 0xB56 JUMPI PUSH2 0xB56 PUSH2 0x3D6E JUMP JUMPDEST PUSH1 0x80 DUP1 DUP3 MSTORE DUP2 ADD DUP6 SWAP1 MSTORE PUSH1 0x0 DUP7 PUSH1 0xA0 DUP4 ADD DUP3 JUMPDEST DUP9 DUP2 LT ISZERO PUSH2 0x403B JUMPI DUP3 CALLDATALOAD PUSH2 0x401E DUP2 PUSH2 0x34C5 JUMP JUMPDEST PUSH1 0x1 PUSH1 0x1 PUSH1 0xA0 SHL SUB AND DUP3 MSTORE PUSH1 0x20 SWAP3 DUP4 ADD SWAP3 SWAP1 SWAP2 ADD SWAP1 PUSH1 0x1 ADD PUSH2 0x400B JUMP JUMPDEST POP PUSH1 0x20 DUP5 ADD SWAP7 SWAP1 SWAP7 MSTORE POP POP PUSH1 0x1 PUSH1 0x1 PUSH1 0xA0 SHL SUB SWAP3 DUP4 AND PUSH1 0x40 DUP3 ADD MSTORE SWAP2 AND PUSH1 0x60 SWAP1 SWAP2 ADD MSTORE SWAP3 SWAP2 POP POP JUMP JUMPDEST PUSH1 0x0 PUSH1 0x20 DUP3 DUP5 SUB SLT ISZERO PUSH2 0x4076 JUMPI PUSH1 0x0 DUP1 REVERT JUMPDEST DUP2 MLOAD DUP1 ISZERO ISZERO DUP2 EQ PUSH2 0x270A JUMPI PUSH1 0x0 DUP1 REVERT JUMPDEST DUP2 DUP4 DUP3 CALLDATACOPY PUSH1 0x0 SWAP2 ADD SWAP1 DUP2 MSTORE SWAP2 SWAP1 POP JUMP JUMPDEST DUP12 DUP2 MSTORE PUSH1 0x1 PUSH1 0x1 PUSH1 0xA0 SHL SUB DUP12 DUP2 AND PUSH1 0x20 DUP4 ADD MSTORE PUSH1 0x40 DUP3 ADD DUP12 SWAP1 MSTORE PUSH1 0x60 DUP3 ADD DUP11 SWAP1 MSTORE PUSH2 0x160 DUP3 ADD SWAP1 PUSH2 0x40CA PUSH1 0x80 DUP5 ADD DUP12 PUSH2 0x3EFE JUMP JUMPDEST PUSH1 0xA0 DUP4 ADD SWAP9 SWAP1 SWAP9 MSTORE PUSH1 0xC0 DUP3 ADD SWAP7 SWAP1 SWAP7 MSTORE PUSH1 0xE0 DUP2 ADD SWAP5 SWAP1 SWAP5 MSTORE SWAP2 DUP6 AND PUSH2 0x100 DUP5 ADD MSTORE SWAP1 SWAP4 AND PUSH2 0x120 DUP3 ADD MSTORE PUSH2 0x140 ADD SWAP2 SWAP1 SWAP2 MSTORE SWAP6 SWAP5 POP POP POP POP POP JUMP JUMPDEST PUSH1 0x0 DUP2 PUSH2 0x4114 JUMPI PUSH2 0x4114 PUSH2 0x3D6E JUMP JUMPDEST POP PUSH1 0x0 NOT ADD SWAP1 JUMP JUMPDEST PUSH1 0x0 DUP3 MLOAD PUSH2 0x412E DUP2 DUP5 PUSH1 0x20 DUP8 ADD PUSH2 0x35AA JUMP JUMPDEST SWAP2 SWAP1 SWAP2 ADD SWAP3 SWAP2 POP POP JUMP INVALID LOG2 PUSH5 0x6970667358 0x22 SLT KECCAK256 0xD6 0xB6 0xAD DUP10 STOP SHL 0xE3 RETURNDATASIZE SELFDESTRUCT 0xDE 0xA7 JUMPDEST 0x1E 0xF8 MSTORE8 0xC4 PUSH8 0x61F29E566859E93C 0xB4 EXTCODECOPY DUP13 CHAINID 0x22 DUP1 0xD9 PUSH5 0x736F6C6343 STOP ADDMOD SLT STOP CALLER "
		},
		"gasEstimates": {
			"creation": {
				"codeDepositCost": "3350000",
				"executionCost": "infinite",
				"totalCost": "infinite"
			},
			"external": {
				"": "infinite",
				"VERSION()": "infinite",
				"addOwnerWithThreshold(address,uint256)": "infinite",
				"allowance(address,address)": "infinite",
				"approve(address,uint256)": "24690",
				"approveHash(bytes32)": "26238",
				"approvedHashes(address,bytes32)": "2761",
				"balanceOf(address)": "2664",
				"burnAndExit(address,address,uint256,address[])": "infinite",
				"changeThreshold(uint256)": "25687",
				"checkNSignatures(bytes32,bytes,bytes,uint256)": "infinite",
				"checkSignatures(bytes32,bytes,bytes)": "infinite",
				"decimals()": "311",
				"decreaseAllowance(address,uint256)": "27078",
				"disableModule(address,address)": "infinite",
				"domainSeparator()": "497",
				"enableModule(address)": "54457",
				"encodeTransactionData(address,uint256,bytes,uint8,uint256,uint256,uint256,address,address,uint256)": "infinite",
				"execTransaction(address,uint256,bytes,uint8,uint256,uint256,uint256,address,address,bytes)": "infinite",
				"execTransactionFromModule(address,uint256,bytes,uint8)": "infinite",
				"execTransactionFromModuleReturnData(address,uint256,bytes,uint8)": "infinite",
				"getChainId()": "347",
				"getModulesPaginated(address,uint256)": "infinite",
				"getOwners()": "infinite",
				"getStorageAt(uint256,uint256)": "infinite",
				"getThreshold()": "2336",
				"getTransactionHash(address,uint256,bytes,uint8,uint256,uint256,uint256,address,address,uint256)": "infinite",
				"increaseAllowance(address,uint256)": "infinite",
				"isModuleEnabled(address)": "2710",
				"isOwner(address)": "2732",
				"joinAndMint(address,address,uint256,address,uint256)": "infinite",
				"last_completed_migration()": "2363",
				"name()": "infinite",
				"nonce()": "2362",
				"owner()": "2383",
				"removeOwner(address,address,uint256)": "infinite",
				"setFallbackHandler(address)": "23636",
				"setGuard(address)": "infinite",
				"setup(address[],uint256,address,bytes,address,address,uint256,address)": "infinite",
				"signedMessages(bytes32)": "2483",
				"simulateAndRevert(address,bytes)": "infinite",
				"swapOwner(address,address,address)": "infinite",
				"symbol()": "infinite",
				"totalSupply()": "2327",
				"transfer(address,uint256)": "51098",
				"transferFrom(address,address,uint256)": "infinite"
			}
		},
		"methodIdentifiers": {
			"VERSION()": "ffa1ad74",
			"addOwnerWithThreshold(address,uint256)": "0d582f13",
			"allowance(address,address)": "dd62ed3e",
			"approve(address,uint256)": "095ea7b3",
			"approveHash(bytes32)": "d4d9bdcd",
			"approvedHashes(address,bytes32)": "7d832974",
			"balanceOf(address)": "70a08231",
			"burnAndExit(address,address,uint256,address[])": "02d38445",
			"changeThreshold(uint256)": "694e80c3",
			"checkNSignatures(bytes32,bytes,bytes,uint256)": "12fb68e0",
			"checkSignatures(bytes32,bytes,bytes)": "934f3a11",
			"decimals()": "313ce567",
			"decreaseAllowance(address,uint256)": "a457c2d7",
			"disableModule(address,address)": "e009cfde",
			"domainSeparator()": "f698da25",
			"enableModule(address)": "610b5925",
			"encodeTransactionData(address,uint256,bytes,uint8,uint256,uint256,uint256,address,address,uint256)": "e86637db",
			"execTransaction(address,uint256,bytes,uint8,uint256,uint256,uint256,address,address,bytes)": "6a761202",
			"execTransactionFromModule(address,uint256,bytes,uint8)": "468721a7",
			"execTransactionFromModuleReturnData(address,uint256,bytes,uint8)": "5229073f",
			"getChainId()": "3408e470",
			"getModulesPaginated(address,uint256)": "cc2f8452",
			"getOwners()": "a0e67e2b",
			"getStorageAt(uint256,uint256)": "5624b25b",
			"getThreshold()": "e75235b8",
			"getTransactionHash(address,uint256,bytes,uint8,uint256,uint256,uint256,address,address,uint256)": "d8d11f78",
			"increaseAllowance(address,uint256)": "39509351",
			"isModuleEnabled(address)": "2d9ad53d",
			"isOwner(address)": "2f54bf6e",
			"joinAndMint(address,address,uint256,address,uint256)": "b6919ef2",
			"last_completed_migration()": "445df0ac",
			"name()": "06fdde03",
			"nonce()": "affed0e0",
			"owner()": "8da5cb5b",
			"removeOwner(address,address,uint256)": "f8dc5dd9",
			"setFallbackHandler(address)": "f08a0323",
			"setGuard(address)": "e19a9dd9",
			"setup(address[],uint256,address,bytes,address,address,uint256,address)": "b63e800d",
			"signedMessages(bytes32)": "5ae6bd37",
			"simulateAndRevert(address,bytes)": "b4faba09",
			"swapOwner(address,address,address)": "e318b52b",
			"symbol()": "95d89b41",
			"totalSupply()": "18160ddd",
			"transfer(address,uint256)": "a9059cbb",
			"transferFrom(address,address,uint256)": "23b872dd"
		}
	},
	"abi": [
		{
			"inputs": [
				{
					"internalType": "string",
					"name": "name_",
					"type": "string"
				},
				{
					"internalType": "string",
					"name": "symbol_",
					"type": "string"
				}
			],
			"stateMutability": "nonpayable",
			"type": "constructor"
		},
		{
			"anonymous": false,
			"inputs": [
				{
					"indexed": false,
					"internalType": "address",
					"name": "owner",
					"type": "address"
				}
			],
			"name": "AddedOwner",
			"type": "event"
		},
		{
			"anonymous": false,
			"inputs": [
				{
					"indexed": true,
					"internalType": "address",
					"name": "owner",
					"type": "address"
				},
				{
					"indexed": true,
					"internalType": "address",
					"name": "spender",
					"type": "address"
				},
				{
					"indexed": false,
					"internalType": "uint256",
					"name": "value",
					"type": "uint256"
				}
			],
			"name": "Approval",
			"type": "event"
		},
		{
			"anonymous": false,
			"inputs": [
				{
					"indexed": true,
					"internalType": "bytes32",
					"name": "approvedHash",
					"type": "bytes32"
				},
				{
					"indexed": true,
					"internalType": "address",
					"name": "owner",
					"type": "address"
				}
			],
			"name": "ApproveHash",
			"type": "event"
		},
		{
			"anonymous": false,
			"inputs": [
				{
					"indexed": false,
					"internalType": "address",
					"name": "handler",
					"type": "address"
				}
			],
			"name": "ChangedFallbackHandler",
			"type": "event"
		},
		{
			"anonymous": false,
			"inputs": [
				{
					"indexed": false,
					"internalType": "address",
					"name": "guard",
					"type": "address"
				}
			],
			"name": "ChangedGuard",
			"type": "event"
		},
		{
			"anonymous": false,
			"inputs": [
				{
					"indexed": false,
					"internalType": "uint256",
					"name": "threshold",
					"type": "uint256"
				}
			],
			"name": "ChangedThreshold",
			"type": "event"
		},
		{
			"anonymous": false,
			"inputs": [
				{
					"indexed": false,
					"internalType": "address",
					"name": "module",
					"type": "address"
				}
			],
			"name": "DisabledModule",
			"type": "event"
		},
		{
			"anonymous": false,
			"inputs": [
				{
					"indexed": false,
					"internalType": "address",
					"name": "module",
					"type": "address"
				}
			],
			"name": "EnabledModule",
			"type": "event"
		},
		{
			"anonymous": false,
			"inputs": [
				{
					"indexed": false,
					"internalType": "bytes32",
					"name": "txHash",
					"type": "bytes32"
				},
				{
					"indexed": false,
					"internalType": "uint256",
					"name": "payment",
					"type": "uint256"
				}
			],
			"name": "ExecutionFailure",
			"type": "event"
		},
		{
			"anonymous": false,
			"inputs": [
				{
					"indexed": true,
					"internalType": "address",
					"name": "module",
					"type": "address"
				}
			],
			"name": "ExecutionFromModuleFailure",
			"type": "event"
		},
		{
			"anonymous": false,
			"inputs": [
				{
					"indexed": true,
					"internalType": "address",
					"name": "module",
					"type": "address"
				}
			],
			"name": "ExecutionFromModuleSuccess",
			"type": "event"
		},
		{
			"anonymous": false,
			"inputs": [
				{
					"indexed": false,
					"internalType": "bytes32",
					"name": "txHash",
					"type": "bytes32"
				},
				{
					"indexed": false,
					"internalType": "uint256",
					"name": "payment",
					"type": "uint256"
				}
			],
			"name": "ExecutionSuccess",
			"type": "event"
		},
		{
			"anonymous": false,
			"inputs": [
				{
					"indexed": true,
					"internalType": "address",
					"name": "account",
					"type": "address"
				},
				{
					"indexed": false,
					"internalType": "uint256",
					"name": "amount",
					"type": "uint256"
				}
			],
			"name": "Exit",
			"type": "event"
		},
		{
			"anonymous": false,
			"inputs": [
				{
					"indexed": true,
					"internalType": "address",
					"name": "account",
					"type": "address"
				},
				{
					"indexed": false,
					"internalType": "uint256",
					"name": "amount",
					"type": "uint256"
				},
				{
					"indexed": false,
					"internalType": "address",
					"name": "investToken",
					"type": "address"
				},
				{
					"indexed": false,
					"internalType": "uint256",
					"name": "investAmount",
					"type": "uint256"
				}
			],
			"name": "Join",
			"type": "event"
		},
		{
			"anonymous": false,
			"inputs": [
				{
					"indexed": false,
					"internalType": "address",
					"name": "owner",
					"type": "address"
				}
			],
			"name": "RemovedOwner",
			"type": "event"
		},
		{
			"anonymous": false,
			"inputs": [
				{
					"indexed": true,
					"internalType": "address",
					"name": "sender",
					"type": "address"
				},
				{
					"indexed": false,
					"internalType": "uint256",
					"name": "value",
					"type": "uint256"
				}
			],
			"name": "SafeReceived",
			"type": "event"
		},
		{
			"anonymous": false,
			"inputs": [
				{
					"indexed": true,
					"internalType": "address",
					"name": "initiator",
					"type": "address"
				},
				{
					"indexed": false,
					"internalType": "address[]",
					"name": "owners",
					"type": "address[]"
				},
				{
					"indexed": false,
					"internalType": "uint256",
					"name": "threshold",
					"type": "uint256"
				},
				{
					"indexed": false,
					"internalType": "address",
					"name": "initializer",
					"type": "address"
				},
				{
					"indexed": false,
					"internalType": "address",
					"name": "fallbackHandler",
					"type": "address"
				}
			],
			"name": "SafeSetup",
			"type": "event"
		},
		{
			"anonymous": false,
			"inputs": [
				{
					"indexed": true,
					"internalType": "bytes32",
					"name": "msgHash",
					"type": "bytes32"
				}
			],
			"name": "SignMsg",
			"type": "event"
		},
		{
			"anonymous": false,
			"inputs": [
				{
					"indexed": true,
					"internalType": "address",
					"name": "from",
					"type": "address"
				},
				{
					"indexed": true,
					"internalType": "address",
					"name": "to",
					"type": "address"
				},
				{
					"indexed": false,
					"internalType": "uint256",
					"name": "value",
					"type": "uint256"
				}
			],
			"name": "Transfer",
			"type": "event"
		},
		{
			"stateMutability": "nonpayable",
			"type": "fallback"
		},
		{
			"inputs": [],
			"name": "VERSION",
			"outputs": [
				{
					"internalType": "string",
					"name": "",
					"type": "string"
				}
			],
			"stateMutability": "view",
			"type": "function"
		},
		{
			"inputs": [
				{
					"internalType": "address",
					"name": "owner",
					"type": "address"
				},
				{
					"internalType": "uint256",
					"name": "_threshold",
					"type": "uint256"
				}
			],
			"name": "addOwnerWithThreshold",
			"outputs": [],
			"stateMutability": "nonpayable",
			"type": "function"
		},
		{
			"inputs": [
				{
					"internalType": "address",
					"name": "owner",
					"type": "address"
				},
				{
					"internalType": "address",
					"name": "spender",
					"type": "address"
				}
			],
			"name": "allowance",
			"outputs": [
				{
					"internalType": "uint256",
					"name": "",
					"type": "uint256"
				}
			],
			"stateMutability": "view",
			"type": "function"
		},
		{
			"inputs": [
				{
					"internalType": "address",
					"name": "spender",
					"type": "address"
				},
				{
					"internalType": "uint256",
					"name": "amount",
					"type": "uint256"
				}
			],
			"name": "approve",
			"outputs": [
				{
					"internalType": "bool",
					"name": "",
					"type": "bool"
				}
			],
			"stateMutability": "nonpayable",
			"type": "function"
		},
		{
			"inputs": [
				{
					"internalType": "bytes32",
					"name": "hashToApprove",
					"type": "bytes32"
				}
			],
			"name": "approveHash",
			"outputs": [],
			"stateMutability": "nonpayable",
			"type": "function"
		},
		{
			"inputs": [
				{
					"internalType": "address",
					"name": "",
					"type": "address"
				},
				{
					"internalType": "bytes32",
					"name": "",
					"type": "bytes32"
				}
			],
			"name": "approvedHashes",
			"outputs": [
				{
					"internalType": "uint256",
					"name": "",
					"type": "uint256"
				}
			],
			"stateMutability": "view",
			"type": "function"
		},
		{
			"inputs": [
				{
					"internalType": "address",
					"name": "account",
					"type": "address"
				}
			],
			"name": "balanceOf",
			"outputs": [
				{
					"internalType": "uint256",
					"name": "",
					"type": "uint256"
				}
			],
			"stateMutability": "view",
			"type": "function"
		},
		{
			"inputs": [
				{
					"internalType": "address",
					"name": "account",
					"type": "address"
				},
				{
					"internalType": "address",
					"name": "receiver",
					"type": "address"
				},
				{
					"internalType": "uint256",
					"name": "burnAmount",
					"type": "uint256"
				},
				{
					"internalType": "address[]",
					"name": "exitTokens",
					"type": "address[]"
				}
			],
			"name": "burnAndExit",
			"outputs": [],
			"stateMutability": "nonpayable",
			"type": "function"
		},
		{
			"inputs": [
				{
					"internalType": "uint256",
					"name": "_threshold",
					"type": "uint256"
				}
			],
			"name": "changeThreshold",
			"outputs": [],
			"stateMutability": "nonpayable",
			"type": "function"
		},
		{
			"inputs": [
				{
					"internalType": "bytes32",
					"name": "dataHash",
					"type": "bytes32"
				},
				{
					"internalType": "bytes",
					"name": "data",
					"type": "bytes"
				},
				{
					"internalType": "bytes",
					"name": "signatures",
					"type": "bytes"
				},
				{
					"internalType": "uint256",
					"name": "requiredSignatures",
					"type": "uint256"
				}
			],
			"name": "checkNSignatures",
			"outputs": [],
			"stateMutability": "view",
			"type": "function"
		},
		{
			"inputs": [
				{
					"internalType": "bytes32",
					"name": "dataHash",
					"type": "bytes32"
				},
				{
					"internalType": "bytes",
					"name": "data",
					"type": "bytes"
				},
				{
					"internalType": "bytes",
					"name": "signatures",
					"type": "bytes"
				}
			],
			"name": "checkSignatures",
			"outputs": [],
			"stateMutability": "view",
			"type": "function"
		},
		{
			"inputs": [],
			"name": "decimals",
			"outputs": [
				{
					"internalType": "uint8",
					"name": "",
					"type": "uint8"
				}
			],
			"stateMutability": "view",
			"type": "function"
		},
		{
			"inputs": [
				{
					"internalType": "address",
					"name": "spender",
					"type": "address"
				},
				{
					"internalType": "uint256",
					"name": "subtractedValue",
					"type": "uint256"
				}
			],
			"name": "decreaseAllowance",
			"outputs": [
				{
					"internalType": "bool",
					"name": "",
					"type": "bool"
				}
			],
			"stateMutability": "nonpayable",
			"type": "function"
		},
		{
			"inputs": [
				{
					"internalType": "address",
					"name": "prevModule",
					"type": "address"
				},
				{
					"internalType": "address",
					"name": "module",
					"type": "address"
				}
			],
			"name": "disableModule",
			"outputs": [],
			"stateMutability": "nonpayable",
			"type": "function"
		},
		{
			"inputs": [],
			"name": "domainSeparator",
			"outputs": [
				{
					"internalType": "bytes32",
					"name": "",
					"type": "bytes32"
				}
			],
			"stateMutability": "view",
			"type": "function"
		},
		{
			"inputs": [
				{
					"internalType": "address",
					"name": "module",
					"type": "address"
				}
			],
			"name": "enableModule",
			"outputs": [],
			"stateMutability": "nonpayable",
			"type": "function"
		},
		{
			"inputs": [
				{
					"internalType": "address",
					"name": "to",
					"type": "address"
				},
				{
					"internalType": "uint256",
					"name": "value",
					"type": "uint256"
				},
				{
					"internalType": "bytes",
					"name": "data",
					"type": "bytes"
				},
				{
					"internalType": "enum Enum.Operation",
					"name": "operation",
					"type": "uint8"
				},
				{
					"internalType": "uint256",
					"name": "safeTxGas",
					"type": "uint256"
				},
				{
					"internalType": "uint256",
					"name": "baseGas",
					"type": "uint256"
				},
				{
					"internalType": "uint256",
					"name": "gasPrice",
					"type": "uint256"
				},
				{
					"internalType": "address",
					"name": "gasToken",
					"type": "address"
				},
				{
					"internalType": "address",
					"name": "refundReceiver",
					"type": "address"
				},
				{
					"internalType": "uint256",
					"name": "_nonce",
					"type": "uint256"
				}
			],
			"name": "encodeTransactionData",
			"outputs": [
				{
					"internalType": "bytes",
					"name": "",
					"type": "bytes"
				}
			],
			"stateMutability": "view",
			"type": "function"
		},
		{
			"inputs": [
				{
					"internalType": "address",
					"name": "to",
					"type": "address"
				},
				{
					"internalType": "uint256",
					"name": "value",
					"type": "uint256"
				},
				{
					"internalType": "bytes",
					"name": "data",
					"type": "bytes"
				},
				{
					"internalType": "enum Enum.Operation",
					"name": "operation",
					"type": "uint8"
				},
				{
					"internalType": "uint256",
					"name": "safeTxGas",
					"type": "uint256"
				},
				{
					"internalType": "uint256",
					"name": "baseGas",
					"type": "uint256"
				},
				{
					"internalType": "uint256",
					"name": "gasPrice",
					"type": "uint256"
				},
				{
					"internalType": "address",
					"name": "gasToken",
					"type": "address"
				},
				{
					"internalType": "address payable",
					"name": "refundReceiver",
					"type": "address"
				},
				{
					"internalType": "bytes",
					"name": "signatures",
					"type": "bytes"
				}
			],
			"name": "execTransaction",
			"outputs": [
				{
					"internalType": "bool",
					"name": "success",
					"type": "bool"
				}
			],
			"stateMutability": "payable",
			"type": "function"
		},
		{
			"inputs": [
				{
					"internalType": "address",
					"name": "to",
					"type": "address"
				},
				{
					"internalType": "uint256",
					"name": "value",
					"type": "uint256"
				},
				{
					"internalType": "bytes",
					"name": "data",
					"type": "bytes"
				},
				{
					"internalType": "enum Enum.Operation",
					"name": "operation",
					"type": "uint8"
				}
			],
			"name": "execTransactionFromModule",
			"outputs": [
				{
					"internalType": "bool",
					"name": "success",
					"type": "bool"
				}
			],
			"stateMutability": "nonpayable",
			"type": "function"
		},
		{
			"inputs": [
				{
					"internalType": "address",
					"name": "to",
					"type": "address"
				},
				{
					"internalType": "uint256",
					"name": "value",
					"type": "uint256"
				},
				{
					"internalType": "bytes",
					"name": "data",
					"type": "bytes"
				},
				{
					"internalType": "enum Enum.Operation",
					"name": "operation",
					"type": "uint8"
				}
			],
			"name": "execTransactionFromModuleReturnData",
			"outputs": [
				{
					"internalType": "bool",
					"name": "success",
					"type": "bool"
				},
				{
					"internalType": "bytes",
					"name": "returnData",
					"type": "bytes"
				}
			],
			"stateMutability": "nonpayable",
			"type": "function"
		},
		{
			"inputs": [],
			"name": "getChainId",
			"outputs": [
				{
					"internalType": "uint256",
					"name": "",
					"type": "uint256"
				}
			],
			"stateMutability": "view",
			"type": "function"
		},
		{
			"inputs": [
				{
					"internalType": "address",
					"name": "start",
					"type": "address"
				},
				{
					"internalType": "uint256",
					"name": "pageSize",
					"type": "uint256"
				}
			],
			"name": "getModulesPaginated",
			"outputs": [
				{
					"internalType": "address[]",
					"name": "array",
					"type": "address[]"
				},
				{
					"internalType": "address",
					"name": "next",
					"type": "address"
				}
			],
			"stateMutability": "view",
			"type": "function"
		},
		{
			"inputs": [],
			"name": "getOwners",
			"outputs": [
				{
					"internalType": "address[]",
					"name": "",
					"type": "address[]"
				}
			],
			"stateMutability": "view",
			"type": "function"
		},
		{
			"inputs": [
				{
					"internalType": "uint256",
					"name": "offset",
					"type": "uint256"
				},
				{
					"internalType": "uint256",
					"name": "length",
					"type": "uint256"
				}
			],
			"name": "getStorageAt",
			"outputs": [
				{
					"internalType": "bytes",
					"name": "",
					"type": "bytes"
				}
			],
			"stateMutability": "view",
			"type": "function"
		},
		{
			"inputs": [],
			"name": "getThreshold",
			"outputs": [
				{
					"internalType": "uint256",
					"name": "",
					"type": "uint256"
				}
			],
			"stateMutability": "view",
			"type": "function"
		},
		{
			"inputs": [
				{
					"internalType": "address",
					"name": "to",
					"type": "address"
				},
				{
					"internalType": "uint256",
					"name": "value",
					"type": "uint256"
				},
				{
					"internalType": "bytes",
					"name": "data",
					"type": "bytes"
				},
				{
					"internalType": "enum Enum.Operation",
					"name": "operation",
					"type": "uint8"
				},
				{
					"internalType": "uint256",
					"name": "safeTxGas",
					"type": "uint256"
				},
				{
					"internalType": "uint256",
					"name": "baseGas",
					"type": "uint256"
				},
				{
					"internalType": "uint256",
					"name": "gasPrice",
					"type": "uint256"
				},
				{
					"internalType": "address",
					"name": "gasToken",
					"type": "address"
				},
				{
					"internalType": "address",
					"name": "refundReceiver",
					"type": "address"
				},
				{
					"internalType": "uint256",
					"name": "_nonce",
					"type": "uint256"
				}
			],
			"name": "getTransactionHash",
			"outputs": [
				{
					"internalType": "bytes32",
					"name": "",
					"type": "bytes32"
				}
			],
			"stateMutability": "view",
			"type": "function"
		},
		{
			"inputs": [
				{
					"internalType": "address",
					"name": "spender",
					"type": "address"
				},
				{
					"internalType": "uint256",
					"name": "addedValue",
					"type": "uint256"
				}
			],
			"name": "increaseAllowance",
			"outputs": [
				{
					"internalType": "bool",
					"name": "",
					"type": "bool"
				}
			],
			"stateMutability": "nonpayable",
			"type": "function"
		},
		{
			"inputs": [
				{
					"internalType": "address",
					"name": "module",
					"type": "address"
				}
			],
			"name": "isModuleEnabled",
			"outputs": [
				{
					"internalType": "bool",
					"name": "",
					"type": "bool"
				}
			],
			"stateMutability": "view",
			"type": "function"
		},
		{
			"inputs": [
				{
					"internalType": "address",
					"name": "owner",
					"type": "address"
				}
			],
			"name": "isOwner",
			"outputs": [
				{
					"internalType": "bool",
					"name": "",
					"type": "bool"
				}
			],
			"stateMutability": "view",
			"type": "function"
		},
		{
			"inputs": [
				{
					"internalType": "address",
					"name": "payer",
					"type": "address"
				},
				{
					"internalType": "address",
					"name": "receiver",
					"type": "address"
				},
				{
					"internalType": "uint256",
					"name": "mintAmount",
					"type": "uint256"
				},
				{
					"internalType": "address",
					"name": "investToken",
					"type": "address"
				},
				{
					"internalType": "uint256",
					"name": "investAmount",
					"type": "uint256"
				}
			],
			"name": "joinAndMint",
			"outputs": [],
			"stateMutability": "payable",
			"type": "function"
		},
		{
			"inputs": [],
			"name": "last_completed_migration",
			"outputs": [
				{
					"internalType": "uint256",
					"name": "",
					"type": "uint256"
				}
			],
			"stateMutability": "view",
			"type": "function"
		},
		{
			"inputs": [],
			"name": "name",
			"outputs": [
				{
					"internalType": "string",
					"name": "",
					"type": "string"
				}
			],
			"stateMutability": "view",
			"type": "function"
		},
		{
			"inputs": [],
			"name": "nonce",
			"outputs": [
				{
					"internalType": "uint256",
					"name": "",
					"type": "uint256"
				}
			],
			"stateMutability": "view",
			"type": "function"
		},
		{
			"inputs": [],
			"name": "owner",
			"outputs": [
				{
					"internalType": "address",
					"name": "",
					"type": "address"
				}
			],
			"stateMutability": "view",
			"type": "function"
		},
		{
			"inputs": [
				{
					"internalType": "address",
					"name": "prevOwner",
					"type": "address"
				},
				{
					"internalType": "address",
					"name": "owner",
					"type": "address"
				},
				{
					"internalType": "uint256",
					"name": "_threshold",
					"type": "uint256"
				}
			],
			"name": "removeOwner",
			"outputs": [],
			"stateMutability": "nonpayable",
			"type": "function"
		},
		{
			"inputs": [
				{
					"internalType": "address",
					"name": "handler",
					"type": "address"
				}
			],
			"name": "setFallbackHandler",
			"outputs": [],
			"stateMutability": "nonpayable",
			"type": "function"
		},
		{
			"inputs": [
				{
					"internalType": "address",
					"name": "guard",
					"type": "address"
				}
			],
			"name": "setGuard",
			"outputs": [],
			"stateMutability": "nonpayable",
			"type": "function"
		},
		{
			"inputs": [
				{
					"internalType": "address[]",
					"name": "_owners",
					"type": "address[]"
				},
				{
					"internalType": "uint256",
					"name": "_threshold",
					"type": "uint256"
				},
				{
					"internalType": "address",
					"name": "to",
					"type": "address"
				},
				{
					"internalType": "bytes",
					"name": "data",
					"type": "bytes"
				},
				{
					"internalType": "address",
					"name": "fallbackHandler",
					"type": "address"
				},
				{
					"internalType": "address",
					"name": "paymentToken",
					"type": "address"
				},
				{
					"internalType": "uint256",
					"name": "payment",
					"type": "uint256"
				},
				{
					"internalType": "address payable",
					"name": "paymentReceiver",
					"type": "address"
				}
			],
			"name": "setup",
			"outputs": [],
			"stateMutability": "nonpayable",
			"type": "function"
		},
		{
			"inputs": [
				{
					"internalType": "bytes32",
					"name": "",
					"type": "bytes32"
				}
			],
			"name": "signedMessages",
			"outputs": [
				{
					"internalType": "uint256",
					"name": "",
					"type": "uint256"
				}
			],
			"stateMutability": "view",
			"type": "function"
		},
		{
			"inputs": [
				{
					"internalType": "address",
					"name": "targetContract",
					"type": "address"
				},
				{
					"internalType": "bytes",
					"name": "calldataPayload",
					"type": "bytes"
				}
			],
			"name": "simulateAndRevert",
			"outputs": [],
			"stateMutability": "nonpayable",
			"type": "function"
		},
		{
			"inputs": [
				{
					"internalType": "address",
					"name": "prevOwner",
					"type": "address"
				},
				{
					"internalType": "address",
					"name": "oldOwner",
					"type": "address"
				},
				{
					"internalType": "address",
					"name": "newOwner",
					"type": "address"
				}
			],
			"name": "swapOwner",
			"outputs": [],
			"stateMutability": "nonpayable",
			"type": "function"
		},
		{
			"inputs": [],
			"name": "symbol",
			"outputs": [
				{
					"internalType": "string",
					"name": "",
					"type": "string"
				}
			],
			"stateMutability": "view",
			"type": "function"
		},
		{
			"inputs": [],
			"name": "totalSupply",
			"outputs": [
				{
					"internalType": "uint256",
					"name": "",
					"type": "uint256"
				}
			],
			"stateMutability": "view",
			"type": "function"
		},
		{
			"inputs": [
				{
					"internalType": "address",
					"name": "to",
					"type": "address"
				},
				{
					"internalType": "uint256",
					"name": "amount",
					"type": "uint256"
				}
			],
			"name": "transfer",
			"outputs": [
				{
					"internalType": "bool",
					"name": "",
					"type": "bool"
				}
			],
			"stateMutability": "nonpayable",
			"type": "function"
		},
		{
			"inputs": [
				{
					"internalType": "address",
					"name": "from",
					"type": "address"
				},
				{
					"internalType": "address",
					"name": "to",
					"type": "address"
				},
				{
					"internalType": "uint256",
					"name": "amount",
					"type": "uint256"
				}
			],
			"name": "transferFrom",
			"outputs": [
				{
					"internalType": "bool",
					"name": "",
					"type": "bool"
				}
			],
			"stateMutability": "nonpayable",
			"type": "function"
		},
		{
			"stateMutability": "payable",
			"type": "receive"
		}
	]
}