{
	"data": {
		"bytecode": {
			"linkReferences": {},
			"object": "60806040523480156200001157600080fd5b5060405162002972380380620029728339810160408190526200003491620003ab565b604080516000815260208101909152620151809082908462000066600080516020620028f2833981519152806200027d565b6200009060008051602062002912833981519152600080516020620028f28339815191526200027d565b620000ba60008051602062002932833981519152600080516020620028f28339815191526200027d565b620000e460008051602062002952833981519152600080516020620028f28339815191526200027d565b620000ff600080516020620028f283398151915230620002c8565b6001600160a01b038116156200012a576200012a600080516020620028f283398151915282620002c8565b60005b8351811015620001b057620001746000805160206200291283398151915285838151811062000160576200016062000494565b6020026020010151620002c860201b60201c565b6200019d6000805160206200295283398151915285838151811062000160576200016062000494565b620001a881620004aa565b90506200012d565b5060005b8251811015620001fa57620001e76000805160206200293283398151915284838151811062000160576200016062000494565b620001f281620004aa565b9050620001b4565b5060028490556040805160008152602081018690527f11c24f4ead16507c69ac467fbd5e4eed5fb5c699626d2cc6d66421df253886d5910160405180910390a15050600380546001600160a01b0319166001600160a01b038616179055506200027590506000805160206200293283398151915283620002c8565b5050620004d2565b600082815260208190526040808220600101805490849055905190918391839186917fbd79b86ffe0ab8e8776151514217cd7cacd52c909f66475c3af44e129f0b00ff9190a4505050565b620002d48282620002d8565b5050565b6000828152602081815260408083206001600160a01b038516845290915290205460ff16620002d4576000828152602081815260408083206001600160a01b03851684529091529020805460ff19166001179055620003343390565b6001600160a01b0316816001600160a01b0316837f2f8788117e7eff1d82e926ec794901d17c78024a50270940304540a733656f0d60405160405180910390a45050565b80516001600160a01b03811681146200039057600080fd5b919050565b634e487b7160e01b600052604160045260246000fd5b60008060408385031215620003bf57600080fd5b620003ca8362000378565b602084810151919350906001600160401b0380821115620003ea57600080fd5b818601915086601f830112620003ff57600080fd5b81518181111562000414576200041462000395565b8060051b604051601f19603f830116810181811085821117156200043c576200043c62000395565b6040529182528482019250838101850191898311156200045b57600080fd5b938501935b828510156200048457620004748562000378565b8452938501939285019262000460565b8096505050505050509250929050565b634e487b7160e01b600052603260045260246000fd5b600060018201620004cb57634e487b7160e01b600052601160045260246000fd5b5060010190565b61241080620004e26000396000f3fe6080604052600436106102085760003560e01c8063885a1ffa11610118578063bc197c81116100a0578063e38335e51161006f578063e38335e5146106ce578063f23a6e61146106e1578063f27a0c921461070d578063f35a84fc14610722578063ffa1ad741461074257600080fd5b8063bc197c8114610635578063c4d252f514610661578063d45c443514610681578063d547741f146106ae57600080fd5b806399409a30116100e757806399409a3014610572578063a217fddf14610592578063a3f4df7e146105a7578063b08e51c0146105e1578063b1c5f4271461061557600080fd5b8063885a1ffa146104c65780638f2a0bb0146104fe5780638f61f4f51461051e57806391d148541461055257600080fd5b80632ab0f5291161019b5780633adbbc5c1161016a5780633adbbc5c14610419578063584b153e1461043957806361b894fb1461045957806364d62353146104865780638065657f146104a657600080fd5b80632ab0f529146103885780632f2ff15d146103b957806331d50750146103d957806336568abe146103f957600080fd5b8063134008d3116101d7578063134008d3146102e157806313bc9f20146102f4578063150b7a0214610314578063248a9ca31461035857600080fd5b806301d5062a1461021457806301ffc9a71461023657806307bd02651461026b5780630d3cf6fc146102ad57600080fd5b3661020f57005b600080fd5b34801561022057600080fd5b5061023461022f366004611921565b610773565b005b34801561024257600080fd5b50610256610251366004611995565b610849565b60405190151581526020015b60405180910390f35b34801561027757600080fd5b5061029f7fd8aa0f3194971a2a116679f7c2090f6939c8d4e01a2a8d7e41d55e5351469e6381565b604051908152602001610262565b3480156102b957600080fd5b5061029f7f5f58e3a2316349923ce3780f8d587db2d72378aed66a8261c916544fa6846ca581565b6102346102ef3660046119bf565b610874565b34801561030057600080fd5b5061025661030f366004611a2a565b610929565b34801561032057600080fd5b5061033f61032f366004611af8565b630a85bd0160e11b949350505050565b6040516001600160e01b03199091168152602001610262565b34801561036457600080fd5b5061029f610373366004611a2a565b60009081526020819052604090206001015490565b34801561039457600080fd5b506102566103a3366004611a2a565b6000908152600160208190526040909120541490565b3480156103c557600080fd5b506102346103d4366004611b5f565b61094f565b3480156103e557600080fd5b506102566103f4366004611a2a565b610979565b34801561040557600080fd5b50610234610414366004611b5f565b610992565b34801561042557600080fd5b50610234610434366004611b8b565b610a15565b34801561044557600080fd5b50610256610454366004611a2a565b610b9e565b34801561046557600080fd5b50610479610474366004611b8b565b610bb4565b6040516102629190611c30565b34801561049257600080fd5b506102346104a1366004611a2a565b610c58565b3480156104b257600080fd5b5061029f6104c13660046119bf565b610cfc565b3480156104d257600080fd5b506003546104e6906001600160a01b031681565b6040516001600160a01b039091168152602001610262565b34801561050a57600080fd5b50610234610519366004611c87565b610d3b565b34801561052a57600080fd5b5061029f7fb09aa5aeb3702cfd50b6b62bc4532604938f21248a27a1d5ca736082b6819cc181565b34801561055e57600080fd5b5061025661056d366004611b5f565b610ece565b34801561057e57600080fd5b5061047961058d366004611b8b565b610ef7565b34801561059e57600080fd5b5061029f600081565b3480156105b357600080fd5b506104796040518060400160405280600e81526020016d54727573746565204d6f64756c6560901b81525081565b3480156105ed57600080fd5b5061029f7ffd643c72710c63c0180259aba6b2d05451e3591a24e58b62239378085726f78381565b34801561062157600080fd5b5061029f610630366004611d38565b610f65565b34801561064157600080fd5b5061033f610650366004611e5f565b63bc197c8160e01b95945050505050565b34801561066d57600080fd5b5061023461067c366004611a2a565b610faa565b34801561068d57600080fd5b5061029f61069c366004611a2a565b60009081526001602052604090205490565b3480156106ba57600080fd5b506102346106c9366004611b5f565b61107f565b6102346106dc366004611d38565b6110a4565b3480156106ed57600080fd5b5061033f6106fc366004611f08565b63f23a6e6160e01b95945050505050565b34801561071957600080fd5b5060025461029f565b34801561072e57600080fd5b5061023461073d366004611b8b565b61122e565b34801561074e57600080fd5b50610479604051806040016040528060058152602001640302e312e360dc1b81525081565b7fb09aa5aeb3702cfd50b6b62bc4532604938f21248a27a1d5ca736082b6819cc161079d816112bc565b60006107ad898989898989610cfc565b90506107b981846112c9565b6000817f4cf4410cc57040e44862ef0f45f3dd5a5e02db8eb8add648d4b0e236f1d07dca8b8b8b8b8b8a6040516107f596959493929190611f95565b60405180910390a3831561083e57807f20fda5fd27a1ea7bf5b9567f143ac5470bb059374a27e8f67cb44f946f6d03878560405161083591815260200190565b60405180910390a25b505050505050505050565b60006001600160e01b03198216630271189760e51b148061086e575061086e826113b8565b92915050565b7fd8aa0f3194971a2a116679f7c2090f6939c8d4e01a2a8d7e41d55e5351469e636108a0816000610ece565b6108ae576108ae81336113ed565b60006108be888888888888610cfc565b90506108ca8185611446565b6108d6888888886114e2565b6000817fc2617efa69bab66782fa219543714338489c4e9e178271560a91b82c3f612b588a8a8a8a60405161090e9493929190611fd2565b60405180910390a361091f816115b5565b5050505050505050565b6000818152600160205260408120546001811180156109485750428111155b9392505050565b60008281526020819052604090206001015461096a816112bc565b61097483836115ee565b505050565b60008181526001602052604081205481905b1192915050565b6001600160a01b0381163314610a075760405162461bcd60e51b815260206004820152602f60248201527f416363657373436f6e74726f6c3a2063616e206f6e6c792072656e6f756e636560448201526e103937b632b9903337b91039b2b63360891b60648201526084015b60405180910390fd5b610a118282611672565b5050565b610a1d6116d7565b600354604080516001600160a01b0388811660248301528781166044830152606480830188905283518084039091018152608490920183526020820180516001600160e01b03166302d3844560e01b179052915163468721a760e01b8152919092169163468721a791610a9a918491600091908290600401612004565b6020604051808303816000875af1158015610ab9573d6000803e3d6000fd5b505050506040513d601f19601f82011682018060405250810190610add919061205a565b50600354604080516001600160a01b038781166024830152604480830186905283518084039091018152606490920183526020820180516001600160e01b031663a9059cbb60e01b179052915163468721a760e01b8152919092169163468721a791610b53918691600091908290600401612004565b6020604051808303816000875af1158015610b72573d6000803e3d6000fd5b505050506040513d601f19601f82011682018060405250810190610b96919061205a565b505050505050565b600081815260016020819052604082205461098b565b60606001600160a01b038316610c045760405162461bcd60e51b8152602060048201526015602482015274115512081b9bdd081cdd5c1c1bdc9d1959081e595d605a1b60448201526064016109fe565b63f35a84fc8686868686604051602401610c2295949392919061207c565b60408051601f198184030181529190526020810180516001600160e01b031660e09390931b929092179091529695505050505050565b333014610cbb5760405162461bcd60e51b815260206004820152602b60248201527f54696d656c6f636b436f6e74726f6c6c65723a2063616c6c6572206d7573742060448201526a62652074696d656c6f636b60a81b60648201526084016109fe565b60025460408051918252602082018390527f11c24f4ead16507c69ac467fbd5e4eed5fb5c699626d2cc6d66421df253886d5910160405180910390a1600255565b6000868686868686604051602001610d1996959493929190611f95565b6040516020818303038152906040528051906020012090509695505050505050565b7fb09aa5aeb3702cfd50b6b62bc4532604938f21248a27a1d5ca736082b6819cc1610d65816112bc565b888714610d845760405162461bcd60e51b81526004016109fe906120af565b888514610da35760405162461bcd60e51b81526004016109fe906120af565b6000610db58b8b8b8b8b8b8b8b610f65565b9050610dc181846112c9565b60005b8a811015610e7f5780827f4cf4410cc57040e44862ef0f45f3dd5a5e02db8eb8add648d4b0e236f1d07dca8e8e85818110610e0157610e016120f2565b9050602002016020810190610e169190612108565b8d8d86818110610e2857610e286120f2565b905060200201358c8c87818110610e4157610e416120f2565b9050602002810190610e539190612123565b8c8b604051610e6796959493929190611f95565b60405180910390a3610e788161217f565b9050610dc4565b508315610ec157807f20fda5fd27a1ea7bf5b9567f143ac5470bb059374a27e8f67cb44f946f6d038785604051610eb891815260200190565b60405180910390a25b5050505050505050505050565b6000918252602082815260408084206001600160a01b0393909316845291905290205460ff1690565b60606001600160a01b038316610f475760405162461bcd60e51b8152602060048201526015602482015274115512081b9bdd081cdd5c1c1bdc9d1959081e595d605a1b60448201526064016109fe565b633adbbc5c8686868686604051602401610c2295949392919061207c565b60008888888888888888604051602001610f86989796959493929190612229565b60405160208183030381529060405280519060200120905098975050505050505050565b7ffd643c72710c63c0180259aba6b2d05451e3591a24e58b62239378085726f783610fd4816112bc565b610fdd82610b9e565b6110435760405162461bcd60e51b815260206004820152603160248201527f54696d656c6f636b436f6e74726f6c6c65723a206f7065726174696f6e2063616044820152701b9b9bdd0818994818d85b98d95b1b1959607a1b60648201526084016109fe565b6000828152600160205260408082208290555183917fbaa1eb22f2a492ba1a5fea61b8df4d27c6c8b5f3971e63bb58fa14ff72eedb7091a25050565b60008281526020819052604090206001015461109a816112bc565b6109748383611672565b7fd8aa0f3194971a2a116679f7c2090f6939c8d4e01a2a8d7e41d55e5351469e636110d0816000610ece565b6110de576110de81336113ed565b8786146110fd5760405162461bcd60e51b81526004016109fe906120af565b87841461111c5760405162461bcd60e51b81526004016109fe906120af565b600061112e8a8a8a8a8a8a8a8a610f65565b905061113a8185611446565b60005b898110156112185760008b8b83818110611159576111596120f2565b905060200201602081019061116e9190612108565b905060008a8a84818110611184576111846120f2565b9050602002013590503660008a8a868181106111a2576111a26120f2565b90506020028101906111b49190612123565b915091506111c4848484846114e2565b84867fc2617efa69bab66782fa219543714338489c4e9e178271560a91b82c3f612b58868686866040516111fb9493929190611fd2565b60405180910390a350505050806112119061217f565b905061113d565b50611222816115b5565b50505050505050505050565b6112366116d7565b6003546040516001600160a01b039091169063468721a7908290600090635b48cf7960e11b90611272908b908b908b908b908b9060240161207c565b60408051601f198184030181529181526020820180516001600160e01b03166001600160e01b03199485161790525160e086901b9092168252610b53939291600090600401612004565b6112c681336113ed565b50565b6112d282610979565b156113375760405162461bcd60e51b815260206004820152602f60248201527f54696d656c6f636b436f6e74726f6c6c65723a206f7065726174696f6e20616c60448201526e1c9958591e481cd8da19591d5b1959608a1b60648201526084016109fe565b6002548110156113985760405162461bcd60e51b815260206004820152602660248201527f54696d656c6f636b436f6e74726f6c6c65723a20696e73756666696369656e746044820152652064656c617960d01b60648201526084016109fe565b6113a281426122ca565b6000928352600160205260409092209190915550565b60006001600160e01b03198216637965db0b60e01b148061086e57506301ffc9a760e01b6001600160e01b031983161461086e565b6113f78282610ece565b610a115761140481611710565b61140f836020611722565b6040516020016114209291906122dd565b60408051601f198184030181529082905262461bcd60e51b82526109fe91600401611c30565b61144f82610929565b61146b5760405162461bcd60e51b81526004016109fe90612352565b8015806114875750600081815260016020819052604090912054145b610a115760405162461bcd60e51b815260206004820152602660248201527f54696d656c6f636b436f6e74726f6c6c65723a206d697373696e6720646570656044820152656e64656e637960d01b60648201526084016109fe565b6000846001600160a01b03168484846040516114ff92919061239c565b60006040518083038185875af1925050503d806000811461153c576040519150601f19603f3d011682016040523d82523d6000602084013e611541565b606091505b50509050806115ae5760405162461bcd60e51b815260206004820152603360248201527f54696d656c6f636b436f6e74726f6c6c65723a20756e6465726c79696e6720746044820152721c985b9cd858dd1a5bdb881c995d995c9d1959606a1b60648201526084016109fe565b5050505050565b6115be81610929565b6115da5760405162461bcd60e51b81526004016109fe90612352565b600090815260016020819052604090912055565b6115f88282610ece565b610a11576000828152602081815260408083206001600160a01b03851684529091529020805460ff1916600117905561162e3390565b6001600160a01b0316816001600160a01b0316837f2f8788117e7eff1d82e926ec794901d17c78024a50270940304540a733656f0d60405160405180910390a45050565b61167c8282610ece565b15610a11576000828152602081815260408083206001600160a01b0385168085529252808320805460ff1916905551339285917ff6391f5c32d9c69d2a47ea670b442974b53935d1edc7fd64eb21e047a839171b9190a45050565b33301461170e5760405162461bcd60e51b8152602060048201526005602482015264475330333160d81b60448201526064016109fe565b565b606061086e6001600160a01b03831660145b606060006117318360026123ac565b61173c9060026122ca565b6001600160401b0381111561175357611753611a43565b6040519080825280601f01601f19166020018201604052801561177d576020820181803683370190505b509050600360fc1b81600081518110611798576117986120f2565b60200101906001600160f81b031916908160001a905350600f60fb1b816001815181106117c7576117c76120f2565b60200101906001600160f81b031916908160001a90535060006117eb8460026123ac565b6117f69060016122ca565b90505b600181111561186e576f181899199a1a9b1b9c1cb0b131b232b360811b85600f166010811061182a5761182a6120f2565b1a60f81b828281518110611840576118406120f2565b60200101906001600160f81b031916908160001a90535060049490941c93611867816123c3565b90506117f9565b5083156109485760405162461bcd60e51b815260206004820181905260248201527f537472696e67733a20686578206c656e67746820696e73756666696369656e7460448201526064016109fe565b80356001600160a01b03811681146118d457600080fd5b919050565b60008083601f8401126118eb57600080fd5b5081356001600160401b0381111561190257600080fd5b60208301915083602082850101111561191a57600080fd5b9250929050565b600080600080600080600060c0888a03121561193c57600080fd5b611945886118bd565b96506020880135955060408801356001600160401b0381111561196757600080fd5b6119738a828b016118d9565b989b979a50986060810135976080820135975060a09091013595509350505050565b6000602082840312156119a757600080fd5b81356001600160e01b03198116811461094857600080fd5b60008060008060008060a087890312156119d857600080fd5b6119e1876118bd565b95506020870135945060408701356001600160401b03811115611a0357600080fd5b611a0f89828a016118d9565b979a9699509760608101359660809091013595509350505050565b600060208284031215611a3c57600080fd5b5035919050565b634e487b7160e01b600052604160045260246000fd5b604051601f8201601f191681016001600160401b0381118282101715611a8157611a81611a43565b604052919050565b600082601f830112611a9a57600080fd5b81356001600160401b03811115611ab357611ab3611a43565b611ac6601f8201601f1916602001611a59565b818152846020838601011115611adb57600080fd5b816020850160208301376000918101602001919091529392505050565b60008060008060808587031215611b0e57600080fd5b611b17856118bd565b9350611b25602086016118bd565b92506040850135915060608501356001600160401b03811115611b4757600080fd5b611b5387828801611a89565b91505092959194509250565b60008060408385031215611b7257600080fd5b82359150611b82602084016118bd565b90509250929050565b600080600080600060a08688031215611ba357600080fd5b611bac866118bd565b9450611bba602087016118bd565b935060408601359250611bcf606087016118bd565b949793965091946080013592915050565b60005b83811015611bfb578181015183820152602001611be3565b50506000910152565b60008151808452611c1c816020860160208601611be0565b601f01601f19169290920160200192915050565b6020815260006109486020830184611c04565b60008083601f840112611c5557600080fd5b5081356001600160401b03811115611c6c57600080fd5b6020830191508360208260051b850101111561191a57600080fd5b600080600080600080600080600060c08a8c031215611ca557600080fd5b89356001600160401b0380821115611cbc57600080fd5b611cc88d838e01611c43565b909b50995060208c0135915080821115611ce157600080fd5b611ced8d838e01611c43565b909950975060408c0135915080821115611d0657600080fd5b50611d138c828d01611c43565b9a9d999c50979a969997986060880135976080810135975060a0013595509350505050565b60008060008060008060008060a0898b031215611d5457600080fd5b88356001600160401b0380821115611d6b57600080fd5b611d778c838d01611c43565b909a50985060208b0135915080821115611d9057600080fd5b611d9c8c838d01611c43565b909850965060408b0135915080821115611db557600080fd5b50611dc28b828c01611c43565b999c989b509699959896976060870135966080013595509350505050565b600082601f830112611df157600080fd5b813560206001600160401b03821115611e0c57611e0c611a43565b8160051b611e1b828201611a59565b9283528481018201928281019087851115611e3557600080fd5b83870192505b84831015611e5457823582529183019190830190611e3b565b979650505050505050565b600080600080600060a08688031215611e7757600080fd5b611e80866118bd565b9450611e8e602087016118bd565b935060408601356001600160401b0380821115611eaa57600080fd5b611eb689838a01611de0565b94506060880135915080821115611ecc57600080fd5b611ed889838a01611de0565b93506080880135915080821115611eee57600080fd5b50611efb88828901611a89565b9150509295509295909350565b600080600080600060a08688031215611f2057600080fd5b611f29866118bd565b9450611f37602087016118bd565b9350604086013592506060860135915060808601356001600160401b03811115611f6057600080fd5b611efb88828901611a89565b81835281816020850137506000828201602090810191909152601f909101601f19169091010190565b60018060a01b038716815285602082015260a060408201526000611fbd60a083018688611f6c565b60608301949094525060800152949350505050565b60018060a01b0385168152836020820152606060408201526000611ffa606083018486611f6c565b9695505050505050565b60018060a01b038516815283602082015260806040820152600061202b6080830185611c04565b90506002831061204b57634e487b7160e01b600052602160045260246000fd5b82606083015295945050505050565b60006020828403121561206c57600080fd5b8151801515811461094857600080fd5b6001600160a01b039586168152938516602085015260408401929092529092166060820152608081019190915260a00190565b60208082526023908201527f54696d656c6f636b436f6e74726f6c6c65723a206c656e677468206d69736d616040820152620e8c6d60eb1b606082015260800190565b634e487b7160e01b600052603260045260246000fd5b60006020828403121561211a57600080fd5b610948826118bd565b6000808335601e1984360301811261213a57600080fd5b8301803591506001600160401b0382111561215457600080fd5b60200191503681900382131561191a57600080fd5b634e487b7160e01b600052601160045260246000fd5b60006001820161219157612191612169565b5060010190565b81835260006020808501808196508560051b810191508460005b8781101561221c5782840389528135601e198836030181126121d357600080fd5b870185810190356001600160401b038111156121ee57600080fd5b8036038213156121fd57600080fd5b612208868284611f6c565b9a87019a95505050908401906001016121b2565b5091979650505050505050565b60a0808252810188905260008960c08301825b8b81101561226a576001600160a01b03612255846118bd565b1682526020928301929091019060010161223c565b5083810360208501528881526001600160fb1b0389111561228a57600080fd5b8860051b9150818a602083013701828103602090810160408501526122b29082018789612198565b60608401959095525050608001529695505050505050565b8082018082111561086e5761086e612169565b7f416363657373436f6e74726f6c3a206163636f756e7420000000000000000000815260008351612315816017850160208801611be0565b7001034b99036b4b9b9b4b733903937b6329607d1b6017918401918201528351612346816028840160208801611be0565b01602801949350505050565b6020808252602a908201527f54696d656c6f636b436f6e74726f6c6c65723a206f7065726174696f6e206973604082015269206e6f7420726561647960b01b606082015260800190565b8183823760009101908152919050565b808202811582820484141761086e5761086e612169565b6000816123d2576123d2612169565b50600019019056fea2646970667358221220487e19bb5901808a1741e841402d8d13251d79d120abc295e2f3b3dfb0d1390464736f6c634300081200335f58e3a2316349923ce3780f8d587db2d72378aed66a8261c916544fa6846ca5b09aa5aeb3702cfd50b6b62bc4532604938f21248a27a1d5ca736082b6819cc1d8aa0f3194971a2a116679f7c2090f6939c8d4e01a2a8d7e41d55e5351469e63fd643c72710c63c0180259aba6b2d05451e3591a24e58b62239378085726f783",
			"opcodes": "PUSH1 0x80 PUSH1 0x40 MSTORE CALLVALUE DUP1 ISZERO PUSH3 0x11 JUMPI PUSH1 0x0 DUP1 REVERT JUMPDEST POP PUSH1 0x40 MLOAD PUSH3 0x2972 CODESIZE SUB DUP1 PUSH3 0x2972 DUP4 CODECOPY DUP2 ADD PUSH1 0x40 DUP2 SWAP1 MSTORE PUSH3 0x34 SWAP2 PUSH3 0x3AB JUMP JUMPDEST PUSH1 0x40 DUP1 MLOAD PUSH1 0x0 DUP2 MSTORE PUSH1 0x20 DUP2 ADD SWAP1 SWAP2 MSTORE PUSH3 0x15180 SWAP1 DUP3 SWAP1 DUP5 PUSH3 0x66 PUSH1 0x0 DUP1 MLOAD PUSH1 0x20 PUSH3 0x28F2 DUP4 CODECOPY DUP2 MLOAD SWAP2 MSTORE DUP1 PUSH3 0x27D JUMP JUMPDEST PUSH3 0x90 PUSH1 0x0 DUP1 MLOAD PUSH1 0x20 PUSH3 0x2912 DUP4 CODECOPY DUP2 MLOAD SWAP2 MSTORE PUSH1 0x0 DUP1 MLOAD PUSH1 0x20 PUSH3 0x28F2 DUP4 CODECOPY DUP2 MLOAD SWAP2 MSTORE PUSH3 0x27D JUMP JUMPDEST PUSH3 0xBA PUSH1 0x0 DUP1 MLOAD PUSH1 0x20 PUSH3 0x2932 DUP4 CODECOPY DUP2 MLOAD SWAP2 MSTORE PUSH1 0x0 DUP1 MLOAD PUSH1 0x20 PUSH3 0x28F2 DUP4 CODECOPY DUP2 MLOAD SWAP2 MSTORE PUSH3 0x27D JUMP JUMPDEST PUSH3 0xE4 PUSH1 0x0 DUP1 MLOAD PUSH1 0x20 PUSH3 0x2952 DUP4 CODECOPY DUP2 MLOAD SWAP2 MSTORE PUSH1 0x0 DUP1 MLOAD PUSH1 0x20 PUSH3 0x28F2 DUP4 CODECOPY DUP2 MLOAD SWAP2 MSTORE PUSH3 0x27D JUMP JUMPDEST PUSH3 0xFF PUSH1 0x0 DUP1 MLOAD PUSH1 0x20 PUSH3 0x28F2 DUP4 CODECOPY DUP2 MLOAD SWAP2 MSTORE ADDRESS PUSH3 0x2C8 JUMP JUMPDEST PUSH1 0x1 PUSH1 0x1 PUSH1 0xA0 SHL SUB DUP2 AND ISZERO PUSH3 0x12A JUMPI PUSH3 0x12A PUSH1 0x0 DUP1 MLOAD PUSH1 0x20 PUSH3 0x28F2 DUP4 CODECOPY DUP2 MLOAD SWAP2 MSTORE DUP3 PUSH3 0x2C8 JUMP JUMPDEST PUSH1 0x0 JUMPDEST DUP4 MLOAD DUP2 LT ISZERO PUSH3 0x1B0 JUMPI PUSH3 0x174 PUSH1 0x0 DUP1 MLOAD PUSH1 0x20 PUSH3 0x2912 DUP4 CODECOPY DUP2 MLOAD SWAP2 MSTORE DUP6 DUP4 DUP2 MLOAD DUP2 LT PUSH3 0x160 JUMPI PUSH3 0x160 PUSH3 0x494 JUMP JUMPDEST PUSH1 0x20 MUL PUSH1 0x20 ADD ADD MLOAD PUSH3 0x2C8 PUSH1 0x20 SHL PUSH1 0x20 SHR JUMP JUMPDEST PUSH3 0x19D PUSH1 0x0 DUP1 MLOAD PUSH1 0x20 PUSH3 0x2952 DUP4 CODECOPY DUP2 MLOAD SWAP2 MSTORE DUP6 DUP4 DUP2 MLOAD DUP2 LT PUSH3 0x160 JUMPI PUSH3 0x160 PUSH3 0x494 JUMP JUMPDEST PUSH3 0x1A8 DUP2 PUSH3 0x4AA JUMP JUMPDEST SWAP1 POP PUSH3 0x12D JUMP JUMPDEST POP PUSH1 0x0 JUMPDEST DUP3 MLOAD DUP2 LT ISZERO PUSH3 0x1FA JUMPI PUSH3 0x1E7 PUSH1 0x0 DUP1 MLOAD PUSH1 0x20 PUSH3 0x2932 DUP4 CODECOPY DUP2 MLOAD SWAP2 MSTORE DUP5 DUP4 DUP2 MLOAD DUP2 LT PUSH3 0x160 JUMPI PUSH3 0x160 PUSH3 0x494 JUMP JUMPDEST PUSH3 0x1F2 DUP2 PUSH3 0x4AA JUMP JUMPDEST SWAP1 POP PUSH3 0x1B4 JUMP JUMPDEST POP PUSH1 0x2 DUP5 SWAP1 SSTORE PUSH1 0x40 DUP1 MLOAD PUSH1 0x0 DUP2 MSTORE PUSH1 0x20 DUP2 ADD DUP7 SWAP1 MSTORE PUSH32 0x11C24F4EAD16507C69AC467FBD5E4EED5FB5C699626D2CC6D66421DF253886D5 SWAP2 ADD PUSH1 0x40 MLOAD DUP1 SWAP2 SUB SWAP1 LOG1 POP POP PUSH1 0x3 DUP1 SLOAD PUSH1 0x1 PUSH1 0x1 PUSH1 0xA0 SHL SUB NOT AND PUSH1 0x1 PUSH1 0x1 PUSH1 0xA0 SHL SUB DUP7 AND OR SWAP1 SSTORE POP PUSH3 0x275 SWAP1 POP PUSH1 0x0 DUP1 MLOAD PUSH1 0x20 PUSH3 0x2932 DUP4 CODECOPY DUP2 MLOAD SWAP2 MSTORE DUP4 PUSH3 0x2C8 JUMP JUMPDEST POP POP PUSH3 0x4D2 JUMP JUMPDEST PUSH1 0x0 DUP3 DUP2 MSTORE PUSH1 0x20 DUP2 SWAP1 MSTORE PUSH1 0x40 DUP1 DUP3 KECCAK256 PUSH1 0x1 ADD DUP1 SLOAD SWAP1 DUP5 SWAP1 SSTORE SWAP1 MLOAD SWAP1 SWAP2 DUP4 SWAP2 DUP4 SWAP2 DUP7 SWAP2 PUSH32 0xBD79B86FFE0AB8E8776151514217CD7CACD52C909F66475C3AF44E129F0B00FF SWAP2 SWAP1 LOG4 POP POP POP JUMP JUMPDEST PUSH3 0x2D4 DUP3 DUP3 PUSH3 0x2D8 JUMP JUMPDEST POP POP JUMP JUMPDEST PUSH1 0x0 DUP3 DUP2 MSTORE PUSH1 0x20 DUP2 DUP2 MSTORE PUSH1 0x40 DUP1 DUP4 KECCAK256 PUSH1 0x1 PUSH1 0x1 PUSH1 0xA0 SHL SUB DUP6 AND DUP5 MSTORE SWAP1 SWAP2 MSTORE SWAP1 KECCAK256 SLOAD PUSH1 0xFF AND PUSH3 0x2D4 JUMPI PUSH1 0x0 DUP3 DUP2 MSTORE PUSH1 0x20 DUP2 DUP2 MSTORE PUSH1 0x40 DUP1 DUP4 KECCAK256 PUSH1 0x1 PUSH1 0x1 PUSH1 0xA0 SHL SUB DUP6 AND DUP5 MSTORE SWAP1 SWAP2 MSTORE SWAP1 KECCAK256 DUP1 SLOAD PUSH1 0xFF NOT AND PUSH1 0x1 OR SWAP1 SSTORE PUSH3 0x334 CALLER SWAP1 JUMP JUMPDEST PUSH1 0x1 PUSH1 0x1 PUSH1 0xA0 SHL SUB AND DUP2 PUSH1 0x1 PUSH1 0x1 PUSH1 0xA0 SHL SUB AND DUP4 PUSH32 0x2F8788117E7EFF1D82E926EC794901D17C78024A50270940304540A733656F0D PUSH1 0x40 MLOAD PUSH1 0x40 MLOAD DUP1 SWAP2 SUB SWAP1 LOG4 POP POP JUMP JUMPDEST DUP1 MLOAD PUSH1 0x1 PUSH1 0x1 PUSH1 0xA0 SHL SUB DUP2 AND DUP2 EQ PUSH3 0x390 JUMPI PUSH1 0x0 DUP1 REVERT JUMPDEST SWAP2 SWAP1 POP JUMP JUMPDEST PUSH4 0x4E487B71 PUSH1 0xE0 SHL PUSH1 0x0 MSTORE PUSH1 0x41 PUSH1 0x4 MSTORE PUSH1 0x24 PUSH1 0x0 REVERT JUMPDEST PUSH1 0x0 DUP1 PUSH1 0x40 DUP4 DUP6 SUB SLT ISZERO PUSH3 0x3BF JUMPI PUSH1 0x0 DUP1 REVERT JUMPDEST PUSH3 0x3CA DUP4 PUSH3 0x378 JUMP JUMPDEST PUSH1 0x20 DUP5 DUP2 ADD MLOAD SWAP2 SWAP4 POP SWAP1 PUSH1 0x1 PUSH1 0x1 PUSH1 0x40 SHL SUB DUP1 DUP3 GT ISZERO PUSH3 0x3EA JUMPI PUSH1 0x0 DUP1 REVERT JUMPDEST DUP2 DUP7 ADD SWAP2 POP DUP7 PUSH1 0x1F DUP4 ADD SLT PUSH3 0x3FF JUMPI PUSH1 0x0 DUP1 REVERT JUMPDEST DUP2 MLOAD DUP2 DUP2 GT ISZERO PUSH3 0x414 JUMPI PUSH3 0x414 PUSH3 0x395 JUMP JUMPDEST DUP1 PUSH1 0x5 SHL PUSH1 0x40 MLOAD PUSH1 0x1F NOT PUSH1 0x3F DUP4 ADD AND DUP2 ADD DUP2 DUP2 LT DUP6 DUP3 GT OR ISZERO PUSH3 0x43C JUMPI PUSH3 0x43C PUSH3 0x395 JUMP JUMPDEST PUSH1 0x40 MSTORE SWAP2 DUP3 MSTORE DUP5 DUP3 ADD SWAP3 POP DUP4 DUP2 ADD DUP6 ADD SWAP2 DUP10 DUP4 GT ISZERO PUSH3 0x45B JUMPI PUSH1 0x0 DUP1 REVERT JUMPDEST SWAP4 DUP6 ADD SWAP4 JUMPDEST DUP3 DUP6 LT ISZERO PUSH3 0x484 JUMPI PUSH3 0x474 DUP6 PUSH3 0x378 JUMP JUMPDEST DUP5 MSTORE SWAP4 DUP6 ADD SWAP4 SWAP3 DUP6 ADD SWAP3 PUSH3 0x460 JUMP JUMPDEST DUP1 SWAP7 POP POP POP POP POP POP POP SWAP3 POP SWAP3 SWAP1 POP JUMP JUMPDEST PUSH4 0x4E487B71 PUSH1 0xE0 SHL PUSH1 0x0 MSTORE PUSH1 0x32 PUSH1 0x4 MSTORE PUSH1 0x24 PUSH1 0x0 REVERT JUMPDEST PUSH1 0x0 PUSH1 0x1 DUP3 ADD PUSH3 0x4CB JUMPI PUSH4 0x4E487B71 PUSH1 0xE0 SHL PUSH1 0x0 MSTORE PUSH1 0x11 PUSH1 0x4 MSTORE PUSH1 0x24 PUSH1 0x0 REVERT JUMPDEST POP PUSH1 0x1 ADD SWAP1 JUMP JUMPDEST PUSH2 0x2410 DUP1 PUSH3 0x4E2 PUSH1 0x0 CODECOPY PUSH1 0x0 RETURN INVALID PUSH1 0x80 PUSH1 0x40 MSTORE PUSH1 0x4 CALLDATASIZE LT PUSH2 0x208 JUMPI PUSH1 0x0 CALLDATALOAD PUSH1 0xE0 SHR DUP1 PUSH4 0x885A1FFA GT PUSH2 0x118 JUMPI DUP1 PUSH4 0xBC197C81 GT PUSH2 0xA0 JUMPI DUP1 PUSH4 0xE38335E5 GT PUSH2 0x6F JUMPI DUP1 PUSH4 0xE38335E5 EQ PUSH2 0x6CE JUMPI DUP1 PUSH4 0xF23A6E61 EQ PUSH2 0x6E1 JUMPI DUP1 PUSH4 0xF27A0C92 EQ PUSH2 0x70D JUMPI DUP1 PUSH4 0xF35A84FC EQ PUSH2 0x722 JUMPI DUP1 PUSH4 0xFFA1AD74 EQ PUSH2 0x742 JUMPI PUSH1 0x0 DUP1 REVERT JUMPDEST DUP1 PUSH4 0xBC197C81 EQ PUSH2 0x635 JUMPI DUP1 PUSH4 0xC4D252F5 EQ PUSH2 0x661 JUMPI DUP1 PUSH4 0xD45C4435 EQ PUSH2 0x681 JUMPI DUP1 PUSH4 0xD547741F EQ PUSH2 0x6AE JUMPI PUSH1 0x0 DUP1 REVERT JUMPDEST DUP1 PUSH4 0x99409A30 GT PUSH2 0xE7 JUMPI DUP1 PUSH4 0x99409A30 EQ PUSH2 0x572 JUMPI DUP1 PUSH4 0xA217FDDF EQ PUSH2 0x592 JUMPI DUP1 PUSH4 0xA3F4DF7E EQ PUSH2 0x5A7 JUMPI DUP1 PUSH4 0xB08E51C0 EQ PUSH2 0x5E1 JUMPI DUP1 PUSH4 0xB1C5F427 EQ PUSH2 0x615 JUMPI PUSH1 0x0 DUP1 REVERT JUMPDEST DUP1 PUSH4 0x885A1FFA EQ PUSH2 0x4C6 JUMPI DUP1 PUSH4 0x8F2A0BB0 EQ PUSH2 0x4FE JUMPI DUP1 PUSH4 0x8F61F4F5 EQ PUSH2 0x51E JUMPI DUP1 PUSH4 0x91D14854 EQ PUSH2 0x552 JUMPI PUSH1 0x0 DUP1 REVERT JUMPDEST DUP1 PUSH4 0x2AB0F529 GT PUSH2 0x19B JUMPI DUP1 PUSH4 0x3ADBBC5C GT PUSH2 0x16A JUMPI DUP1 PUSH4 0x3ADBBC5C EQ PUSH2 0x419 JUMPI DUP1 PUSH4 0x584B153E EQ PUSH2 0x439 JUMPI DUP1 PUSH4 0x61B894FB EQ PUSH2 0x459 JUMPI DUP1 PUSH4 0x64D62353 EQ PUSH2 0x486 JUMPI DUP1 PUSH4 0x8065657F EQ PUSH2 0x4A6 JUMPI PUSH1 0x0 DUP1 REVERT JUMPDEST DUP1 PUSH4 0x2AB0F529 EQ PUSH2 0x388 JUMPI DUP1 PUSH4 0x2F2FF15D EQ PUSH2 0x3B9 JUMPI DUP1 PUSH4 0x31D50750 EQ PUSH2 0x3D9 JUMPI DUP1 PUSH4 0x36568ABE EQ PUSH2 0x3F9 JUMPI PUSH1 0x0 DUP1 REVERT JUMPDEST DUP1 PUSH4 0x134008D3 GT PUSH2 0x1D7 JUMPI DUP1 PUSH4 0x134008D3 EQ PUSH2 0x2E1 JUMPI DUP1 PUSH4 0x13BC9F20 EQ PUSH2 0x2F4 JUMPI DUP1 PUSH4 0x150B7A02 EQ PUSH2 0x314 JUMPI DUP1 PUSH4 0x248A9CA3 EQ PUSH2 0x358 JUMPI PUSH1 0x0 DUP1 REVERT JUMPDEST DUP1 PUSH4 0x1D5062A EQ PUSH2 0x214 JUMPI DUP1 PUSH4 0x1FFC9A7 EQ PUSH2 0x236 JUMPI DUP1 PUSH4 0x7BD0265 EQ PUSH2 0x26B JUMPI DUP1 PUSH4 0xD3CF6FC EQ PUSH2 0x2AD JUMPI PUSH1 0x0 DUP1 REVERT JUMPDEST CALLDATASIZE PUSH2 0x20F JUMPI STOP JUMPDEST PUSH1 0x0 DUP1 REVERT JUMPDEST CALLVALUE DUP1 ISZERO PUSH2 0x220 JUMPI PUSH1 0x0 DUP1 REVERT JUMPDEST POP PUSH2 0x234 PUSH2 0x22F CALLDATASIZE PUSH1 0x4 PUSH2 0x1921 JUMP JUMPDEST PUSH2 0x773 JUMP JUMPDEST STOP JUMPDEST CALLVALUE DUP1 ISZERO PUSH2 0x242 JUMPI PUSH1 0x0 DUP1 REVERT JUMPDEST POP PUSH2 0x256 PUSH2 0x251 CALLDATASIZE PUSH1 0x4 PUSH2 0x1995 JUMP JUMPDEST PUSH2 0x849 JUMP JUMPDEST PUSH1 0x40 MLOAD SWAP1 ISZERO ISZERO DUP2 MSTORE PUSH1 0x20 ADD JUMPDEST PUSH1 0x40 MLOAD DUP1 SWAP2 SUB SWAP1 RETURN JUMPDEST CALLVALUE DUP1 ISZERO PUSH2 0x277 JUMPI PUSH1 0x0 DUP1 REVERT JUMPDEST POP PUSH2 0x29F PUSH32 0xD8AA0F3194971A2A116679F7C2090F6939C8D4E01A2A8D7E41D55E5351469E63 DUP2 JUMP JUMPDEST PUSH1 0x40 MLOAD SWAP1 DUP2 MSTORE PUSH1 0x20 ADD PUSH2 0x262 JUMP JUMPDEST CALLVALUE DUP1 ISZERO PUSH2 0x2B9 JUMPI PUSH1 0x0 DUP1 REVERT JUMPDEST POP PUSH2 0x29F PUSH32 0x5F58E3A2316349923CE3780F8D587DB2D72378AED66A8261C916544FA6846CA5 DUP2 JUMP JUMPDEST PUSH2 0x234 PUSH2 0x2EF CALLDATASIZE PUSH1 0x4 PUSH2 0x19BF JUMP JUMPDEST PUSH2 0x874 JUMP JUMPDEST CALLVALUE DUP1 ISZERO PUSH2 0x300 JUMPI PUSH1 0x0 DUP1 REVERT JUMPDEST POP PUSH2 0x256 PUSH2 0x30F CALLDATASIZE PUSH1 0x4 PUSH2 0x1A2A JUMP JUMPDEST PUSH2 0x929 JUMP JUMPDEST CALLVALUE DUP1 ISZERO PUSH2 0x320 JUMPI PUSH1 0x0 DUP1 REVERT JUMPDEST POP PUSH2 0x33F PUSH2 0x32F CALLDATASIZE PUSH1 0x4 PUSH2 0x1AF8 JUMP JUMPDEST PUSH4 0xA85BD01 PUSH1 0xE1 SHL SWAP5 SWAP4 POP POP POP POP JUMP JUMPDEST PUSH1 0x40 MLOAD PUSH1 0x1 PUSH1 0x1 PUSH1 0xE0 SHL SUB NOT SWAP1 SWAP2 AND DUP2 MSTORE PUSH1 0x20 ADD PUSH2 0x262 JUMP JUMPDEST CALLVALUE DUP1 ISZERO PUSH2 0x364 JUMPI PUSH1 0x0 DUP1 REVERT JUMPDEST POP PUSH2 0x29F PUSH2 0x373 CALLDATASIZE PUSH1 0x4 PUSH2 0x1A2A JUMP JUMPDEST PUSH1 0x0 SWAP1 DUP2 MSTORE PUSH1 0x20 DUP2 SWAP1 MSTORE PUSH1 0x40 SWAP1 KECCAK256 PUSH1 0x1 ADD SLOAD SWAP1 JUMP JUMPDEST CALLVALUE DUP1 ISZERO PUSH2 0x394 JUMPI PUSH1 0x0 DUP1 REVERT JUMPDEST POP PUSH2 0x256 PUSH2 0x3A3 CALLDATASIZE PUSH1 0x4 PUSH2 0x1A2A JUMP JUMPDEST PUSH1 0x0 SWAP1 DUP2 MSTORE PUSH1 0x1 PUSH1 0x20 DUP2 SWAP1 MSTORE PUSH1 0x40 SWAP1 SWAP2 KECCAK256 SLOAD EQ SWAP1 JUMP JUMPDEST CALLVALUE DUP1 ISZERO PUSH2 0x3C5 JUMPI PUSH1 0x0 DUP1 REVERT JUMPDEST POP PUSH2 0x234 PUSH2 0x3D4 CALLDATASIZE PUSH1 0x4 PUSH2 0x1B5F JUMP JUMPDEST PUSH2 0x94F JUMP JUMPDEST CALLVALUE DUP1 ISZERO PUSH2 0x3E5 JUMPI PUSH1 0x0 DUP1 REVERT JUMPDEST POP PUSH2 0x256 PUSH2 0x3F4 CALLDATASIZE PUSH1 0x4 PUSH2 0x1A2A JUMP JUMPDEST PUSH2 0x979 JUMP JUMPDEST CALLVALUE DUP1 ISZERO PUSH2 0x405 JUMPI PUSH1 0x0 DUP1 REVERT JUMPDEST POP PUSH2 0x234 PUSH2 0x414 CALLDATASIZE PUSH1 0x4 PUSH2 0x1B5F JUMP JUMPDEST PUSH2 0x992 JUMP JUMPDEST CALLVALUE DUP1 ISZERO PUSH2 0x425 JUMPI PUSH1 0x0 DUP1 REVERT JUMPDEST POP PUSH2 0x234 PUSH2 0x434 CALLDATASIZE PUSH1 0x4 PUSH2 0x1B8B JUMP JUMPDEST PUSH2 0xA15 JUMP JUMPDEST CALLVALUE DUP1 ISZERO PUSH2 0x445 JUMPI PUSH1 0x0 DUP1 REVERT JUMPDEST POP PUSH2 0x256 PUSH2 0x454 CALLDATASIZE PUSH1 0x4 PUSH2 0x1A2A JUMP JUMPDEST PUSH2 0xB9E JUMP JUMPDEST CALLVALUE DUP1 ISZERO PUSH2 0x465 JUMPI PUSH1 0x0 DUP1 REVERT JUMPDEST POP PUSH2 0x479 PUSH2 0x474 CALLDATASIZE PUSH1 0x4 PUSH2 0x1B8B JUMP JUMPDEST PUSH2 0xBB4 JUMP JUMPDEST PUSH1 0x40 MLOAD PUSH2 0x262 SWAP2 SWAP1 PUSH2 0x1C30 JUMP JUMPDEST CALLVALUE DUP1 ISZERO PUSH2 0x492 JUMPI PUSH1 0x0 DUP1 REVERT JUMPDEST POP PUSH2 0x234 PUSH2 0x4A1 CALLDATASIZE PUSH1 0x4 PUSH2 0x1A2A JUMP JUMPDEST PUSH2 0xC58 JUMP JUMPDEST CALLVALUE DUP1 ISZERO PUSH2 0x4B2 JUMPI PUSH1 0x0 DUP1 REVERT JUMPDEST POP PUSH2 0x29F PUSH2 0x4C1 CALLDATASIZE PUSH1 0x4 PUSH2 0x19BF JUMP JUMPDEST PUSH2 0xCFC JUMP JUMPDEST CALLVALUE DUP1 ISZERO PUSH2 0x4D2 JUMPI PUSH1 0x0 DUP1 REVERT JUMPDEST POP PUSH1 0x3 SLOAD PUSH2 0x4E6 SWAP1 PUSH1 0x1 PUSH1 0x1 PUSH1 0xA0 SHL SUB AND DUP2 JUMP JUMPDEST PUSH1 0x40 MLOAD PUSH1 0x1 PUSH1 0x1 PUSH1 0xA0 SHL SUB SWAP1 SWAP2 AND DUP2 MSTORE PUSH1 0x20 ADD PUSH2 0x262 JUMP JUMPDEST CALLVALUE DUP1 ISZERO PUSH2 0x50A JUMPI PUSH1 0x0 DUP1 REVERT JUMPDEST POP PUSH2 0x234 PUSH2 0x519 CALLDATASIZE PUSH1 0x4 PUSH2 0x1C87 JUMP JUMPDEST PUSH2 0xD3B JUMP JUMPDEST CALLVALUE DUP1 ISZERO PUSH2 0x52A JUMPI PUSH1 0x0 DUP1 REVERT JUMPDEST POP PUSH2 0x29F PUSH32 0xB09AA5AEB3702CFD50B6B62BC4532604938F21248A27A1D5CA736082B6819CC1 DUP2 JUMP JUMPDEST CALLVALUE DUP1 ISZERO PUSH2 0x55E JUMPI PUSH1 0x0 DUP1 REVERT JUMPDEST POP PUSH2 0x256 PUSH2 0x56D CALLDATASIZE PUSH1 0x4 PUSH2 0x1B5F JUMP JUMPDEST PUSH2 0xECE JUMP JUMPDEST CALLVALUE DUP1 ISZERO PUSH2 0x57E JUMPI PUSH1 0x0 DUP1 REVERT JUMPDEST POP PUSH2 0x479 PUSH2 0x58D CALLDATASIZE PUSH1 0x4 PUSH2 0x1B8B JUMP JUMPDEST PUSH2 0xEF7 JUMP JUMPDEST CALLVALUE DUP1 ISZERO PUSH2 0x59E JUMPI PUSH1 0x0 DUP1 REVERT JUMPDEST POP PUSH2 0x29F PUSH1 0x0 DUP2 JUMP JUMPDEST CALLVALUE DUP1 ISZERO PUSH2 0x5B3 JUMPI PUSH1 0x0 DUP1 REVERT JUMPDEST POP PUSH2 0x479 PUSH1 0x40 MLOAD DUP1 PUSH1 0x40 ADD PUSH1 0x40 MSTORE DUP1 PUSH1 0xE DUP2 MSTORE PUSH1 0x20 ADD PUSH14 0x54727573746565204D6F64756C65 PUSH1 0x90 SHL DUP2 MSTORE POP DUP2 JUMP JUMPDEST CALLVALUE DUP1 ISZERO PUSH2 0x5ED JUMPI PUSH1 0x0 DUP1 REVERT JUMPDEST POP PUSH2 0x29F PUSH32 0xFD643C72710C63C0180259ABA6B2D05451E3591A24E58B62239378085726F783 DUP2 JUMP JUMPDEST CALLVALUE DUP1 ISZERO PUSH2 0x621 JUMPI PUSH1 0x0 DUP1 REVERT JUMPDEST POP PUSH2 0x29F PUSH2 0x630 CALLDATASIZE PUSH1 0x4 PUSH2 0x1D38 JUMP JUMPDEST PUSH2 0xF65 JUMP JUMPDEST CALLVALUE DUP1 ISZERO PUSH2 0x641 JUMPI PUSH1 0x0 DUP1 REVERT JUMPDEST POP PUSH2 0x33F PUSH2 0x650 CALLDATASIZE PUSH1 0x4 PUSH2 0x1E5F JUMP JUMPDEST PUSH4 0xBC197C81 PUSH1 0xE0 SHL SWAP6 SWAP5 POP POP POP POP POP JUMP JUMPDEST CALLVALUE DUP1 ISZERO PUSH2 0x66D JUMPI PUSH1 0x0 DUP1 REVERT JUMPDEST POP PUSH2 0x234 PUSH2 0x67C CALLDATASIZE PUSH1 0x4 PUSH2 0x1A2A JUMP JUMPDEST PUSH2 0xFAA JUMP JUMPDEST CALLVALUE DUP1 ISZERO PUSH2 0x68D JUMPI PUSH1 0x0 DUP1 REVERT JUMPDEST POP PUSH2 0x29F PUSH2 0x69C CALLDATASIZE PUSH1 0x4 PUSH2 0x1A2A JUMP JUMPDEST PUSH1 0x0 SWAP1 DUP2 MSTORE PUSH1 0x1 PUSH1 0x20 MSTORE PUSH1 0x40 SWAP1 KECCAK256 SLOAD SWAP1 JUMP JUMPDEST CALLVALUE DUP1 ISZERO PUSH2 0x6BA JUMPI PUSH1 0x0 DUP1 REVERT JUMPDEST POP PUSH2 0x234 PUSH2 0x6C9 CALLDATASIZE PUSH1 0x4 PUSH2 0x1B5F JUMP JUMPDEST PUSH2 0x107F JUMP JUMPDEST PUSH2 0x234 PUSH2 0x6DC CALLDATASIZE PUSH1 0x4 PUSH2 0x1D38 JUMP JUMPDEST PUSH2 0x10A4 JUMP JUMPDEST CALLVALUE DUP1 ISZERO PUSH2 0x6ED JUMPI PUSH1 0x0 DUP1 REVERT JUMPDEST POP PUSH2 0x33F PUSH2 0x6FC CALLDATASIZE PUSH1 0x4 PUSH2 0x1F08 JUMP JUMPDEST PUSH4 0xF23A6E61 PUSH1 0xE0 SHL SWAP6 SWAP5 POP POP POP POP POP JUMP JUMPDEST CALLVALUE DUP1 ISZERO PUSH2 0x719 JUMPI PUSH1 0x0 DUP1 REVERT JUMPDEST POP PUSH1 0x2 SLOAD PUSH2 0x29F JUMP JUMPDEST CALLVALUE DUP1 ISZERO PUSH2 0x72E JUMPI PUSH1 0x0 DUP1 REVERT JUMPDEST POP PUSH2 0x234 PUSH2 0x73D CALLDATASIZE PUSH1 0x4 PUSH2 0x1B8B JUMP JUMPDEST PUSH2 0x122E JUMP JUMPDEST CALLVALUE DUP1 ISZERO PUSH2 0x74E JUMPI PUSH1 0x0 DUP1 REVERT JUMPDEST POP PUSH2 0x479 PUSH1 0x40 MLOAD DUP1 PUSH1 0x40 ADD PUSH1 0x40 MSTORE DUP1 PUSH1 0x5 DUP2 MSTORE PUSH1 0x20 ADD PUSH5 0x302E312E3 PUSH1 0xDC SHL DUP2 MSTORE POP DUP2 JUMP JUMPDEST PUSH32 0xB09AA5AEB3702CFD50B6B62BC4532604938F21248A27A1D5CA736082B6819CC1 PUSH2 0x79D DUP2 PUSH2 0x12BC JUMP JUMPDEST PUSH1 0x0 PUSH2 0x7AD DUP10 DUP10 DUP10 DUP10 DUP10 DUP10 PUSH2 0xCFC JUMP JUMPDEST SWAP1 POP PUSH2 0x7B9 DUP2 DUP5 PUSH2 0x12C9 JUMP JUMPDEST PUSH1 0x0 DUP2 PUSH32 0x4CF4410CC57040E44862EF0F45F3DD5A5E02DB8EB8ADD648D4B0E236F1D07DCA DUP12 DUP12 DUP12 DUP12 DUP12 DUP11 PUSH1 0x40 MLOAD PUSH2 0x7F5 SWAP7 SWAP6 SWAP5 SWAP4 SWAP3 SWAP2 SWAP1 PUSH2 0x1F95 JUMP JUMPDEST PUSH1 0x40 MLOAD DUP1 SWAP2 SUB SWAP1 LOG3 DUP4 ISZERO PUSH2 0x83E JUMPI DUP1 PUSH32 0x20FDA5FD27A1EA7BF5B9567F143AC5470BB059374A27E8F67CB44F946F6D0387 DUP6 PUSH1 0x40 MLOAD PUSH2 0x835 SWAP2 DUP2 MSTORE PUSH1 0x20 ADD SWAP1 JUMP JUMPDEST PUSH1 0x40 MLOAD DUP1 SWAP2 SUB SWAP1 LOG2 JUMPDEST POP POP POP POP POP POP POP POP POP JUMP JUMPDEST PUSH1 0x0 PUSH1 0x1 PUSH1 0x1 PUSH1 0xE0 SHL SUB NOT DUP3 AND PUSH4 0x2711897 PUSH1 0xE5 SHL EQ DUP1 PUSH2 0x86E JUMPI POP PUSH2 0x86E DUP3 PUSH2 0x13B8 JUMP JUMPDEST SWAP3 SWAP2 POP POP JUMP JUMPDEST PUSH32 0xD8AA0F3194971A2A116679F7C2090F6939C8D4E01A2A8D7E41D55E5351469E63 PUSH2 0x8A0 DUP2 PUSH1 0x0 PUSH2 0xECE JUMP JUMPDEST PUSH2 0x8AE JUMPI PUSH2 0x8AE DUP2 CALLER PUSH2 0x13ED JUMP JUMPDEST PUSH1 0x0 PUSH2 0x8BE DUP9 DUP9 DUP9 DUP9 DUP9 DUP9 PUSH2 0xCFC JUMP JUMPDEST SWAP1 POP PUSH2 0x8CA DUP2 DUP6 PUSH2 0x1446 JUMP JUMPDEST PUSH2 0x8D6 DUP9 DUP9 DUP9 DUP9 PUSH2 0x14E2 JUMP JUMPDEST PUSH1 0x0 DUP2 PUSH32 0xC2617EFA69BAB66782FA219543714338489C4E9E178271560A91B82C3F612B58 DUP11 DUP11 DUP11 DUP11 PUSH1 0x40 MLOAD PUSH2 0x90E SWAP5 SWAP4 SWAP3 SWAP2 SWAP1 PUSH2 0x1FD2 JUMP JUMPDEST PUSH1 0x40 MLOAD DUP1 SWAP2 SUB SWAP1 LOG3 PUSH2 0x91F DUP2 PUSH2 0x15B5 JUMP JUMPDEST POP POP POP POP POP POP POP POP JUMP JUMPDEST PUSH1 0x0 DUP2 DUP2 MSTORE PUSH1 0x1 PUSH1 0x20 MSTORE PUSH1 0x40 DUP2 KECCAK256 SLOAD PUSH1 0x1 DUP2 GT DUP1 ISZERO PUSH2 0x948 JUMPI POP TIMESTAMP DUP2 GT ISZERO JUMPDEST SWAP4 SWAP3 POP POP POP JUMP JUMPDEST PUSH1 0x0 DUP3 DUP2 MSTORE PUSH1 0x20 DUP2 SWAP1 MSTORE PUSH1 0x40 SWAP1 KECCAK256 PUSH1 0x1 ADD SLOAD PUSH2 0x96A DUP2 PUSH2 0x12BC JUMP JUMPDEST PUSH2 0x974 DUP4 DUP4 PUSH2 0x15EE JUMP JUMPDEST POP POP POP JUMP JUMPDEST PUSH1 0x0 DUP2 DUP2 MSTORE PUSH1 0x1 PUSH1 0x20 MSTORE PUSH1 0x40 DUP2 KECCAK256 SLOAD DUP2 SWAP1 JUMPDEST GT SWAP3 SWAP2 POP POP JUMP JUMPDEST PUSH1 0x1 PUSH1 0x1 PUSH1 0xA0 SHL SUB DUP2 AND CALLER EQ PUSH2 0xA07 JUMPI PUSH1 0x40 MLOAD PUSH3 0x461BCD PUSH1 0xE5 SHL DUP2 MSTORE PUSH1 0x20 PUSH1 0x4 DUP3 ADD MSTORE PUSH1 0x2F PUSH1 0x24 DUP3 ADD MSTORE PUSH32 0x416363657373436F6E74726F6C3A2063616E206F6E6C792072656E6F756E6365 PUSH1 0x44 DUP3 ADD MSTORE PUSH15 0x103937B632B9903337B91039B2B633 PUSH1 0x89 SHL PUSH1 0x64 DUP3 ADD MSTORE PUSH1 0x84 ADD JUMPDEST PUSH1 0x40 MLOAD DUP1 SWAP2 SUB SWAP1 REVERT JUMPDEST PUSH2 0xA11 DUP3 DUP3 PUSH2 0x1672 JUMP JUMPDEST POP POP JUMP JUMPDEST PUSH2 0xA1D PUSH2 0x16D7 JUMP JUMPDEST PUSH1 0x3 SLOAD PUSH1 0x40 DUP1 MLOAD PUSH1 0x1 PUSH1 0x1 PUSH1 0xA0 SHL SUB DUP9 DUP2 AND PUSH1 0x24 DUP4 ADD MSTORE DUP8 DUP2 AND PUSH1 0x44 DUP4 ADD MSTORE PUSH1 0x64 DUP1 DUP4 ADD DUP9 SWAP1 MSTORE DUP4 MLOAD DUP1 DUP5 SUB SWAP1 SWAP2 ADD DUP2 MSTORE PUSH1 0x84 SWAP1 SWAP3 ADD DUP4 MSTORE PUSH1 0x20 DUP3 ADD DUP1 MLOAD PUSH1 0x1 PUSH1 0x1 PUSH1 0xE0 SHL SUB AND PUSH4 0x2D38445 PUSH1 0xE0 SHL OR SWAP1 MSTORE SWAP2 MLOAD PUSH4 0x468721A7 PUSH1 0xE0 SHL DUP2 MSTORE SWAP2 SWAP1 SWAP3 AND SWAP2 PUSH4 0x468721A7 SWAP2 PUSH2 0xA9A SWAP2 DUP5 SWAP2 PUSH1 0x0 SWAP2 SWAP1 DUP3 SWAP1 PUSH1 0x4 ADD PUSH2 0x2004 JUMP JUMPDEST PUSH1 0x20 PUSH1 0x40 MLOAD DUP1 DUP4 SUB DUP2 PUSH1 0x0 DUP8 GAS CALL ISZERO DUP1 ISZERO PUSH2 0xAB9 JUMPI RETURNDATASIZE PUSH1 0x0 DUP1 RETURNDATACOPY RETURNDATASIZE PUSH1 0x0 REVERT JUMPDEST POP POP POP POP PUSH1 0x40 MLOAD RETURNDATASIZE PUSH1 0x1F NOT PUSH1 0x1F DUP3 ADD AND DUP3 ADD DUP1 PUSH1 0x40 MSTORE POP DUP2 ADD SWAP1 PUSH2 0xADD SWAP2 SWAP1 PUSH2 0x205A JUMP JUMPDEST POP PUSH1 0x3 SLOAD PUSH1 0x40 DUP1 MLOAD PUSH1 0x1 PUSH1 0x1 PUSH1 0xA0 SHL SUB DUP8 DUP2 AND PUSH1 0x24 DUP4 ADD MSTORE PUSH1 0x44 DUP1 DUP4 ADD DUP7 SWAP1 MSTORE DUP4 MLOAD DUP1 DUP5 SUB SWAP1 SWAP2 ADD DUP2 MSTORE PUSH1 0x64 SWAP1 SWAP3 ADD DUP4 MSTORE PUSH1 0x20 DUP3 ADD DUP1 MLOAD PUSH1 0x1 PUSH1 0x1 PUSH1 0xE0 SHL SUB AND PUSH4 0xA9059CBB PUSH1 0xE0 SHL OR SWAP1 MSTORE SWAP2 MLOAD PUSH4 0x468721A7 PUSH1 0xE0 SHL DUP2 MSTORE SWAP2 SWAP1 SWAP3 AND SWAP2 PUSH4 0x468721A7 SWAP2 PUSH2 0xB53 SWAP2 DUP7 SWAP2 PUSH1 0x0 SWAP2 SWAP1 DUP3 SWAP1 PUSH1 0x4 ADD PUSH2 0x2004 JUMP JUMPDEST PUSH1 0x20 PUSH1 0x40 MLOAD DUP1 DUP4 SUB DUP2 PUSH1 0x0 DUP8 GAS CALL ISZERO DUP1 ISZERO PUSH2 0xB72 JUMPI RETURNDATASIZE PUSH1 0x0 DUP1 RETURNDATACOPY RETURNDATASIZE PUSH1 0x0 REVERT JUMPDEST POP POP POP POP PUSH1 0x40 MLOAD RETURNDATASIZE PUSH1 0x1F NOT PUSH1 0x1F DUP3 ADD AND DUP3 ADD DUP1 PUSH1 0x40 MSTORE POP DUP2 ADD SWAP1 PUSH2 0xB96 SWAP2 SWAP1 PUSH2 0x205A JUMP JUMPDEST POP POP POP POP POP POP JUMP JUMPDEST PUSH1 0x0 DUP2 DUP2 MSTORE PUSH1 0x1 PUSH1 0x20 DUP2 SWAP1 MSTORE PUSH1 0x40 DUP3 KECCAK256 SLOAD PUSH2 0x98B JUMP JUMPDEST PUSH1 0x60 PUSH1 0x1 PUSH1 0x1 PUSH1 0xA0 SHL SUB DUP4 AND PUSH2 0xC04 JUMPI PUSH1 0x40 MLOAD PUSH3 0x461BCD PUSH1 0xE5 SHL DUP2 MSTORE PUSH1 0x20 PUSH1 0x4 DUP3 ADD MSTORE PUSH1 0x15 PUSH1 0x24 DUP3 ADD MSTORE PUSH21 0x115512081B9BDD081CDD5C1C1BDC9D1959081E595D PUSH1 0x5A SHL PUSH1 0x44 DUP3 ADD MSTORE PUSH1 0x64 ADD PUSH2 0x9FE JUMP JUMPDEST PUSH4 0xF35A84FC DUP7 DUP7 DUP7 DUP7 DUP7 PUSH1 0x40 MLOAD PUSH1 0x24 ADD PUSH2 0xC22 SWAP6 SWAP5 SWAP4 SWAP3 SWAP2 SWAP1 PUSH2 0x207C JUMP JUMPDEST PUSH1 0x40 DUP1 MLOAD PUSH1 0x1F NOT DUP2 DUP5 SUB ADD DUP2 MSTORE SWAP2 SWAP1 MSTORE PUSH1 0x20 DUP2 ADD DUP1 MLOAD PUSH1 0x1 PUSH1 0x1 PUSH1 0xE0 SHL SUB AND PUSH1 0xE0 SWAP4 SWAP1 SWAP4 SHL SWAP3 SWAP1 SWAP3 OR SWAP1 SWAP2 MSTORE SWAP7 SWAP6 POP POP POP POP POP POP JUMP JUMPDEST CALLER ADDRESS EQ PUSH2 0xCBB JUMPI PUSH1 0x40 MLOAD PUSH3 0x461BCD PUSH1 0xE5 SHL DUP2 MSTORE PUSH1 0x20 PUSH1 0x4 DUP3 ADD MSTORE PUSH1 0x2B PUSH1 0x24 DUP3 ADD MSTORE PUSH32 0x54696D656C6F636B436F6E74726F6C6C65723A2063616C6C6572206D75737420 PUSH1 0x44 DUP3 ADD MSTORE PUSH11 0x62652074696D656C6F636B PUSH1 0xA8 SHL PUSH1 0x64 DUP3 ADD MSTORE PUSH1 0x84 ADD PUSH2 0x9FE JUMP JUMPDEST PUSH1 0x2 SLOAD PUSH1 0x40 DUP1 MLOAD SWAP2 DUP3 MSTORE PUSH1 0x20 DUP3 ADD DUP4 SWAP1 MSTORE PUSH32 0x11C24F4EAD16507C69AC467FBD5E4EED5FB5C699626D2CC6D66421DF253886D5 SWAP2 ADD PUSH1 0x40 MLOAD DUP1 SWAP2 SUB SWAP1 LOG1 PUSH1 0x2 SSTORE JUMP JUMPDEST PUSH1 0x0 DUP7 DUP7 DUP7 DUP7 DUP7 DUP7 PUSH1 0x40 MLOAD PUSH1 0x20 ADD PUSH2 0xD19 SWAP7 SWAP6 SWAP5 SWAP4 SWAP3 SWAP2 SWAP1 PUSH2 0x1F95 JUMP JUMPDEST PUSH1 0x40 MLOAD PUSH1 0x20 DUP2 DUP4 SUB SUB DUP2 MSTORE SWAP1 PUSH1 0x40 MSTORE DUP1 MLOAD SWAP1 PUSH1 0x20 ADD KECCAK256 SWAP1 POP SWAP7 SWAP6 POP POP POP POP POP POP JUMP JUMPDEST PUSH32 0xB09AA5AEB3702CFD50B6B62BC4532604938F21248A27A1D5CA736082B6819CC1 PUSH2 0xD65 DUP2 PUSH2 0x12BC JUMP JUMPDEST DUP9 DUP8 EQ PUSH2 0xD84 JUMPI PUSH1 0x40 MLOAD PUSH3 0x461BCD PUSH1 0xE5 SHL DUP2 MSTORE PUSH1 0x4 ADD PUSH2 0x9FE SWAP1 PUSH2 0x20AF JUMP JUMPDEST DUP9 DUP6 EQ PUSH2 0xDA3 JUMPI PUSH1 0x40 MLOAD PUSH3 0x461BCD PUSH1 0xE5 SHL DUP2 MSTORE PUSH1 0x4 ADD PUSH2 0x9FE SWAP1 PUSH2 0x20AF JUMP JUMPDEST PUSH1 0x0 PUSH2 0xDB5 DUP12 DUP12 DUP12 DUP12 DUP12 DUP12 DUP12 DUP12 PUSH2 0xF65 JUMP JUMPDEST SWAP1 POP PUSH2 0xDC1 DUP2 DUP5 PUSH2 0x12C9 JUMP JUMPDEST PUSH1 0x0 JUMPDEST DUP11 DUP2 LT ISZERO PUSH2 0xE7F JUMPI DUP1 DUP3 PUSH32 0x4CF4410CC57040E44862EF0F45F3DD5A5E02DB8EB8ADD648D4B0E236F1D07DCA DUP15 DUP15 DUP6 DUP2 DUP2 LT PUSH2 0xE01 JUMPI PUSH2 0xE01 PUSH2 0x20F2 JUMP JUMPDEST SWAP1 POP PUSH1 0x20 MUL ADD PUSH1 0x20 DUP2 ADD SWAP1 PUSH2 0xE16 SWAP2 SWAP1 PUSH2 0x2108 JUMP JUMPDEST DUP14 DUP14 DUP7 DUP2 DUP2 LT PUSH2 0xE28 JUMPI PUSH2 0xE28 PUSH2 0x20F2 JUMP JUMPDEST SWAP1 POP PUSH1 0x20 MUL ADD CALLDATALOAD DUP13 DUP13 DUP8 DUP2 DUP2 LT PUSH2 0xE41 JUMPI PUSH2 0xE41 PUSH2 0x20F2 JUMP JUMPDEST SWAP1 POP PUSH1 0x20 MUL DUP2 ADD SWAP1 PUSH2 0xE53 SWAP2 SWAP1 PUSH2 0x2123 JUMP JUMPDEST DUP13 DUP12 PUSH1 0x40 MLOAD PUSH2 0xE67 SWAP7 SWAP6 SWAP5 SWAP4 SWAP3 SWAP2 SWAP1 PUSH2 0x1F95 JUMP JUMPDEST PUSH1 0x40 MLOAD DUP1 SWAP2 SUB SWAP1 LOG3 PUSH2 0xE78 DUP2 PUSH2 0x217F JUMP JUMPDEST SWAP1 POP PUSH2 0xDC4 JUMP JUMPDEST POP DUP4 ISZERO PUSH2 0xEC1 JUMPI DUP1 PUSH32 0x20FDA5FD27A1EA7BF5B9567F143AC5470BB059374A27E8F67CB44F946F6D0387 DUP6 PUSH1 0x40 MLOAD PUSH2 0xEB8 SWAP2 DUP2 MSTORE PUSH1 0x20 ADD SWAP1 JUMP JUMPDEST PUSH1 0x40 MLOAD DUP1 SWAP2 SUB SWAP1 LOG2 JUMPDEST POP POP POP POP POP POP POP POP POP POP POP JUMP JUMPDEST PUSH1 0x0 SWAP2 DUP3 MSTORE PUSH1 0x20 DUP3 DUP2 MSTORE PUSH1 0x40 DUP1 DUP5 KECCAK256 PUSH1 0x1 PUSH1 0x1 PUSH1 0xA0 SHL SUB SWAP4 SWAP1 SWAP4 AND DUP5 MSTORE SWAP2 SWAP1 MSTORE SWAP1 KECCAK256 SLOAD PUSH1 0xFF AND SWAP1 JUMP JUMPDEST PUSH1 0x60 PUSH1 0x1 PUSH1 0x1 PUSH1 0xA0 SHL SUB DUP4 AND PUSH2 0xF47 JUMPI PUSH1 0x40 MLOAD PUSH3 0x461BCD PUSH1 0xE5 SHL DUP2 MSTORE PUSH1 0x20 PUSH1 0x4 DUP3 ADD MSTORE PUSH1 0x15 PUSH1 0x24 DUP3 ADD MSTORE PUSH21 0x115512081B9BDD081CDD5C1C1BDC9D1959081E595D PUSH1 0x5A SHL PUSH1 0x44 DUP3 ADD MSTORE PUSH1 0x64 ADD PUSH2 0x9FE JUMP JUMPDEST PUSH4 0x3ADBBC5C DUP7 DUP7 DUP7 DUP7 DUP7 PUSH1 0x40 MLOAD PUSH1 0x24 ADD PUSH2 0xC22 SWAP6 SWAP5 SWAP4 SWAP3 SWAP2 SWAP1 PUSH2 0x207C JUMP JUMPDEST PUSH1 0x0 DUP9 DUP9 DUP9 DUP9 DUP9 DUP9 DUP9 DUP9 PUSH1 0x40 MLOAD PUSH1 0x20 ADD PUSH2 0xF86 SWAP9 SWAP8 SWAP7 SWAP6 SWAP5 SWAP4 SWAP3 SWAP2 SWAP1 PUSH2 0x2229 JUMP JUMPDEST PUSH1 0x40 MLOAD PUSH1 0x20 DUP2 DUP4 SUB SUB DUP2 MSTORE SWAP1 PUSH1 0x40 MSTORE DUP1 MLOAD SWAP1 PUSH1 0x20 ADD KECCAK256 SWAP1 POP SWAP9 SWAP8 POP POP POP POP POP POP POP POP JUMP JUMPDEST PUSH32 0xFD643C72710C63C0180259ABA6B2D05451E3591A24E58B62239378085726F783 PUSH2 0xFD4 DUP2 PUSH2 0x12BC JUMP JUMPDEST PUSH2 0xFDD DUP3 PUSH2 0xB9E JUMP JUMPDEST PUSH2 0x1043 JUMPI PUSH1 0x40 MLOAD PUSH3 0x461BCD PUSH1 0xE5 SHL DUP2 MSTORE PUSH1 0x20 PUSH1 0x4 DUP3 ADD MSTORE PUSH1 0x31 PUSH1 0x24 DUP3 ADD MSTORE PUSH32 0x54696D656C6F636B436F6E74726F6C6C65723A206F7065726174696F6E206361 PUSH1 0x44 DUP3 ADD MSTORE PUSH17 0x1B9B9BDD0818994818D85B98D95B1B1959 PUSH1 0x7A SHL PUSH1 0x64 DUP3 ADD MSTORE PUSH1 0x84 ADD PUSH2 0x9FE JUMP JUMPDEST PUSH1 0x0 DUP3 DUP2 MSTORE PUSH1 0x1 PUSH1 0x20 MSTORE PUSH1 0x40 DUP1 DUP3 KECCAK256 DUP3 SWAP1 SSTORE MLOAD DUP4 SWAP2 PUSH32 0xBAA1EB22F2A492BA1A5FEA61B8DF4D27C6C8B5F3971E63BB58FA14FF72EEDB70 SWAP2 LOG2 POP POP JUMP JUMPDEST PUSH1 0x0 DUP3 DUP2 MSTORE PUSH1 0x20 DUP2 SWAP1 MSTORE PUSH1 0x40 SWAP1 KECCAK256 PUSH1 0x1 ADD SLOAD PUSH2 0x109A DUP2 PUSH2 0x12BC JUMP JUMPDEST PUSH2 0x974 DUP4 DUP4 PUSH2 0x1672 JUMP JUMPDEST PUSH32 0xD8AA0F3194971A2A116679F7C2090F6939C8D4E01A2A8D7E41D55E5351469E63 PUSH2 0x10D0 DUP2 PUSH1 0x0 PUSH2 0xECE JUMP JUMPDEST PUSH2 0x10DE JUMPI PUSH2 0x10DE DUP2 CALLER PUSH2 0x13ED JUMP JUMPDEST DUP8 DUP7 EQ PUSH2 0x10FD JUMPI PUSH1 0x40 MLOAD PUSH3 0x461BCD PUSH1 0xE5 SHL DUP2 MSTORE PUSH1 0x4 ADD PUSH2 0x9FE SWAP1 PUSH2 0x20AF JUMP JUMPDEST DUP8 DUP5 EQ PUSH2 0x111C JUMPI PUSH1 0x40 MLOAD PUSH3 0x461BCD PUSH1 0xE5 SHL DUP2 MSTORE PUSH1 0x4 ADD PUSH2 0x9FE SWAP1 PUSH2 0x20AF JUMP JUMPDEST PUSH1 0x0 PUSH2 0x112E DUP11 DUP11 DUP11 DUP11 DUP11 DUP11 DUP11 DUP11 PUSH2 0xF65 JUMP JUMPDEST SWAP1 POP PUSH2 0x113A DUP2 DUP6 PUSH2 0x1446 JUMP JUMPDEST PUSH1 0x0 JUMPDEST DUP10 DUP2 LT ISZERO PUSH2 0x1218 JUMPI PUSH1 0x0 DUP12 DUP12 DUP4 DUP2 DUP2 LT PUSH2 0x1159 JUMPI PUSH2 0x1159 PUSH2 0x20F2 JUMP JUMPDEST SWAP1 POP PUSH1 0x20 MUL ADD PUSH1 0x20 DUP2 ADD SWAP1 PUSH2 0x116E SWAP2 SWAP1 PUSH2 0x2108 JUMP JUMPDEST SWAP1 POP PUSH1 0x0 DUP11 DUP11 DUP5 DUP2 DUP2 LT PUSH2 0x1184 JUMPI PUSH2 0x1184 PUSH2 0x20F2 JUMP JUMPDEST SWAP1 POP PUSH1 0x20 MUL ADD CALLDATALOAD SWAP1 POP CALLDATASIZE PUSH1 0x0 DUP11 DUP11 DUP7 DUP2 DUP2 LT PUSH2 0x11A2 JUMPI PUSH2 0x11A2 PUSH2 0x20F2 JUMP JUMPDEST SWAP1 POP PUSH1 0x20 MUL DUP2 ADD SWAP1 PUSH2 0x11B4 SWAP2 SWAP1 PUSH2 0x2123 JUMP JUMPDEST SWAP2 POP SWAP2 POP PUSH2 0x11C4 DUP5 DUP5 DUP5 DUP5 PUSH2 0x14E2 JUMP JUMPDEST DUP5 DUP7 PUSH32 0xC2617EFA69BAB66782FA219543714338489C4E9E178271560A91B82C3F612B58 DUP7 DUP7 DUP7 DUP7 PUSH1 0x40 MLOAD PUSH2 0x11FB SWAP5 SWAP4 SWAP3 SWAP2 SWAP1 PUSH2 0x1FD2 JUMP JUMPDEST PUSH1 0x40 MLOAD DUP1 SWAP2 SUB SWAP1 LOG3 POP POP POP POP DUP1 PUSH2 0x1211 SWAP1 PUSH2 0x217F JUMP JUMPDEST SWAP1 POP PUSH2 0x113D JUMP JUMPDEST POP PUSH2 0x1222 DUP2 PUSH2 0x15B5 JUMP JUMPDEST POP POP POP POP POP POP POP POP POP POP JUMP JUMPDEST PUSH2 0x1236 PUSH2 0x16D7 JUMP JUMPDEST PUSH1 0x3 SLOAD PUSH1 0x40 MLOAD PUSH1 0x1 PUSH1 0x1 PUSH1 0xA0 SHL SUB SWAP1 SWAP2 AND SWAP1 PUSH4 0x468721A7 SWAP1 DUP3 SWAP1 PUSH1 0x0 SWAP1 PUSH4 0x5B48CF79 PUSH1 0xE1 SHL SWAP1 PUSH2 0x1272 SWAP1 DUP12 SWAP1 DUP12 SWAP1 DUP12 SWAP1 DUP12 SWAP1 DUP12 SWAP1 PUSH1 0x24 ADD PUSH2 0x207C JUMP JUMPDEST PUSH1 0x40 DUP1 MLOAD PUSH1 0x1F NOT DUP2 DUP5 SUB ADD DUP2 MSTORE SWAP2 DUP2 MSTORE PUSH1 0x20 DUP3 ADD DUP1 MLOAD PUSH1 0x1 PUSH1 0x1 PUSH1 0xE0 SHL SUB AND PUSH1 0x1 PUSH1 0x1 PUSH1 0xE0 SHL SUB NOT SWAP5 DUP6 AND OR SWAP1 MSTORE MLOAD PUSH1 0xE0 DUP7 SWAP1 SHL SWAP1 SWAP3 AND DUP3 MSTORE PUSH2 0xB53 SWAP4 SWAP3 SWAP2 PUSH1 0x0 SWAP1 PUSH1 0x4 ADD PUSH2 0x2004 JUMP JUMPDEST PUSH2 0x12C6 DUP2 CALLER PUSH2 0x13ED JUMP JUMPDEST POP JUMP JUMPDEST PUSH2 0x12D2 DUP3 PUSH2 0x979 JUMP JUMPDEST ISZERO PUSH2 0x1337 JUMPI PUSH1 0x40 MLOAD PUSH3 0x461BCD PUSH1 0xE5 SHL DUP2 MSTORE PUSH1 0x20 PUSH1 0x4 DUP3 ADD MSTORE PUSH1 0x2F PUSH1 0x24 DUP3 ADD MSTORE PUSH32 0x54696D656C6F636B436F6E74726F6C6C65723A206F7065726174696F6E20616C PUSH1 0x44 DUP3 ADD MSTORE PUSH15 0x1C9958591E481CD8DA19591D5B1959 PUSH1 0x8A SHL PUSH1 0x64 DUP3 ADD MSTORE PUSH1 0x84 ADD PUSH2 0x9FE JUMP JUMPDEST PUSH1 0x2 SLOAD DUP2 LT ISZERO PUSH2 0x1398 JUMPI PUSH1 0x40 MLOAD PUSH3 0x461BCD PUSH1 0xE5 SHL DUP2 MSTORE PUSH1 0x20 PUSH1 0x4 DUP3 ADD MSTORE PUSH1 0x26 PUSH1 0x24 DUP3 ADD MSTORE PUSH32 0x54696D656C6F636B436F6E74726F6C6C65723A20696E73756666696369656E74 PUSH1 0x44 DUP3 ADD MSTORE PUSH6 0x2064656C6179 PUSH1 0xD0 SHL PUSH1 0x64 DUP3 ADD MSTORE PUSH1 0x84 ADD PUSH2 0x9FE JUMP JUMPDEST PUSH2 0x13A2 DUP2 TIMESTAMP PUSH2 0x22CA JUMP JUMPDEST PUSH1 0x0 SWAP3 DUP4 MSTORE PUSH1 0x1 PUSH1 0x20 MSTORE PUSH1 0x40 SWAP1 SWAP3 KECCAK256 SWAP2 SWAP1 SWAP2 SSTORE POP JUMP JUMPDEST PUSH1 0x0 PUSH1 0x1 PUSH1 0x1 PUSH1 0xE0 SHL SUB NOT DUP3 AND PUSH4 0x7965DB0B PUSH1 0xE0 SHL EQ DUP1 PUSH2 0x86E JUMPI POP PUSH4 0x1FFC9A7 PUSH1 0xE0 SHL PUSH1 0x1 PUSH1 0x1 PUSH1 0xE0 SHL SUB NOT DUP4 AND EQ PUSH2 0x86E JUMP JUMPDEST PUSH2 0x13F7 DUP3 DUP3 PUSH2 0xECE JUMP JUMPDEST PUSH2 0xA11 JUMPI PUSH2 0x1404 DUP2 PUSH2 0x1710 JUMP JUMPDEST PUSH2 0x140F DUP4 PUSH1 0x20 PUSH2 0x1722 JUMP JUMPDEST PUSH1 0x40 MLOAD PUSH1 0x20 ADD PUSH2 0x1420 SWAP3 SWAP2 SWAP1 PUSH2 0x22DD JUMP JUMPDEST PUSH1 0x40 DUP1 MLOAD PUSH1 0x1F NOT DUP2 DUP5 SUB ADD DUP2 MSTORE SWAP1 DUP3 SWAP1 MSTORE PUSH3 0x461BCD PUSH1 0xE5 SHL DUP3 MSTORE PUSH2 0x9FE SWAP2 PUSH1 0x4 ADD PUSH2 0x1C30 JUMP JUMPDEST PUSH2 0x144F DUP3 PUSH2 0x929 JUMP JUMPDEST PUSH2 0x146B JUMPI PUSH1 0x40 MLOAD PUSH3 0x461BCD PUSH1 0xE5 SHL DUP2 MSTORE PUSH1 0x4 ADD PUSH2 0x9FE SWAP1 PUSH2 0x2352 JUMP JUMPDEST DUP1 ISZERO DUP1 PUSH2 0x1487 JUMPI POP PUSH1 0x0 DUP2 DUP2 MSTORE PUSH1 0x1 PUSH1 0x20 DUP2 SWAP1 MSTORE PUSH1 0x40 SWAP1 SWAP2 KECCAK256 SLOAD EQ JUMPDEST PUSH2 0xA11 JUMPI PUSH1 0x40 MLOAD PUSH3 0x461BCD PUSH1 0xE5 SHL DUP2 MSTORE PUSH1 0x20 PUSH1 0x4 DUP3 ADD MSTORE PUSH1 0x26 PUSH1 0x24 DUP3 ADD MSTORE PUSH32 0x54696D656C6F636B436F6E74726F6C6C65723A206D697373696E672064657065 PUSH1 0x44 DUP3 ADD MSTORE PUSH6 0x6E64656E6379 PUSH1 0xD0 SHL PUSH1 0x64 DUP3 ADD MSTORE PUSH1 0x84 ADD PUSH2 0x9FE JUMP JUMPDEST PUSH1 0x0 DUP5 PUSH1 0x1 PUSH1 0x1 PUSH1 0xA0 SHL SUB AND DUP5 DUP5 DUP5 PUSH1 0x40 MLOAD PUSH2 0x14FF SWAP3 SWAP2 SWAP1 PUSH2 0x239C JUMP JUMPDEST PUSH1 0x0 PUSH1 0x40 MLOAD DUP1 DUP4 SUB DUP2 DUP6 DUP8 GAS CALL SWAP3 POP POP POP RETURNDATASIZE DUP1 PUSH1 0x0 DUP2 EQ PUSH2 0x153C JUMPI PUSH1 0x40 MLOAD SWAP2 POP PUSH1 0x1F NOT PUSH1 0x3F RETURNDATASIZE ADD AND DUP3 ADD PUSH1 0x40 MSTORE RETURNDATASIZE DUP3 MSTORE RETURNDATASIZE PUSH1 0x0 PUSH1 0x20 DUP5 ADD RETURNDATACOPY PUSH2 0x1541 JUMP JUMPDEST PUSH1 0x60 SWAP2 POP JUMPDEST POP POP SWAP1 POP DUP1 PUSH2 0x15AE JUMPI PUSH1 0x40 MLOAD PUSH3 0x461BCD PUSH1 0xE5 SHL DUP2 MSTORE PUSH1 0x20 PUSH1 0x4 DUP3 ADD MSTORE PUSH1 0x33 PUSH1 0x24 DUP3 ADD MSTORE PUSH32 0x54696D656C6F636B436F6E74726F6C6C65723A20756E6465726C79696E672074 PUSH1 0x44 DUP3 ADD MSTORE PUSH19 0x1C985B9CD858DD1A5BDB881C995D995C9D1959 PUSH1 0x6A SHL PUSH1 0x64 DUP3 ADD MSTORE PUSH1 0x84 ADD PUSH2 0x9FE JUMP JUMPDEST POP POP POP POP POP JUMP JUMPDEST PUSH2 0x15BE DUP2 PUSH2 0x929 JUMP JUMPDEST PUSH2 0x15DA JUMPI PUSH1 0x40 MLOAD PUSH3 0x461BCD PUSH1 0xE5 SHL DUP2 MSTORE PUSH1 0x4 ADD PUSH2 0x9FE SWAP1 PUSH2 0x2352 JUMP JUMPDEST PUSH1 0x0 SWAP1 DUP2 MSTORE PUSH1 0x1 PUSH1 0x20 DUP2 SWAP1 MSTORE PUSH1 0x40 SWAP1 SWAP2 KECCAK256 SSTORE JUMP JUMPDEST PUSH2 0x15F8 DUP3 DUP3 PUSH2 0xECE JUMP JUMPDEST PUSH2 0xA11 JUMPI PUSH1 0x0 DUP3 DUP2 MSTORE PUSH1 0x20 DUP2 DUP2 MSTORE PUSH1 0x40 DUP1 DUP4 KECCAK256 PUSH1 0x1 PUSH1 0x1 PUSH1 0xA0 SHL SUB DUP6 AND DUP5 MSTORE SWAP1 SWAP2 MSTORE SWAP1 KECCAK256 DUP1 SLOAD PUSH1 0xFF NOT AND PUSH1 0x1 OR SWAP1 SSTORE PUSH2 0x162E CALLER SWAP1 JUMP JUMPDEST PUSH1 0x1 PUSH1 0x1 PUSH1 0xA0 SHL SUB AND DUP2 PUSH1 0x1 PUSH1 0x1 PUSH1 0xA0 SHL SUB AND DUP4 PUSH32 0x2F8788117E7EFF1D82E926EC794901D17C78024A50270940304540A733656F0D PUSH1 0x40 MLOAD PUSH1 0x40 MLOAD DUP1 SWAP2 SUB SWAP1 LOG4 POP POP JUMP JUMPDEST PUSH2 0x167C DUP3 DUP3 PUSH2 0xECE JUMP JUMPDEST ISZERO PUSH2 0xA11 JUMPI PUSH1 0x0 DUP3 DUP2 MSTORE PUSH1 0x20 DUP2 DUP2 MSTORE PUSH1 0x40 DUP1 DUP4 KECCAK256 PUSH1 0x1 PUSH1 0x1 PUSH1 0xA0 SHL SUB DUP6 AND DUP1 DUP6 MSTORE SWAP3 MSTORE DUP1 DUP4 KECCAK256 DUP1 SLOAD PUSH1 0xFF NOT AND SWAP1 SSTORE MLOAD CALLER SWAP3 DUP6 SWAP2 PUSH32 0xF6391F5C32D9C69D2A47EA670B442974B53935D1EDC7FD64EB21E047A839171B SWAP2 SWAP1 LOG4 POP POP JUMP JUMPDEST CALLER ADDRESS EQ PUSH2 0x170E JUMPI PUSH1 0x40 MLOAD PUSH3 0x461BCD PUSH1 0xE5 SHL DUP2 MSTORE PUSH1 0x20 PUSH1 0x4 DUP3 ADD MSTORE PUSH1 0x5 PUSH1 0x24 DUP3 ADD MSTORE PUSH5 0x4753303331 PUSH1 0xD8 SHL PUSH1 0x44 DUP3 ADD MSTORE PUSH1 0x64 ADD PUSH2 0x9FE JUMP JUMPDEST JUMP JUMPDEST PUSH1 0x60 PUSH2 0x86E PUSH1 0x1 PUSH1 0x1 PUSH1 0xA0 SHL SUB DUP4 AND PUSH1 0x14 JUMPDEST PUSH1 0x60 PUSH1 0x0 PUSH2 0x1731 DUP4 PUSH1 0x2 PUSH2 0x23AC JUMP JUMPDEST PUSH2 0x173C SWAP1 PUSH1 0x2 PUSH2 0x22CA JUMP JUMPDEST PUSH1 0x1 PUSH1 0x1 PUSH1 0x40 SHL SUB DUP2 GT ISZERO PUSH2 0x1753 JUMPI PUSH2 0x1753 PUSH2 0x1A43 JUMP JUMPDEST PUSH1 0x40 MLOAD SWAP1 DUP1 DUP3 MSTORE DUP1 PUSH1 0x1F ADD PUSH1 0x1F NOT AND PUSH1 0x20 ADD DUP3 ADD PUSH1 0x40 MSTORE DUP1 ISZERO PUSH2 0x177D JUMPI PUSH1 0x20 DUP3 ADD DUP2 DUP1 CALLDATASIZE DUP4 CALLDATACOPY ADD SWAP1 POP JUMPDEST POP SWAP1 POP PUSH1 0x3 PUSH1 0xFC SHL DUP2 PUSH1 0x0 DUP2 MLOAD DUP2 LT PUSH2 0x1798 JUMPI PUSH2 0x1798 PUSH2 0x20F2 JUMP JUMPDEST PUSH1 0x20 ADD ADD SWAP1 PUSH1 0x1 PUSH1 0x1 PUSH1 0xF8 SHL SUB NOT AND SWAP1 DUP2 PUSH1 0x0 BYTE SWAP1 MSTORE8 POP PUSH1 0xF PUSH1 0xFB SHL DUP2 PUSH1 0x1 DUP2 MLOAD DUP2 LT PUSH2 0x17C7 JUMPI PUSH2 0x17C7 PUSH2 0x20F2 JUMP JUMPDEST PUSH1 0x20 ADD ADD SWAP1 PUSH1 0x1 PUSH1 0x1 PUSH1 0xF8 SHL SUB NOT AND SWAP1 DUP2 PUSH1 0x0 BYTE SWAP1 MSTORE8 POP PUSH1 0x0 PUSH2 0x17EB DUP5 PUSH1 0x2 PUSH2 0x23AC JUMP JUMPDEST PUSH2 0x17F6 SWAP1 PUSH1 0x1 PUSH2 0x22CA JUMP JUMPDEST SWAP1 POP JUMPDEST PUSH1 0x1 DUP2 GT ISZERO PUSH2 0x186E JUMPI PUSH16 0x181899199A1A9B1B9C1CB0B131B232B3 PUSH1 0x81 SHL DUP6 PUSH1 0xF AND PUSH1 0x10 DUP2 LT PUSH2 0x182A JUMPI PUSH2 0x182A PUSH2 0x20F2 JUMP JUMPDEST BYTE PUSH1 0xF8 SHL DUP3 DUP3 DUP2 MLOAD DUP2 LT PUSH2 0x1840 JUMPI PUSH2 0x1840 PUSH2 0x20F2 JUMP JUMPDEST PUSH1 0x20 ADD ADD SWAP1 PUSH1 0x1 PUSH1 0x1 PUSH1 0xF8 SHL SUB NOT AND SWAP1 DUP2 PUSH1 0x0 BYTE SWAP1 MSTORE8 POP PUSH1 0x4 SWAP5 SWAP1 SWAP5 SHR SWAP4 PUSH2 0x1867 DUP2 PUSH2 0x23C3 JUMP JUMPDEST SWAP1 POP PUSH2 0x17F9 JUMP JUMPDEST POP DUP4 ISZERO PUSH2 0x948 JUMPI PUSH1 0x40 MLOAD PUSH3 0x461BCD PUSH1 0xE5 SHL DUP2 MSTORE PUSH1 0x20 PUSH1 0x4 DUP3 ADD DUP2 SWAP1 MSTORE PUSH1 0x24 DUP3 ADD MSTORE PUSH32 0x537472696E67733A20686578206C656E67746820696E73756666696369656E74 PUSH1 0x44 DUP3 ADD MSTORE PUSH1 0x64 ADD PUSH2 0x9FE JUMP JUMPDEST DUP1 CALLDATALOAD PUSH1 0x1 PUSH1 0x1 PUSH1 0xA0 SHL SUB DUP2 AND DUP2 EQ PUSH2 0x18D4 JUMPI PUSH1 0x0 DUP1 REVERT JUMPDEST SWAP2 SWAP1 POP JUMP JUMPDEST PUSH1 0x0 DUP1 DUP4 PUSH1 0x1F DUP5 ADD SLT PUSH2 0x18EB JUMPI PUSH1 0x0 DUP1 REVERT JUMPDEST POP DUP2 CALLDATALOAD PUSH1 0x1 PUSH1 0x1 PUSH1 0x40 SHL SUB DUP2 GT ISZERO PUSH2 0x1902 JUMPI PUSH1 0x0 DUP1 REVERT JUMPDEST PUSH1 0x20 DUP4 ADD SWAP2 POP DUP4 PUSH1 0x20 DUP3 DUP6 ADD ADD GT ISZERO PUSH2 0x191A JUMPI PUSH1 0x0 DUP1 REVERT JUMPDEST SWAP3 POP SWAP3 SWAP1 POP JUMP JUMPDEST PUSH1 0x0 DUP1 PUSH1 0x0 DUP1 PUSH1 0x0 DUP1 PUSH1 0x0 PUSH1 0xC0 DUP9 DUP11 SUB SLT ISZERO PUSH2 0x193C JUMPI PUSH1 0x0 DUP1 REVERT JUMPDEST PUSH2 0x1945 DUP9 PUSH2 0x18BD JUMP JUMPDEST SWAP7 POP PUSH1 0x20 DUP9 ADD CALLDATALOAD SWAP6 POP PUSH1 0x40 DUP9 ADD CALLDATALOAD PUSH1 0x1 PUSH1 0x1 PUSH1 0x40 SHL SUB DUP2 GT ISZERO PUSH2 0x1967 JUMPI PUSH1 0x0 DUP1 REVERT JUMPDEST PUSH2 0x1973 DUP11 DUP3 DUP12 ADD PUSH2 0x18D9 JUMP JUMPDEST SWAP9 SWAP12 SWAP8 SWAP11 POP SWAP9 PUSH1 0x60 DUP2 ADD CALLDATALOAD SWAP8 PUSH1 0x80 DUP3 ADD CALLDATALOAD SWAP8 POP PUSH1 0xA0 SWAP1 SWAP2 ADD CALLDATALOAD SWAP6 POP SWAP4 POP POP POP POP JUMP JUMPDEST PUSH1 0x0 PUSH1 0x20 DUP3 DUP5 SUB SLT ISZERO PUSH2 0x19A7 JUMPI PUSH1 0x0 DUP1 REVERT JUMPDEST DUP2 CALLDATALOAD PUSH1 0x1 PUSH1 0x1 PUSH1 0xE0 SHL SUB NOT DUP2 AND DUP2 EQ PUSH2 0x948 JUMPI PUSH1 0x0 DUP1 REVERT JUMPDEST PUSH1 0x0 DUP1 PUSH1 0x0 DUP1 PUSH1 0x0 DUP1 PUSH1 0xA0 DUP8 DUP10 SUB SLT ISZERO PUSH2 0x19D8 JUMPI PUSH1 0x0 DUP1 REVERT JUMPDEST PUSH2 0x19E1 DUP8 PUSH2 0x18BD JUMP JUMPDEST SWAP6 POP PUSH1 0x20 DUP8 ADD CALLDATALOAD SWAP5 POP PUSH1 0x40 DUP8 ADD CALLDATALOAD PUSH1 0x1 PUSH1 0x1 PUSH1 0x40 SHL SUB DUP2 GT ISZERO PUSH2 0x1A03 JUMPI PUSH1 0x0 DUP1 REVERT JUMPDEST PUSH2 0x1A0F DUP10 DUP3 DUP11 ADD PUSH2 0x18D9 JUMP JUMPDEST SWAP8 SWAP11 SWAP7 SWAP10 POP SWAP8 PUSH1 0x60 DUP2 ADD CALLDATALOAD SWAP7 PUSH1 0x80 SWAP1 SWAP2 ADD CALLDATALOAD SWAP6 POP SWAP4 POP POP POP POP JUMP JUMPDEST PUSH1 0x0 PUSH1 0x20 DUP3 DUP5 SUB SLT ISZERO PUSH2 0x1A3C JUMPI PUSH1 0x0 DUP1 REVERT JUMPDEST POP CALLDATALOAD SWAP2 SWAP1 POP JUMP JUMPDEST PUSH4 0x4E487B71 PUSH1 0xE0 SHL PUSH1 0x0 MSTORE PUSH1 0x41 PUSH1 0x4 MSTORE PUSH1 0x24 PUSH1 0x0 REVERT JUMPDEST PUSH1 0x40 MLOAD PUSH1 0x1F DUP3 ADD PUSH1 0x1F NOT AND DUP2 ADD PUSH1 0x1 PUSH1 0x1 PUSH1 0x40 SHL SUB DUP2 GT DUP3 DUP3 LT OR ISZERO PUSH2 0x1A81 JUMPI PUSH2 0x1A81 PUSH2 0x1A43 JUMP JUMPDEST PUSH1 0x40 MSTORE SWAP2 SWAP1 POP JUMP JUMPDEST PUSH1 0x0 DUP3 PUSH1 0x1F DUP4 ADD SLT PUSH2 0x1A9A JUMPI PUSH1 0x0 DUP1 REVERT JUMPDEST DUP2 CALLDATALOAD PUSH1 0x1 PUSH1 0x1 PUSH1 0x40 SHL SUB DUP2 GT ISZERO PUSH2 0x1AB3 JUMPI PUSH2 0x1AB3 PUSH2 0x1A43 JUMP JUMPDEST PUSH2 0x1AC6 PUSH1 0x1F DUP3 ADD PUSH1 0x1F NOT AND PUSH1 0x20 ADD PUSH2 0x1A59 JUMP JUMPDEST DUP2 DUP2 MSTORE DUP5 PUSH1 0x20 DUP4 DUP7 ADD ADD GT ISZERO PUSH2 0x1ADB JUMPI PUSH1 0x0 DUP1 REVERT JUMPDEST DUP2 PUSH1 0x20 DUP6 ADD PUSH1 0x20 DUP4 ADD CALLDATACOPY PUSH1 0x0 SWAP2 DUP2 ADD PUSH1 0x20 ADD SWAP2 SWAP1 SWAP2 MSTORE SWAP4 SWAP3 POP POP POP JUMP JUMPDEST PUSH1 0x0 DUP1 PUSH1 0x0 DUP1 PUSH1 0x80 DUP6 DUP8 SUB SLT ISZERO PUSH2 0x1B0E JUMPI PUSH1 0x0 DUP1 REVERT JUMPDEST PUSH2 0x1B17 DUP6 PUSH2 0x18BD JUMP JUMPDEST SWAP4 POP PUSH2 0x1B25 PUSH1 0x20 DUP7 ADD PUSH2 0x18BD JUMP JUMPDEST SWAP3 POP PUSH1 0x40 DUP6 ADD CALLDATALOAD SWAP2 POP PUSH1 0x60 DUP6 ADD CALLDATALOAD PUSH1 0x1 PUSH1 0x1 PUSH1 0x40 SHL SUB DUP2 GT ISZERO PUSH2 0x1B47 JUMPI PUSH1 0x0 DUP1 REVERT JUMPDEST PUSH2 0x1B53 DUP8 DUP3 DUP9 ADD PUSH2 0x1A89 JUMP JUMPDEST SWAP2 POP POP SWAP3 SWAP6 SWAP2 SWAP5 POP SWAP3 POP JUMP JUMPDEST PUSH1 0x0 DUP1 PUSH1 0x40 DUP4 DUP6 SUB SLT ISZERO PUSH2 0x1B72 JUMPI PUSH1 0x0 DUP1 REVERT JUMPDEST DUP3 CALLDATALOAD SWAP2 POP PUSH2 0x1B82 PUSH1 0x20 DUP5 ADD PUSH2 0x18BD JUMP JUMPDEST SWAP1 POP SWAP3 POP SWAP3 SWAP1 POP JUMP JUMPDEST PUSH1 0x0 DUP1 PUSH1 0x0 DUP1 PUSH1 0x0 PUSH1 0xA0 DUP7 DUP9 SUB SLT ISZERO PUSH2 0x1BA3 JUMPI PUSH1 0x0 DUP1 REVERT JUMPDEST PUSH2 0x1BAC DUP7 PUSH2 0x18BD JUMP JUMPDEST SWAP5 POP PUSH2 0x1BBA PUSH1 0x20 DUP8 ADD PUSH2 0x18BD JUMP JUMPDEST SWAP4 POP PUSH1 0x40 DUP7 ADD CALLDATALOAD SWAP3 POP PUSH2 0x1BCF PUSH1 0x60 DUP8 ADD PUSH2 0x18BD JUMP JUMPDEST SWAP5 SWAP8 SWAP4 SWAP7 POP SWAP2 SWAP5 PUSH1 0x80 ADD CALLDATALOAD SWAP3 SWAP2 POP POP JUMP JUMPDEST PUSH1 0x0 JUMPDEST DUP4 DUP2 LT ISZERO PUSH2 0x1BFB JUMPI DUP2 DUP2 ADD MLOAD DUP4 DUP3 ADD MSTORE PUSH1 0x20 ADD PUSH2 0x1BE3 JUMP JUMPDEST POP POP PUSH1 0x0 SWAP2 ADD MSTORE JUMP JUMPDEST PUSH1 0x0 DUP2 MLOAD DUP1 DUP5 MSTORE PUSH2 0x1C1C DUP2 PUSH1 0x20 DUP7 ADD PUSH1 0x20 DUP7 ADD PUSH2 0x1BE0 JUMP JUMPDEST PUSH1 0x1F ADD PUSH1 0x1F NOT AND SWAP3 SWAP1 SWAP3 ADD PUSH1 0x20 ADD SWAP3 SWAP2 POP POP JUMP JUMPDEST PUSH1 0x20 DUP2 MSTORE PUSH1 0x0 PUSH2 0x948 PUSH1 0x20 DUP4 ADD DUP5 PUSH2 0x1C04 JUMP JUMPDEST PUSH1 0x0 DUP1 DUP4 PUSH1 0x1F DUP5 ADD SLT PUSH2 0x1C55 JUMPI PUSH1 0x0 DUP1 REVERT JUMPDEST POP DUP2 CALLDATALOAD PUSH1 0x1 PUSH1 0x1 PUSH1 0x40 SHL SUB DUP2 GT ISZERO PUSH2 0x1C6C JUMPI PUSH1 0x0 DUP1 REVERT JUMPDEST PUSH1 0x20 DUP4 ADD SWAP2 POP DUP4 PUSH1 0x20 DUP3 PUSH1 0x5 SHL DUP6 ADD ADD GT ISZERO PUSH2 0x191A JUMPI PUSH1 0x0 DUP1 REVERT JUMPDEST PUSH1 0x0 DUP1 PUSH1 0x0 DUP1 PUSH1 0x0 DUP1 PUSH1 0x0 DUP1 PUSH1 0x0 PUSH1 0xC0 DUP11 DUP13 SUB SLT ISZERO PUSH2 0x1CA5 JUMPI PUSH1 0x0 DUP1 REVERT JUMPDEST DUP10 CALLDATALOAD PUSH1 0x1 PUSH1 0x1 PUSH1 0x40 SHL SUB DUP1 DUP3 GT ISZERO PUSH2 0x1CBC JUMPI PUSH1 0x0 DUP1 REVERT JUMPDEST PUSH2 0x1CC8 DUP14 DUP4 DUP15 ADD PUSH2 0x1C43 JUMP JUMPDEST SWAP1 SWAP12 POP SWAP10 POP PUSH1 0x20 DUP13 ADD CALLDATALOAD SWAP2 POP DUP1 DUP3 GT ISZERO PUSH2 0x1CE1 JUMPI PUSH1 0x0 DUP1 REVERT JUMPDEST PUSH2 0x1CED DUP14 DUP4 DUP15 ADD PUSH2 0x1C43 JUMP JUMPDEST SWAP1 SWAP10 POP SWAP8 POP PUSH1 0x40 DUP13 ADD CALLDATALOAD SWAP2 POP DUP1 DUP3 GT ISZERO PUSH2 0x1D06 JUMPI PUSH1 0x0 DUP1 REVERT JUMPDEST POP PUSH2 0x1D13 DUP13 DUP3 DUP14 ADD PUSH2 0x1C43 JUMP JUMPDEST SWAP11 SWAP14 SWAP10 SWAP13 POP SWAP8 SWAP11 SWAP7 SWAP10 SWAP8 SWAP9 PUSH1 0x60 DUP9 ADD CALLDATALOAD SWAP8 PUSH1 0x80 DUP2 ADD CALLDATALOAD SWAP8 POP PUSH1 0xA0 ADD CALLDATALOAD SWAP6 POP SWAP4 POP POP POP POP JUMP JUMPDEST PUSH1 0x0 DUP1 PUSH1 0x0 DUP1 PUSH1 0x0 DUP1 PUSH1 0x0 DUP1 PUSH1 0xA0 DUP10 DUP12 SUB SLT ISZERO PUSH2 0x1D54 JUMPI PUSH1 0x0 DUP1 REVERT JUMPDEST DUP9 CALLDATALOAD PUSH1 0x1 PUSH1 0x1 PUSH1 0x40 SHL SUB DUP1 DUP3 GT ISZERO PUSH2 0x1D6B JUMPI PUSH1 0x0 DUP1 REVERT JUMPDEST PUSH2 0x1D77 DUP13 DUP4 DUP14 ADD PUSH2 0x1C43 JUMP JUMPDEST SWAP1 SWAP11 POP SWAP9 POP PUSH1 0x20 DUP12 ADD CALLDATALOAD SWAP2 POP DUP1 DUP3 GT ISZERO PUSH2 0x1D90 JUMPI PUSH1 0x0 DUP1 REVERT JUMPDEST PUSH2 0x1D9C DUP13 DUP4 DUP14 ADD PUSH2 0x1C43 JUMP JUMPDEST SWAP1 SWAP9 POP SWAP7 POP PUSH1 0x40 DUP12 ADD CALLDATALOAD SWAP2 POP DUP1 DUP3 GT ISZERO PUSH2 0x1DB5 JUMPI PUSH1 0x0 DUP1 REVERT JUMPDEST POP PUSH2 0x1DC2 DUP12 DUP3 DUP13 ADD PUSH2 0x1C43 JUMP JUMPDEST SWAP10 SWAP13 SWAP9 SWAP12 POP SWAP7 SWAP10 SWAP6 SWAP9 SWAP7 SWAP8 PUSH1 0x60 DUP8 ADD CALLDATALOAD SWAP7 PUSH1 0x80 ADD CALLDATALOAD SWAP6 POP SWAP4 POP POP POP POP JUMP JUMPDEST PUSH1 0x0 DUP3 PUSH1 0x1F DUP4 ADD SLT PUSH2 0x1DF1 JUMPI PUSH1 0x0 DUP1 REVERT JUMPDEST DUP2 CALLDATALOAD PUSH1 0x20 PUSH1 0x1 PUSH1 0x1 PUSH1 0x40 SHL SUB DUP3 GT ISZERO PUSH2 0x1E0C JUMPI PUSH2 0x1E0C PUSH2 0x1A43 JUMP JUMPDEST DUP2 PUSH1 0x5 SHL PUSH2 0x1E1B DUP3 DUP3 ADD PUSH2 0x1A59 JUMP JUMPDEST SWAP3 DUP4 MSTORE DUP5 DUP2 ADD DUP3 ADD SWAP3 DUP3 DUP2 ADD SWAP1 DUP8 DUP6 GT ISZERO PUSH2 0x1E35 JUMPI PUSH1 0x0 DUP1 REVERT JUMPDEST DUP4 DUP8 ADD SWAP3 POP JUMPDEST DUP5 DUP4 LT ISZERO PUSH2 0x1E54 JUMPI DUP3 CALLDATALOAD DUP3 MSTORE SWAP2 DUP4 ADD SWAP2 SWAP1 DUP4 ADD SWAP1 PUSH2 0x1E3B JUMP JUMPDEST SWAP8 SWAP7 POP POP POP POP POP POP POP JUMP JUMPDEST PUSH1 0x0 DUP1 PUSH1 0x0 DUP1 PUSH1 0x0 PUSH1 0xA0 DUP7 DUP9 SUB SLT ISZERO PUSH2 0x1E77 JUMPI PUSH1 0x0 DUP1 REVERT JUMPDEST PUSH2 0x1E80 DUP7 PUSH2 0x18BD JUMP JUMPDEST SWAP5 POP PUSH2 0x1E8E PUSH1 0x20 DUP8 ADD PUSH2 0x18BD JUMP JUMPDEST SWAP4 POP PUSH1 0x40 DUP7 ADD CALLDATALOAD PUSH1 0x1 PUSH1 0x1 PUSH1 0x40 SHL SUB DUP1 DUP3 GT ISZERO PUSH2 0x1EAA JUMPI PUSH1 0x0 DUP1 REVERT JUMPDEST PUSH2 0x1EB6 DUP10 DUP4 DUP11 ADD PUSH2 0x1DE0 JUMP JUMPDEST SWAP5 POP PUSH1 0x60 DUP9 ADD CALLDATALOAD SWAP2 POP DUP1 DUP3 GT ISZERO PUSH2 0x1ECC JUMPI PUSH1 0x0 DUP1 REVERT JUMPDEST PUSH2 0x1ED8 DUP10 DUP4 DUP11 ADD PUSH2 0x1DE0 JUMP JUMPDEST SWAP4 POP PUSH1 0x80 DUP9 ADD CALLDATALOAD SWAP2 POP DUP1 DUP3 GT ISZERO PUSH2 0x1EEE JUMPI PUSH1 0x0 DUP1 REVERT JUMPDEST POP PUSH2 0x1EFB DUP9 DUP3 DUP10 ADD PUSH2 0x1A89 JUMP JUMPDEST SWAP2 POP POP SWAP3 SWAP6 POP SWAP3 SWAP6 SWAP1 SWAP4 POP JUMP JUMPDEST PUSH1 0x0 DUP1 PUSH1 0x0 DUP1 PUSH1 0x0 PUSH1 0xA0 DUP7 DUP9 SUB SLT ISZERO PUSH2 0x1F20 JUMPI PUSH1 0x0 DUP1 REVERT JUMPDEST PUSH2 0x1F29 DUP7 PUSH2 0x18BD JUMP JUMPDEST SWAP5 POP PUSH2 0x1F37 PUSH1 0x20 DUP8 ADD PUSH2 0x18BD JUMP JUMPDEST SWAP4 POP PUSH1 0x40 DUP7 ADD CALLDATALOAD SWAP3 POP PUSH1 0x60 DUP7 ADD CALLDATALOAD SWAP2 POP PUSH1 0x80 DUP7 ADD CALLDATALOAD PUSH1 0x1 PUSH1 0x1 PUSH1 0x40 SHL SUB DUP2 GT ISZERO PUSH2 0x1F60 JUMPI PUSH1 0x0 DUP1 REVERT JUMPDEST PUSH2 0x1EFB DUP9 DUP3 DUP10 ADD PUSH2 0x1A89 JUMP JUMPDEST DUP2 DUP4 MSTORE DUP2 DUP2 PUSH1 0x20 DUP6 ADD CALLDATACOPY POP PUSH1 0x0 DUP3 DUP3 ADD PUSH1 0x20 SWAP1 DUP2 ADD SWAP2 SWAP1 SWAP2 MSTORE PUSH1 0x1F SWAP1 SWAP2 ADD PUSH1 0x1F NOT AND SWAP1 SWAP2 ADD ADD SWAP1 JUMP JUMPDEST PUSH1 0x1 DUP1 PUSH1 0xA0 SHL SUB DUP8 AND DUP2 MSTORE DUP6 PUSH1 0x20 DUP3 ADD MSTORE PUSH1 0xA0 PUSH1 0x40 DUP3 ADD MSTORE PUSH1 0x0 PUSH2 0x1FBD PUSH1 0xA0 DUP4 ADD DUP7 DUP9 PUSH2 0x1F6C JUMP JUMPDEST PUSH1 0x60 DUP4 ADD SWAP5 SWAP1 SWAP5 MSTORE POP PUSH1 0x80 ADD MSTORE SWAP5 SWAP4 POP POP POP POP JUMP JUMPDEST PUSH1 0x1 DUP1 PUSH1 0xA0 SHL SUB DUP6 AND DUP2 MSTORE DUP4 PUSH1 0x20 DUP3 ADD MSTORE PUSH1 0x60 PUSH1 0x40 DUP3 ADD MSTORE PUSH1 0x0 PUSH2 0x1FFA PUSH1 0x60 DUP4 ADD DUP5 DUP7 PUSH2 0x1F6C JUMP JUMPDEST SWAP7 SWAP6 POP POP POP POP POP POP JUMP JUMPDEST PUSH1 0x1 DUP1 PUSH1 0xA0 SHL SUB DUP6 AND DUP2 MSTORE DUP4 PUSH1 0x20 DUP3 ADD MSTORE PUSH1 0x80 PUSH1 0x40 DUP3 ADD MSTORE PUSH1 0x0 PUSH2 0x202B PUSH1 0x80 DUP4 ADD DUP6 PUSH2 0x1C04 JUMP JUMPDEST SWAP1 POP PUSH1 0x2 DUP4 LT PUSH2 0x204B JUMPI PUSH4 0x4E487B71 PUSH1 0xE0 SHL PUSH1 0x0 MSTORE PUSH1 0x21 PUSH1 0x4 MSTORE PUSH1 0x24 PUSH1 0x0 REVERT JUMPDEST DUP3 PUSH1 0x60 DUP4 ADD MSTORE SWAP6 SWAP5 POP POP POP POP POP JUMP JUMPDEST PUSH1 0x0 PUSH1 0x20 DUP3 DUP5 SUB SLT ISZERO PUSH2 0x206C JUMPI PUSH1 0x0 DUP1 REVERT JUMPDEST DUP2 MLOAD DUP1 ISZERO ISZERO DUP2 EQ PUSH2 0x948 JUMPI PUSH1 0x0 DUP1 REVERT JUMPDEST PUSH1 0x1 PUSH1 0x1 PUSH1 0xA0 SHL SUB SWAP6 DUP7 AND DUP2 MSTORE SWAP4 DUP6 AND PUSH1 0x20 DUP6 ADD MSTORE PUSH1 0x40 DUP5 ADD SWAP3 SWAP1 SWAP3 MSTORE SWAP1 SWAP3 AND PUSH1 0x60 DUP3 ADD MSTORE PUSH1 0x80 DUP2 ADD SWAP2 SWAP1 SWAP2 MSTORE PUSH1 0xA0 ADD SWAP1 JUMP JUMPDEST PUSH1 0x20 DUP1 DUP3 MSTORE PUSH1 0x23 SWAP1 DUP3 ADD MSTORE PUSH32 0x54696D656C6F636B436F6E74726F6C6C65723A206C656E677468206D69736D61 PUSH1 0x40 DUP3 ADD MSTORE PUSH3 0xE8C6D PUSH1 0xEB SHL PUSH1 0x60 DUP3 ADD MSTORE PUSH1 0x80 ADD SWAP1 JUMP JUMPDEST PUSH4 0x4E487B71 PUSH1 0xE0 SHL PUSH1 0x0 MSTORE PUSH1 0x32 PUSH1 0x4 MSTORE PUSH1 0x24 PUSH1 0x0 REVERT JUMPDEST PUSH1 0x0 PUSH1 0x20 DUP3 DUP5 SUB SLT ISZERO PUSH2 0x211A JUMPI PUSH1 0x0 DUP1 REVERT JUMPDEST PUSH2 0x948 DUP3 PUSH2 0x18BD JUMP JUMPDEST PUSH1 0x0 DUP1 DUP4 CALLDATALOAD PUSH1 0x1E NOT DUP5 CALLDATASIZE SUB ADD DUP2 SLT PUSH2 0x213A JUMPI PUSH1 0x0 DUP1 REVERT JUMPDEST DUP4 ADD DUP1 CALLDATALOAD SWAP2 POP PUSH1 0x1 PUSH1 0x1 PUSH1 0x40 SHL SUB DUP3 GT ISZERO PUSH2 0x2154 JUMPI PUSH1 0x0 DUP1 REVERT JUMPDEST PUSH1 0x20 ADD SWAP2 POP CALLDATASIZE DUP2 SWAP1 SUB DUP3 SGT ISZERO PUSH2 0x191A JUMPI PUSH1 0x0 DUP1 REVERT JUMPDEST PUSH4 0x4E487B71 PUSH1 0xE0 SHL PUSH1 0x0 MSTORE PUSH1 0x11 PUSH1 0x4 MSTORE PUSH1 0x24 PUSH1 0x0 REVERT JUMPDEST PUSH1 0x0 PUSH1 0x1 DUP3 ADD PUSH2 0x2191 JUMPI PUSH2 0x2191 PUSH2 0x2169 JUMP JUMPDEST POP PUSH1 0x1 ADD SWAP1 JUMP JUMPDEST DUP2 DUP4 MSTORE PUSH1 0x0 PUSH1 0x20 DUP1 DUP6 ADD DUP1 DUP2 SWAP7 POP DUP6 PUSH1 0x5 SHL DUP2 ADD SWAP2 POP DUP5 PUSH1 0x0 JUMPDEST DUP8 DUP2 LT ISZERO PUSH2 0x221C JUMPI DUP3 DUP5 SUB DUP10 MSTORE DUP2 CALLDATALOAD PUSH1 0x1E NOT DUP9 CALLDATASIZE SUB ADD DUP2 SLT PUSH2 0x21D3 JUMPI PUSH1 0x0 DUP1 REVERT JUMPDEST DUP8 ADD DUP6 DUP2 ADD SWAP1 CALLDATALOAD PUSH1 0x1 PUSH1 0x1 PUSH1 0x40 SHL SUB DUP2 GT ISZERO PUSH2 0x21EE JUMPI PUSH1 0x0 DUP1 REVERT JUMPDEST DUP1 CALLDATASIZE SUB DUP3 SGT ISZERO PUSH2 0x21FD JUMPI PUSH1 0x0 DUP1 REVERT JUMPDEST PUSH2 0x2208 DUP7 DUP3 DUP5 PUSH2 0x1F6C JUMP JUMPDEST SWAP11 DUP8 ADD SWAP11 SWAP6 POP POP POP SWAP1 DUP5 ADD SWAP1 PUSH1 0x1 ADD PUSH2 0x21B2 JUMP JUMPDEST POP SWAP2 SWAP8 SWAP7 POP POP POP POP POP POP POP JUMP JUMPDEST PUSH1 0xA0 DUP1 DUP3 MSTORE DUP2 ADD DUP9 SWAP1 MSTORE PUSH1 0x0 DUP10 PUSH1 0xC0 DUP4 ADD DUP3 JUMPDEST DUP12 DUP2 LT ISZERO PUSH2 0x226A JUMPI PUSH1 0x1 PUSH1 0x1 PUSH1 0xA0 SHL SUB PUSH2 0x2255 DUP5 PUSH2 0x18BD JUMP JUMPDEST AND DUP3 MSTORE PUSH1 0x20 SWAP3 DUP4 ADD SWAP3 SWAP1 SWAP2 ADD SWAP1 PUSH1 0x1 ADD PUSH2 0x223C JUMP JUMPDEST POP DUP4 DUP2 SUB PUSH1 0x20 DUP6 ADD MSTORE DUP9 DUP2 MSTORE PUSH1 0x1 PUSH1 0x1 PUSH1 0xFB SHL SUB DUP10 GT ISZERO PUSH2 0x228A JUMPI PUSH1 0x0 DUP1 REVERT JUMPDEST DUP9 PUSH1 0x5 SHL SWAP2 POP DUP2 DUP11 PUSH1 0x20 DUP4 ADD CALLDATACOPY ADD DUP3 DUP2 SUB PUSH1 0x20 SWAP1 DUP2 ADD PUSH1 0x40 DUP6 ADD MSTORE PUSH2 0x22B2 SWAP1 DUP3 ADD DUP8 DUP10 PUSH2 0x2198 JUMP JUMPDEST PUSH1 0x60 DUP5 ADD SWAP6 SWAP1 SWAP6 MSTORE POP POP PUSH1 0x80 ADD MSTORE SWAP7 SWAP6 POP POP POP POP POP POP JUMP JUMPDEST DUP1 DUP3 ADD DUP1 DUP3 GT ISZERO PUSH2 0x86E JUMPI PUSH2 0x86E PUSH2 0x2169 JUMP JUMPDEST PUSH32 0x416363657373436F6E74726F6C3A206163636F756E7420000000000000000000 DUP2 MSTORE PUSH1 0x0 DUP4 MLOAD PUSH2 0x2315 DUP2 PUSH1 0x17 DUP6 ADD PUSH1 0x20 DUP9 ADD PUSH2 0x1BE0 JUMP JUMPDEST PUSH17 0x1034B99036B4B9B9B4B733903937B6329 PUSH1 0x7D SHL PUSH1 0x17 SWAP2 DUP5 ADD SWAP2 DUP3 ADD MSTORE DUP4 MLOAD PUSH2 0x2346 DUP2 PUSH1 0x28 DUP5 ADD PUSH1 0x20 DUP9 ADD PUSH2 0x1BE0 JUMP JUMPDEST ADD PUSH1 0x28 ADD SWAP5 SWAP4 POP POP POP POP JUMP JUMPDEST PUSH1 0x20 DUP1 DUP3 MSTORE PUSH1 0x2A SWAP1 DUP3 ADD MSTORE PUSH32 0x54696D656C6F636B436F6E74726F6C6C65723A206F7065726174696F6E206973 PUSH1 0x40 DUP3 ADD MSTORE PUSH10 0x206E6F74207265616479 PUSH1 0xB0 SHL PUSH1 0x60 DUP3 ADD MSTORE PUSH1 0x80 ADD SWAP1 JUMP JUMPDEST DUP2 DUP4 DUP3 CALLDATACOPY PUSH1 0x0 SWAP2 ADD SWAP1 DUP2 MSTORE SWAP2 SWAP1 POP JUMP JUMPDEST DUP1 DUP3 MUL DUP2 ISZERO DUP3 DUP3 DIV DUP5 EQ OR PUSH2 0x86E JUMPI PUSH2 0x86E PUSH2 0x2169 JUMP JUMPDEST PUSH1 0x0 DUP2 PUSH2 0x23D2 JUMPI PUSH2 0x23D2 PUSH2 0x2169 JUMP JUMPDEST POP PUSH1 0x0 NOT ADD SWAP1 JUMP INVALID LOG2 PUSH5 0x6970667358 0x22 SLT KECCAK256 BASEFEE PUSH31 0x19BB5901808A1741E841402D8D13251D79D120ABC295E2F3B3DFB0D1390464 PUSH20 0x6F6C634300081200335F58E3A2316349923CE378 0xF DUP14 PC PUSH30 0xB2D72378AED66A8261C916544FA6846CA5B09AA5AEB3702CFD50B6B62BC4 MSTORE8 0x26 DIV SWAP4 DUP16 0x21 0x24 DUP11 0x27 LOG1 0xD5 0xCA PUSH20 0x6082B6819CC1D8AA0F3194971A2A116679F7C209 0xF PUSH10 0x39C8D4E01A2A8D7E41D5 0x5E MSTORE8 MLOAD CHAINID SWAP15 PUSH4 0xFD643C72 PUSH18 0xC63C0180259ABA6B2D05451E3591A24E58B PUSH3 0x239378 ADDMOD JUMPI 0x26 0xF7 DUP4 "
		},
		"gasEstimates": {
			"creation": {
				"codeDepositCost": "1846400",
				"executionCost": "infinite",
				"totalCost": "infinite"
			},
			"external": {
				"CANCELLER_ROLE()": "306",
				"DEFAULT_ADMIN_ROLE()": "262",
				"EXECUTOR_ROLE()": "286",
				"NAME()": "infinite",
				"PROPOSER_ROLE()": "285",
				"SAFE()": "2383",
				"TIMELOCK_ADMIN_ROLE()": "308",
				"VERSION()": "infinite",
				"assembleExitViaTrustee(address,address,uint256,address,uint256)": "infinite",
				"assembleJoinViaTrustee(address,address,uint256,address,uint256)": "infinite",
				"cancel(bytes32)": "infinite",
				"execute(address,uint256,bytes,bytes32,bytes32)": "infinite",
				"executeBatch(address[],uint256[],bytes[],bytes32,bytes32)": "infinite",
				"exitViaTrustee(address,address,uint256,address,uint256)": "infinite",
				"getMinDelay()": "2380",
				"getRoleAdmin(bytes32)": "2559",
				"getTimestamp(bytes32)": "2527",
				"grantRole(bytes32,address)": "infinite",
				"hasRole(bytes32,address)": "2763",
				"hashOperation(address,uint256,bytes,bytes32,bytes32)": "infinite",
				"hashOperationBatch(address[],uint256[],bytes[],bytes32,bytes32)": "infinite",
				"isOperation(bytes32)": "2552",
				"isOperationDone(bytes32)": "2491",
				"isOperationPending(bytes32)": "2540",
				"isOperationReady(bytes32)": "2564",
				"joinViaTrustee(address,address,uint256,address,uint256)": "infinite",
				"onERC1155BatchReceived(address,address,uint256[],uint256[],bytes)": "infinite",
				"onERC1155Received(address,address,uint256,uint256,bytes)": "infinite",
				"onERC721Received(address,address,uint256,bytes)": "infinite",
				"renounceRole(bytes32,address)": "29107",
				"revokeRole(bytes32,address)": "infinite",
				"schedule(address,uint256,bytes,bytes32,bytes32,uint256)": "infinite",
				"scheduleBatch(address[],uint256[],bytes[],bytes32,bytes32,uint256)": "infinite",
				"supportsInterface(bytes4)": "infinite",
				"updateDelay(uint256)": "25893"
			}
		},
		"methodIdentifiers": {
			"CANCELLER_ROLE()": "b08e51c0",
			"DEFAULT_ADMIN_ROLE()": "a217fddf",
			"EXECUTOR_ROLE()": "07bd0265",
			"NAME()": "a3f4df7e",
			"PROPOSER_ROLE()": "8f61f4f5",
			"SAFE()": "885a1ffa",
			"TIMELOCK_ADMIN_ROLE()": "0d3cf6fc",
			"VERSION()": "ffa1ad74",
			"assembleExitViaTrustee(address,address,uint256,address,uint256)": "99409a30",
			"assembleJoinViaTrustee(address,address,uint256,address,uint256)": "61b894fb",
			"cancel(bytes32)": "c4d252f5",
			"execute(address,uint256,bytes,bytes32,bytes32)": "134008d3",
			"executeBatch(address[],uint256[],bytes[],bytes32,bytes32)": "e38335e5",
			"exitViaTrustee(address,address,uint256,address,uint256)": "3adbbc5c",
			"getMinDelay()": "f27a0c92",
			"getRoleAdmin(bytes32)": "248a9ca3",
			"getTimestamp(bytes32)": "d45c4435",
			"grantRole(bytes32,address)": "2f2ff15d",
			"hasRole(bytes32,address)": "91d14854",
			"hashOperation(address,uint256,bytes,bytes32,bytes32)": "8065657f",
			"hashOperationBatch(address[],uint256[],bytes[],bytes32,bytes32)": "b1c5f427",
			"isOperation(bytes32)": "31d50750",
			"isOperationDone(bytes32)": "2ab0f529",
			"isOperationPending(bytes32)": "584b153e",
			"isOperationReady(bytes32)": "13bc9f20",
			"joinViaTrustee(address,address,uint256,address,uint256)": "f35a84fc",
			"onERC1155BatchReceived(address,address,uint256[],uint256[],bytes)": "bc197c81",
			"onERC1155Received(address,address,uint256,uint256,bytes)": "f23a6e61",
			"onERC721Received(address,address,uint256,bytes)": "150b7a02",
			"renounceRole(bytes32,address)": "36568abe",
			"revokeRole(bytes32,address)": "d547741f",
			"schedule(address,uint256,bytes,bytes32,bytes32,uint256)": "01d5062a",
			"scheduleBatch(address[],uint256[],bytes[],bytes32,bytes32,uint256)": "8f2a0bb0",
			"supportsInterface(bytes4)": "01ffc9a7",
			"updateDelay(uint256)": "64d62353"
		}
	},
	"abi": [
		{
			"inputs": [
				{
					"internalType": "address",
					"name": "bindingSafe",
					"type": "address"
				},
				{
					"internalType": "address[]",
					"name": "initialTrustee",
					"type": "address[]"
				}
			],
			"stateMutability": "nonpayable",
			"type": "constructor"
		},
		{
			"anonymous": false,
			"inputs": [
				{
					"indexed": true,
					"internalType": "bytes32",
					"name": "id",
					"type": "bytes32"
				},
				{
					"indexed": true,
					"internalType": "uint256",
					"name": "index",
					"type": "uint256"
				},
				{
					"indexed": false,
					"internalType": "address",
					"name": "target",
					"type": "address"
				},
				{
					"indexed": false,
					"internalType": "uint256",
					"name": "value",
					"type": "uint256"
				},
				{
					"indexed": false,
					"internalType": "bytes",
					"name": "data",
					"type": "bytes"
				}
			],
			"name": "CallExecuted",
			"type": "event"
		},
		{
			"anonymous": false,
			"inputs": [
				{
					"indexed": true,
					"internalType": "bytes32",
					"name": "id",
					"type": "bytes32"
				},
				{
					"indexed": false,
					"internalType": "bytes32",
					"name": "salt",
					"type": "bytes32"
				}
			],
			"name": "CallSalt",
			"type": "event"
		},
		{
			"anonymous": false,
			"inputs": [
				{
					"indexed": true,
					"internalType": "bytes32",
					"name": "id",
					"type": "bytes32"
				},
				{
					"indexed": true,
					"internalType": "uint256",
					"name": "index",
					"type": "uint256"
				},
				{
					"indexed": false,
					"internalType": "address",
					"name": "target",
					"type": "address"
				},
				{
					"indexed": false,
					"internalType": "uint256",
					"name": "value",
					"type": "uint256"
				},
				{
					"indexed": false,
					"internalType": "bytes",
					"name": "data",
					"type": "bytes"
				},
				{
					"indexed": false,
					"internalType": "bytes32",
					"name": "predecessor",
					"type": "bytes32"
				},
				{
					"indexed": false,
					"internalType": "uint256",
					"name": "delay",
					"type": "uint256"
				}
			],
			"name": "CallScheduled",
			"type": "event"
		},
		{
			"anonymous": false,
			"inputs": [
				{
					"indexed": true,
					"internalType": "bytes32",
					"name": "id",
					"type": "bytes32"
				}
			],
			"name": "Cancelled",
			"type": "event"
		},
		{
			"anonymous": false,
			"inputs": [
				{
					"indexed": false,
					"internalType": "uint256",
					"name": "oldDuration",
					"type": "uint256"
				},
				{
					"indexed": false,
					"internalType": "uint256",
					"name": "newDuration",
					"type": "uint256"
				}
			],
			"name": "MinDelayChange",
			"type": "event"
		},
		{
			"anonymous": false,
			"inputs": [
				{
					"indexed": true,
					"internalType": "bytes32",
					"name": "role",
					"type": "bytes32"
				},
				{
					"indexed": true,
					"internalType": "bytes32",
					"name": "previousAdminRole",
					"type": "bytes32"
				},
				{
					"indexed": true,
					"internalType": "bytes32",
					"name": "newAdminRole",
					"type": "bytes32"
				}
			],
			"name": "RoleAdminChanged",
			"type": "event"
		},
		{
			"anonymous": false,
			"inputs": [
				{
					"indexed": true,
					"internalType": "bytes32",
					"name": "role",
					"type": "bytes32"
				},
				{
					"indexed": true,
					"internalType": "address",
					"name": "account",
					"type": "address"
				},
				{
					"indexed": true,
					"internalType": "address",
					"name": "sender",
					"type": "address"
				}
			],
			"name": "RoleGranted",
			"type": "event"
		},
		{
			"anonymous": false,
			"inputs": [
				{
					"indexed": true,
					"internalType": "bytes32",
					"name": "role",
					"type": "bytes32"
				},
				{
					"indexed": true,
					"internalType": "address",
					"name": "account",
					"type": "address"
				},
				{
					"indexed": true,
					"internalType": "address",
					"name": "sender",
					"type": "address"
				}
			],
			"name": "RoleRevoked",
			"type": "event"
		},
		{
			"inputs": [],
			"name": "CANCELLER_ROLE",
			"outputs": [
				{
					"internalType": "bytes32",
					"name": "",
					"type": "bytes32"
				}
			],
			"stateMutability": "view",
			"type": "function"
		},
		{
			"inputs": [],
			"name": "DEFAULT_ADMIN_ROLE",
			"outputs": [
				{
					"internalType": "bytes32",
					"name": "",
					"type": "bytes32"
				}
			],
			"stateMutability": "view",
			"type": "function"
		},
		{
			"inputs": [],
			"name": "EXECUTOR_ROLE",
			"outputs": [
				{
					"internalType": "bytes32",
					"name": "",
					"type": "bytes32"
				}
			],
			"stateMutability": "view",
			"type": "function"
		},
		{
			"inputs": [],
			"name": "NAME",
			"outputs": [
				{
					"internalType": "string",
					"name": "",
					"type": "string"
				}
			],
			"stateMutability": "view",
			"type": "function"
		},
		{
			"inputs": [],
			"name": "PROPOSER_ROLE",
			"outputs": [
				{
					"internalType": "bytes32",
					"name": "",
					"type": "bytes32"
				}
			],
			"stateMutability": "view",
			"type": "function"
		},
		{
			"inputs": [],
			"name": "SAFE",
			"outputs": [
				{
					"internalType": "contract GnosisSafe",
					"name": "",
					"type": "address"
				}
			],
			"stateMutability": "view",
			"type": "function"
		},
		{
			"inputs": [],
			"name": "TIMELOCK_ADMIN_ROLE",
			"outputs": [
				{
					"internalType": "bytes32",
					"name": "",
					"type": "bytes32"
				}
			],
			"stateMutability": "view",
			"type": "function"
		},
		{
			"inputs": [],
			"name": "VERSION",
			"outputs": [
				{
					"internalType": "string",
					"name": "",
					"type": "string"
				}
			],
			"stateMutability": "view",
			"type": "function"
		},
		{
			"inputs": [
				{
					"internalType": "address",
					"name": "account",
					"type": "address"
				},
				{
					"internalType": "address",
					"name": "receiver",
					"type": "address"
				},
				{
					"internalType": "uint256",
					"name": "burnAmount",
					"type": "uint256"
				},
				{
					"internalType": "address",
					"name": "exitToken",
					"type": "address"
				},
				{
					"internalType": "uint256",
					"name": "exitAmount",
					"type": "uint256"
				}
			],
			"name": "assembleExitViaTrustee",
			"outputs": [
				{
					"internalType": "bytes",
					"name": "data",
					"type": "bytes"
				}
			],
			"stateMutability": "pure",
			"type": "function"
		},
		{
			"inputs": [
				{
					"internalType": "address",
					"name": "payer",
					"type": "address"
				},
				{
					"internalType": "address",
					"name": "receiver",
					"type": "address"
				},
				{
					"internalType": "uint256",
					"name": "mintAmount",
					"type": "uint256"
				},
				{
					"internalType": "address",
					"name": "investToken",
					"type": "address"
				},
				{
					"internalType": "uint256",
					"name": "investAmount",
					"type": "uint256"
				}
			],
			"name": "assembleJoinViaTrustee",
			"outputs": [
				{
					"internalType": "bytes",
					"name": "data",
					"type": "bytes"
				}
			],
			"stateMutability": "pure",
			"type": "function"
		},
		{
			"inputs": [
				{
					"internalType": "bytes32",
					"name": "id",
					"type": "bytes32"
				}
			],
			"name": "cancel",
			"outputs": [],
			"stateMutability": "nonpayable",
			"type": "function"
		},
		{
			"inputs": [
				{
					"internalType": "address",
					"name": "target",
					"type": "address"
				},
				{
					"internalType": "uint256",
					"name": "value",
					"type": "uint256"
				},
				{
					"internalType": "bytes",
					"name": "payload",
					"type": "bytes"
				},
				{
					"internalType": "bytes32",
					"name": "predecessor",
					"type": "bytes32"
				},
				{
					"internalType": "bytes32",
					"name": "salt",
					"type": "bytes32"
				}
			],
			"name": "execute",
			"outputs": [],
			"stateMutability": "payable",
			"type": "function"
		},
		{
			"inputs": [
				{
					"internalType": "address[]",
					"name": "targets",
					"type": "address[]"
				},
				{
					"internalType": "uint256[]",
					"name": "values",
					"type": "uint256[]"
				},
				{
					"internalType": "bytes[]",
					"name": "payloads",
					"type": "bytes[]"
				},
				{
					"internalType": "bytes32",
					"name": "predecessor",
					"type": "bytes32"
				},
				{
					"internalType": "bytes32",
					"name": "salt",
					"type": "bytes32"
				}
			],
			"name": "executeBatch",
			"outputs": [],
			"stateMutability": "payable",
			"type": "function"
		},
		{
			"inputs": [
				{
					"internalType": "address",
					"name": "account",
					"type": "address"
				},
				{
					"internalType": "address",
					"name": "receiver",
					"type": "address"
				},
				{
					"internalType": "uint256",
					"name": "burnAmount",
					"type": "uint256"
				},
				{
					"internalType": "address",
					"name": "exitToken",
					"type": "address"
				},
				{
					"internalType": "uint256",
					"name": "exitAmount",
					"type": "uint256"
				}
			],
			"name": "exitViaTrustee",
			"outputs": [],
			"stateMutability": "nonpayable",
			"type": "function"
		},
		{
			"inputs": [],
			"name": "getMinDelay",
			"outputs": [
				{
					"internalType": "uint256",
					"name": "duration",
					"type": "uint256"
				}
			],
			"stateMutability": "view",
			"type": "function"
		},
		{
			"inputs": [
				{
					"internalType": "bytes32",
					"name": "role",
					"type": "bytes32"
				}
			],
			"name": "getRoleAdmin",
			"outputs": [
				{
					"internalType": "bytes32",
					"name": "",
					"type": "bytes32"
				}
			],
			"stateMutability": "view",
			"type": "function"
		},
		{
			"inputs": [
				{
					"internalType": "bytes32",
					"name": "id",
					"type": "bytes32"
				}
			],
			"name": "getTimestamp",
			"outputs": [
				{
					"internalType": "uint256",
					"name": "timestamp",
					"type": "uint256"
				}
			],
			"stateMutability": "view",
			"type": "function"
		},
		{
			"inputs": [
				{
					"internalType": "bytes32",
					"name": "role",
					"type": "bytes32"
				},
				{
					"internalType": "address",
					"name": "account",
					"type": "address"
				}
			],
			"name": "grantRole",
			"outputs": [],
			"stateMutability": "nonpayable",
			"type": "function"
		},
		{
			"inputs": [
				{
					"internalType": "bytes32",
					"name": "role",
					"type": "bytes32"
				},
				{
					"internalType": "address",
					"name": "account",
					"type": "address"
				}
			],
			"name": "hasRole",
			"outputs": [
				{
					"internalType": "bool",
					"name": "",
					"type": "bool"
				}
			],
			"stateMutability": "view",
			"type": "function"
		},
		{
			"inputs": [
				{
					"internalType": "address",
					"name": "target",
					"type": "address"
				},
				{
					"internalType": "uint256",
					"name": "value",
					"type": "uint256"
				},
				{
					"internalType": "bytes",
					"name": "data",
					"type": "bytes"
				},
				{
					"internalType": "bytes32",
					"name": "predecessor",
					"type": "bytes32"
				},
				{
					"internalType": "bytes32",
					"name": "salt",
					"type": "bytes32"
				}
			],
			"name": "hashOperation",
			"outputs": [
				{
					"internalType": "bytes32",
					"name": "hash",
					"type": "bytes32"
				}
			],
			"stateMutability": "pure",
			"type": "function"
		},
		{
			"inputs": [
				{
					"internalType": "address[]",
					"name": "targets",
					"type": "address[]"
				},
				{
					"internalType": "uint256[]",
					"name": "values",
					"type": "uint256[]"
				},
				{
					"internalType": "bytes[]",
					"name": "payloads",
					"type": "bytes[]"
				},
				{
					"internalType": "bytes32",
					"name": "predecessor",
					"type": "bytes32"
				},
				{
					"internalType": "bytes32",
					"name": "salt",
					"type": "bytes32"
				}
			],
			"name": "hashOperationBatch",
			"outputs": [
				{
					"internalType": "bytes32",
					"name": "hash",
					"type": "bytes32"
				}
			],
			"stateMutability": "pure",
			"type": "function"
		},
		{
			"inputs": [
				{
					"internalType": "bytes32",
					"name": "id",
					"type": "bytes32"
				}
			],
			"name": "isOperation",
			"outputs": [
				{
					"internalType": "bool",
					"name": "registered",
					"type": "bool"
				}
			],
			"stateMutability": "view",
			"type": "function"
		},
		{
			"inputs": [
				{
					"internalType": "bytes32",
					"name": "id",
					"type": "bytes32"
				}
			],
			"name": "isOperationDone",
			"outputs": [
				{
					"internalType": "bool",
					"name": "done",
					"type": "bool"
				}
			],
			"stateMutability": "view",
			"type": "function"
		},
		{
			"inputs": [
				{
					"internalType": "bytes32",
					"name": "id",
					"type": "bytes32"
				}
			],
			"name": "isOperationPending",
			"outputs": [
				{
					"internalType": "bool",
					"name": "pending",
					"type": "bool"
				}
			],
			"stateMutability": "view",
			"type": "function"
		},
		{
			"inputs": [
				{
					"internalType": "bytes32",
					"name": "id",
					"type": "bytes32"
				}
			],
			"name": "isOperationReady",
			"outputs": [
				{
					"internalType": "bool",
					"name": "ready",
					"type": "bool"
				}
			],
			"stateMutability": "view",
			"type": "function"
		},
		{
			"inputs": [
				{
					"internalType": "address",
					"name": "payer",
					"type": "address"
				},
				{
					"internalType": "address",
					"name": "receiver",
					"type": "address"
				},
				{
					"internalType": "uint256",
					"name": "mintAmount",
					"type": "uint256"
				},
				{
					"internalType": "address",
					"name": "investToken",
					"type": "address"
				},
				{
					"internalType": "uint256",
					"name": "investAmount",
					"type": "uint256"
				}
			],
			"name": "joinViaTrustee",
			"outputs": [],
			"stateMutability": "nonpayable",
			"type": "function"
		},
		{
			"inputs": [
				{
					"internalType": "address",
					"name": "",
					"type": "address"
				},
				{
					"internalType": "address",
					"name": "",
					"type": "address"
				},
				{
					"internalType": "uint256[]",
					"name": "",
					"type": "uint256[]"
				},
				{
					"internalType": "uint256[]",
					"name": "",
					"type": "uint256[]"
				},
				{
					"internalType": "bytes",
					"name": "",
					"type": "bytes"
				}
			],
			"name": "onERC1155BatchReceived",
			"outputs": [
				{
					"internalType": "bytes4",
					"name": "",
					"type": "bytes4"
				}
			],
			"stateMutability": "nonpayable",
			"type": "function"
		},
		{
			"inputs": [
				{
					"internalType": "address",
					"name": "",
					"type": "address"
				},
				{
					"internalType": "address",
					"name": "",
					"type": "address"
				},
				{
					"internalType": "uint256",
					"name": "",
					"type": "uint256"
				},
				{
					"internalType": "uint256",
					"name": "",
					"type": "uint256"
				},
				{
					"internalType": "bytes",
					"name": "",
					"type": "bytes"
				}
			],
			"name": "onERC1155Received",
			"outputs": [
				{
					"internalType": "bytes4",
					"name": "",
					"type": "bytes4"
				}
			],
			"stateMutability": "nonpayable",
			"type": "function"
		},
		{
			"inputs": [
				{
					"internalType": "address",
					"name": "",
					"type": "address"
				},
				{
					"internalType": "address",
					"name": "",
					"type": "address"
				},
				{
					"internalType": "uint256",
					"name": "",
					"type": "uint256"
				},
				{
					"internalType": "bytes",
					"name": "",
					"type": "bytes"
				}
			],
			"name": "onERC721Received",
			"outputs": [
				{
					"internalType": "bytes4",
					"name": "",
					"type": "bytes4"
				}
			],
			"stateMutability": "nonpayable",
			"type": "function"
		},
		{
			"inputs": [
				{
					"internalType": "bytes32",
					"name": "role",
					"type": "bytes32"
				},
				{
					"internalType": "address",
					"name": "account",
					"type": "address"
				}
			],
			"name": "renounceRole",
			"outputs": [],
			"stateMutability": "nonpayable",
			"type": "function"
		},
		{
			"inputs": [
				{
					"internalType": "bytes32",
					"name": "role",
					"type": "bytes32"
				},
				{
					"internalType": "address",
					"name": "account",
					"type": "address"
				}
			],
			"name": "revokeRole",
			"outputs": [],
			"stateMutability": "nonpayable",
			"type": "function"
		},
		{
			"inputs": [
				{
					"internalType": "address",
					"name": "target",
					"type": "address"
				},
				{
					"internalType": "uint256",
					"name": "value",
					"type": "uint256"
				},
				{
					"internalType": "bytes",
					"name": "data",
					"type": "bytes"
				},
				{
					"internalType": "bytes32",
					"name": "predecessor",
					"type": "bytes32"
				},
				{
					"internalType": "bytes32",
					"name": "salt",
					"type": "bytes32"
				},
				{
					"internalType": "uint256",
					"name": "delay",
					"type": "uint256"
				}
			],
			"name": "schedule",
			"outputs": [],
			"stateMutability": "nonpayable",
			"type": "function"
		},
		{
			"inputs": [
				{
					"internalType": "address[]",
					"name": "targets",
					"type": "address[]"
				},
				{
					"internalType": "uint256[]",
					"name": "values",
					"type": "uint256[]"
				},
				{
					"internalType": "bytes[]",
					"name": "payloads",
					"type": "bytes[]"
				},
				{
					"internalType": "bytes32",
					"name": "predecessor",
					"type": "bytes32"
				},
				{
					"internalType": "bytes32",
					"name": "salt",
					"type": "bytes32"
				},
				{
					"internalType": "uint256",
					"name": "delay",
					"type": "uint256"
				}
			],
			"name": "scheduleBatch",
			"outputs": [],
			"stateMutability": "nonpayable",
			"type": "function"
		},
		{
			"inputs": [
				{
					"internalType": "bytes4",
					"name": "interfaceId",
					"type": "bytes4"
				}
			],
			"name": "supportsInterface",
			"outputs": [
				{
					"internalType": "bool",
					"name": "",
					"type": "bool"
				}
			],
			"stateMutability": "view",
			"type": "function"
		},
		{
			"inputs": [
				{
					"internalType": "uint256",
					"name": "newDelay",
					"type": "uint256"
				}
			],
			"name": "updateDelay",
			"outputs": [],
			"stateMutability": "nonpayable",
			"type": "function"
		},
		{
			"stateMutability": "payable",
			"type": "receive"
		}
	]
}